:1000000000000220459C01006D9C01006F9C0100D6
:10001000719C0100739C0100759C010000000000B0
:10002000000000000000000000000000779C0100BC
:10003000799C0100000000007B9C01007D9C010078
:100040007F9C0100619B00000D9B0100D19A010083
:10005000E59A01007F9C0100E9840100C97101005B
:10006000559601005D960100659601007F9C010098
:100070007F9C01007F9C01007F9C01007F9C010010
:100080007F9C01007F9C01007F9C01007F9C010000
:100090007F9C01007F9C01007F9C01007F9C0100F0
:1000A0007F9C01007F9C01006D9601007596010008
:1000B0007F9C01007F9C0100000000000000000008
:1000C0007F9C01007F9C01007F9C0100F99A010048
:1000D0007F9C01007F9C01007F9C010000000000CC
:1000E0000000000000000000000000000000000010
:1000F0000000000000000000000000000000000000
:1001000000000000000000000000000000000000EF
:1001100000000000000000000000000000000000DF
:1001200000000000000000000000000000000000CF
:1001300000000000000000000000000000000000BF
:1001400000000000000000000000000000000000AF
:10015000000000000000000000000000000000009F
:10016000000000000000000000000000000000008F
:10017000000000000000000000000000000000007F
:10018000000000000000000000000000000000006F
:10019000000000000000000000000000000000005F
:1001A000000000000000000000000000000000004F
:1001B000000000000000000000000000000000003F
:1001C000000000000000000000000000000000002F
:1001D000000000000000000000000000000000001F
:1001E000000000000000000000000000000000000F
:1001F00000000000000000000000000000000000FF
:1002000030B490F800F020F007016FF0000C10F00F
:10021000070491F820F040F048804FF000046FF0A0
:100220000700D1E9002391F840F000F1080082FABC
:100230004CF2A4FA8CF283FA4CF3A2FA8CF34BBB87
:10024000D1E9022382FA4CF200F10800A4FA8CF200
:1002500083FA4CF3A2FA8CF3E3B9D1E9042382FACE
:100260004CF200F10800A4FA8CF283FA4CF3A2FAE3
:100270008CF37BB9D1E9062301F1200182FA4CF21B
:1002800000F10800A4FA8CF283FA4CF3A2FA8CF382
:10029000002BC6D0002A04BF04301A4612BAB2FAA4
:1002A00082F200EBD20030BC7047D1E9002304F0A9
:1002B0000305C4F100004FEAC50514F0040F91F8DE
:1002C00040F00CFA05F562EA05021CBF63EA05037B
:1002D00062464FF00004AAE70000000000000000A2
:1002E00002780B78012A28BF9A4240F0D8806DE945
:1002F000044540EA0104CDE902676FF0000C4FEAC3
:1003000044721AB380EA010414F0070F6BD100F0B5
:10031000070420F0070004F0030521F007014FEA6D
:10032000C505F0E8042314F0040FF1E804670CFAA3
:1003300005F462EA040266EA04060BD063EA0403E9
:10034000624667EA0407664604E000BFF0E804235B
:10035000F1E8046782FA4CF582EA0604A4FA8CF408
:100360006CBB83FA4CF583EA0705A5FA8CF595B9C1
:1003700050E9022351E9026782FA4CF582EA060449
:10038000A4FA8CF483FA4CF583EA0705A5FA8CF5F8
:100390002543DBD09CB92DBAB5FA85F424F00704C7
:1003A00027FA04F1DDE9026723FA04F303F0FF0002
:1003B00001F0FF01FDE80445A0EB0100704724BAFD
:1003C000B4FA84F424F0070426FA04F1DDE90267A4
:1003D00022FA04F202F0FF0001F0FF01FDE80445FB
:1003E000A0EB0100704714F0030F3CD110F00304A0
:1003F00028D150F8082B51F8083B82FA4CF582EAD4
:100400000305A5FA8CF55DB950F8042C51F8043CAD
:1004100082FA4CF582EA0305A5FA8CF5002DE8D0A6
:100420002DBAB5FA85F424F0070423FA04F122FA70
:1004300004F202F0FF0001F0FF01FDE80445A0EB2B
:10044000010070474FEAC40420F0030050F8082B65
:1004500021F0030151F8083B0CFA04F462EA0402AB
:1004600063EA0403C9E710F003041DD0A1EB040103
:1004700020F00300E40750F8042B06D012D28B784A
:100480005FFAA2F4E41A06D12BB1CB785FFAB2F48A
:10049000E41A00D133B920465DF8104B7047A2EB47
:1004A0000300704701F1040150F8042BCC0721F040
:1004B000030151F8043B48D824D222F07F4482FA49
:1004C0004CF594EA1325A5FA8CF50AD165B951F8D3
:1004D000043B84EA0204B4EB036F0ED150F8042B02
:1004E000EBE74FEA132355E035F07F454DD108780F
:1004F000FDE80445C0F1000070474FEA126203F0C6
:10050000FF0347E002EA1C4482FA4CF594EA1345E3
:10051000A5FA8CF50AD165B951F8043B84EA0204C6
:10052000B4EB034F0CD150F8042BEBE74FEA134325
:1005300030E015EA1C4528D10B884FEA124229E029
:100540004FEA124203EA1C4324E002F0FF0482FA5D
:100550004CF594EA1365A5FA8CF50AD165B951F802
:10056000043B84EA0204B4EB032F09D150F8042BB6
:10057000EBE74FEA13630DE015F0FF0F05D10B68B1
:100580004FEA122223F07F4304E04FF00000FDE821
:100590000445704712BA1BBA82FA4CF482EA03048B
:1005A000A4FA8CF5B5FA85F402FA04F203FA04F31E
:1005B0004FEA1260FDE80445A0EB1360704700BFEE
:1005C00001F0FF01102A2BDB10F0070F08D010F804
:1005D000013B013A8B422DD010F0070F42B3F6D108
:1005E000F0B441EA012141EA014122F007047FF021
:1005F00000070023F0E80256083C85EA010586EA78
:10060000010685FA47F5A3FA87F586FA47F6A5FAB3
:1006100087F68EB9EED1F0BC01F0FF0102F00702BF
:1006200032B110F8013B013A83EA010313B1F8D16A
:100630000020704701387047002D06BF354603384B
:10064000073815F0010F07D1013015F4807F02BF84
:10065000013015F4C03F0130F0BC0138704700BFD5
:100660002DE9F0419FED1E7B214C04609FED1E5B48
:1006700000F502644FF07E55DFED1E6A03F1FF3C8A
:1006800080ED027B4FF00008256000F62807012668
:1006900000F5036500F5046EBCF1030F04ED025B89
:1006A000C0F82488C7ED006A80F82C6885ED007BCF
:1006B0000EED027B05D89C193441C0F81838C0F8FB
:1006C0001C4892B207EE902A00F61402F8EE677A00
:1006D00000F501631160C3ED007ABDE8F08100BF51
:1006E0000000000000000000030000000200000005
:1006F000541D0300000000002DE9F04F044683B0B4
:10070000C06829F087F880462069894629F082F878
:100710006569CDE90001284629F07CF8024601F11F
:10072000004306460F464046494621F0F5F829F0B9
:10073000D3FBE062824622F099FA8346504621F0CC
:1007400035FE8246584629F077F842464B4629F056
:10075000CBF880465046894629F06EF832463B4633
:1007600029F0C2F802460B464046494628F004FFED
:1007700002460B46DDE9000121F0CEF829F0ACFB82
:10078000002D07EE900A19DDF5EEC07AF1EE10FAB1
:100790001DDD11A7D7E9006717EE900A29F04CF884
:1007A00002460B463046394628F0E6FE32463B46C6
:1007B00028F0E4FE29F090FB07EE900AE388C4EDF0
:1007C0000A7A43F00203E38003B0BDE8F08F04A788
:1007D000D7E90067E0E700BFEA2E4454FB21F93F68
:1007E000EA2E4454FB21F9BF2DE9F0412DED028B97
:1007F000002408EE103A5C4B0360446005460F4647
:100800001646BDF820800EF0E5FC584B2B6003F136
:100810002C023833EB60AA606F612C8205F12C004A
:1008200015F0C0FC05F1300015F0BCFC9FED507ACE
:10083000504B68696E63C7EE087AA5F80480EC61D6
:100840002C852C83C0F80045B0EE677ABEEECE7AD8
:1008500017EE101A9FED427BB1F5004F83ED007B40
:1008600083ED027B234678DB013341FA03F4B4F5D0
:10087000004FF9DA072B15DC04FA03F10029B8BFA1
:100880000F31091107EE901ADFED396AC0F80C3507
:10089000F8EEE77AC0F8084586EEA77AC5ED097A42
:1008A00085ED087A00230222C0F804353249C0F8E9
:1008B0001025C0F84835C0F82835C0F84C35C0F8C8
:1008C0002C3540F201136B830123C0F8143530241A
:1008D00004238842C0F80032C0F8044321D02749DD
:1008E00088422DD0264A90420ED0326801235268A9
:1008F0002B7605F10801C0F8003530469047BDEC75
:10090000028B2846BDE8F0811E4A1F4C95601F4AA5
:100910009168A2F54062C1F8C840C2F884315360C2
:10092000E3E71A4B174A99681560A3F540634FF047
:100930008052174CC1F8B040C3F880211A60D4E748
:10094000104B144C5D60114B9968A3F54063C1F8DE
:10095000C440C3F884215A60C7E70C468EE700BF45
:100960000080008000800080F4210300F42E03004A
:10097000002474495018002000C0014000100240BB
:10098000002002408C1A0020FD7A010000ED00E0FA
:10099000557A0100A97A010010B5012104462DF015
:1009A000A2F828F049FF06A3D3E9002328F09CFF12
:1009B00029F092FA014620462AF048FF012010BD96
:1009C000399D52A246DF913F10B5012104462DF01A
:1009D0008AF828F031FF06A3D3E9002329F0AEF806
:1009E00029F07AFA014620462AF030FF012010BD96
:1009F000399D52A246DF913F82B010B59FED0A7B30
:100A0000014601F110040498C86081ED087B20467E
:100A100002A981E80C000FF093FB2046BDE81040CE
:100A200002B00FF0DDBA00BF0000000000000000BF
:100A3000C1F30A5C2DE9F041ACF2FF35132D0246FB
:100A40000B460C46064622DC002D4CDBDFF8D4803A
:100A500048FA05F801EA080C5CEA000C0F461BD0C6
:100A60002EA3D3E9002328F089FD0022002329F0DA
:100A7000CBF940B1002C03DD4FF480132B411F4410
:100A800027EA0804002621463046BDE8F081332DD0
:100A900006DDB5F5806F38D010461946BDE8F08107
:100AA000ACF2134C4FF0FF3727FA0CF73842F3D073
:100AB0001AA3D3E9002328F061FD0022002329F0C6
:100AC000A3F90028DFD0002C334609DD142D06D011
:100AD000C5F134050122AA4013449E4200D90134D5
:100AE00023EA0706CFE70DA3D3E9002328F046FD4C
:100AF0000022002329F088F90028C4D0002C07DB4D
:100B0000344300D0044C0026BDE728F037FDC5E78C
:100B100000264FF00044B6E70000F03F9C750088C7
:100B20003CE4377EFFFF0F00F8B504460D4601F0A8
:100B3000DFF906460F462046294622F0C9FA78B169
:100B400012A3D3E900232046294629F05DF950B9C4
:100B500010A3D3E900232046294629F037F958B9D4
:100B600030463946F8BD26F063FC074F22230026A5
:100B7000036039463046F8BD26F05AFC2223002691
:100B800000270360ECE700BF0000F07FEF39FAFEBA
:100B9000422E864051302DD5104987C000000000FC
:100BA0002DE9F04F964B21F000459D428FB08246D3
:100BB0008B46144640F28B80924B9D420F4628D8BC
:100BC000002985A3D3E9002340F3A18128F0D4FCB8
:100BD0008D4B9D4206460F4600F08D8080A3D3E9E1
:100BE000002328F0C9FC8046894642464B463046E1
:100BF000394628F0C1FC7AA3D3E9002328F0BCFCD5
:100C0000C4E90089C4E90201012630460FB0BDE8FD
:100C1000F08F7E4B9D4240F288807D4B9D4261D893
:100C20002E15A6F21646A5EB06594946504629F060
:100C30000BF928F0EFFD02460B4650464946CDE938
:100C4000082328F099FC734B002228F04DFE8946BA
:100C5000804629F0F9F828F0DDFD02460B464046B3
:100C60004946CDE90A2328F087FC6A4B002228F088
:100C70003BFECDE90C010DF1380A03254FF00008C9
:100C80004FF000097AE9020142464B46AB46013D6E
:100C900029F092F80028F5D15F4B019302230093CD
:100CA00032465B46214608A820F024FF002F064666
:100CB000ABDA6168226801F10043E168C4E900230E
:100CC000A26801F10043C4E9022346429DE70022E5
:100CD0000023C4E900ABC4E90223002630460FB06C
:100CE000BDE8F08F02460B4628F046FCC4E902013D
:100CF000C4E90001F1E73CA3D3E9002328F03CFC60
:100D00003BA3D3E9002306460F4628F035FC804676
:100D1000894642464B463046394628F02DFC34A3DE
:100D2000D3E9002328F028FC6AE722F0CBFB32A3AA
:100D3000D3E900238046894628F0D6FD374B0022B0
:100D400028F01CFC29F080F8064628F063FD0246D6
:100D50000B46CDE9022320A3D3E9002328F0C4FDEC
:100D600002460B464046494628F006FC1CA3D3E940
:100D7000002382468B46DDE9020128F0B5FD0246DC
:100D80000B4650465946CDE9042328F0F5FB1F2EAB
:100D90008046894646DC224B721E53F82230AB4215
:100DA00040D042464B46C4E900895046594628F097
:100DB000E3FBDDE9042328F0DFFB002FC4E9020197
:100DC000BFF623AF09F10043C4E9008301F10043FA
:100DD000C4E90203764218E700004054FB21F93FC2
:100DE0003163621A61B4D03D0000601A61B4D03D35
:100DF0007370032E8A19A33B83C8C96D305FE43F2B
:100E0000FB21E93F7BD90240FB21F93FFB2139411E
:100E1000FFFFEF7F00007041383503000000E03F26
:100E2000B8340300C9F30A53C3EB1553102B4FEA30
:100E30002555B6DD56A3D3E90023DDE9020128F0EC
:100E400053FD8046894642464B465046594628F057
:100E500093FB02460B4650465946CDE9062392467F
:100E60009B4628F089FB42464B4628F085FB4AA367
:100E7000D3E9002380468946DDE9020128F034FDEC
:100E800042464B4628F078FB0B46024659465046F0
:100E9000CDE9042328F070FBC1F30A53ED1A312D7C
:100EA000804689467FF77DAF3EA3D3E90023DDE985
:100EB000020128F019FD8046894642464B46DDE98D
:100EC000060128F059FB82468B4652465B46DDE917
:100ED000060128F051FB42464B4628F04DFB33A358
:100EE000D3E9002380468946DDE9020128F0FCFCB5
:100EF00042464B4628F040FB02460B4650465946B8
:100F0000CDE9042328F038FB8046894649E728F0DC
:100F100035FB234B9D4206460F4618D01AA3D3E952
:100F2000002328F02BFB8046894642464B4630463C
:100F3000394628F021FB14A3D3E9002328F01EFB37
:100F4000C4E90089C4E902014FF0FF365DE610A351
:100F5000D3E9002328F012FB0FA3D3E900230646B0
:100F60000F4628F00BFB8046894642464B463046EA
:100F7000394628F001FB08A3D3E9002328F0FEFA44
:100F8000DEE700BFAFF300803163621A61B4D03D89
:100F90000000601A61B4D03D7370032E8A19A33B20
:100FA000FB21F93F0000002E8A19A33BC1492025EF
:100FB0009A837B390000000070B51646C1F30A52CF
:100FC00004460D460B464ABB21F00043034324D0A0
:100FD000334B002228F088FC324B9E4204460D46DB
:100FE00046DBC1F30A520B46363A4CF250318E4280
:100FF0001CDC164440F2FE72964217DC002E29DCFF
:1010000016F1350F2CDB6FF31E53363643EA0651CB
:101010002046254B002228F067FC70BD40F2FF7C83
:101020006245E2D1024628F0A9FA70BD002D14A154
:10103000D1E9000105DB12A3D3E9002328F054FC19
:1010400070BD0FA3D3E900230FA1D1E9000128F05F
:101050004BFCF5E76FF31E53204643EA065170BD83
:10106000002D0BA1D1E9000102DA0BA1D1E90001A9
:1010700007A3D3E9002328F037FC70BDAFF300804D
:101080009C7500883CE4377E9C7500883CE437FE04
:1010900059F3F8C21F6EA50159F3F8C21F6EA5815E
:1010A00000005043B03CFFFF0000903C00000000F7
:1010B000F8B504460D4622F037FF224606460F4695
:1010C0002B462046294628F0A9FE48B92046294645
:1010D00022F0F8F909A3D3E9002328F095FE10B90E
:1010E00030463946F8BD26F0A3F9034F00262223E7
:1010F000036039463046F8BD0000F07F7DF8B98FB7
:10110000CE338640000000002DE9F04F83B0CDE9DA
:10111000002321F00043B3F1795F04460D4604D269
:1011200028F092FE002800F0858022462B462046BB
:10113000294628F0D9FB06460F4632463B46204654
:10114000294628F0D1FB41A3D3E9002382468B46F0
:101150003046394628F0C8FB3EA3D3E9002328F0E7
:101160000BFA32463B4628F0BFFB3CA3D3E90023F1
:1011700028F004FA32463B4628F0B6FB39A3D3E9FF
:10118000002328F0F9F932463B4628F0ADFB37A39F
:10119000D3E9002328F0F2F90C9B804689469BB3E3
:1011A000DDE90001284B002228F09EFB42464B4619
:1011B000804689465046594628F096FB02460B4623
:1011C0004046494628F0D8F932463B4628F08CFB89
:1011D000DDE9002328F0D0F919A3D3E9002306465E
:1011E0000F465046594628F07FFB02460B463046D4
:1011F000394628F0C3F902460B462046294628F016
:10120000BBF903B0BDE8F08F02460B4630463946C5
:1012100028F06AFB0AA3D3E9002328F0ADF952466F
:101220005B4628F061FB22462B4628F0A7F903B065
:10123000BDE8F08F2046294603B0BDE8F08F00BF1F
:10124000495555555555C53F0000E03F7CD5CF5A0F
:101250003AD9E53DEB9C2B8AE6E55A3E7DFEB15737
:10126000E31DC73ED561C119A0012A3FA6F81011A0
:101270001111813F000000002DE9F04F23F0004ADA
:10128000044652EA0A0093B0904699460D4614D19E
:101290002319714985F4002252419842914126D286
:1012A00042464B462046294628F068F902460B463E
:1012B0001046194613B0BDE8F08F1F461346674A23
:1012C00000940E4621F000419142029116D9009BF4
:1012D00006F1404606F580161E43E1D14346DB1871
:1012E0005D4989F4002252419E429141D8D35C4B22
:1012F00000221046194613B0BDE8F08F13D0924576
:10130000E5D8DDF808B053D0002E15DB002B40F0F7
:101310008380534A924540F02084002FC0F211850B
:1013200022462B46C4E7002CBAD18A45B8D800F033
:101330005984DDF808B0E7E74A4A924500F2A383F2
:10134000494A924500F2A583002B40F0EF83B7F1A4
:10135000804F00F0038504932046294622F0B2F81E
:101360000B4600990246002937D00498F10F013945
:1013700008435FD004980138084300F07F839FED55
:10138000347B8DED067BBAF1844F71D937498A459C
:1013900040F23D84344B029A9A4200F2F984002FC5
:1013A000C0F2F984002013B0BDE8F04F22F0AEB8CF
:1013B000002B8CD1029B009A03F1404303F580136C
:1013C000134394D0284B029A9A4240F29484002FFF
:1013D000C0F2068542464B466AE7214926F0404066
:1013E000884202D002990029BFD1002FC0F27B842D
:1013F000002EBFF65DAF029901F14049049909F54D
:10140000801959EA010917D0049901297FF450AFD6
:1014100003F100410B464BE7002304932046294685
:1014200022F050F80B46009902460029D5D0F10F62
:1014300001399FE722462B461046194628F09CF8B2
:1014400002460B4628F07AFB02460B4630E700BF07
:10145000000000000000F03F0000F0FF0000F07FFF
:101460000000F03FFFFF3F43FFFFEF3F0000F0436E
:10147000D7493140002940F0C88310461946002260
:10148000D44B28F031FA02468B466FF034004FEA15
:101490002B51A1F2FF310818CF490F90CBF3130B5A
:1014A0004BF07F548B4544F4401440F3A083CB4968
:1014B0008B4540F35D849FEDB07B8DED087B9FED08
:1014C000B07B8DED047B9FEDAC7B8DED107B01300F
:1014D0000F90A4F58014002592465046DDE90423C0
:1014E000214628F049F8A346DDE9042306460F46C5
:1014F00050462146CDE90AAB28F040F802460B469B
:101500000020B74928F01AFB8C46834663465A46AA
:1015100030463946CDE90CBC28F0E6F964100A469D
:101520000146CDE9021244F00054DDE902AB04F5B6
:101530000023591900204FF0000A04460D462246A8
:101540002B4650465946CDE9000128F0CDF9024618
:101550000B463046394628F00FF8DDE904230646ED
:101560000F462046294628F007F802460B46DDE9DB
:101570000A0128F001F852465B4628F0B5F9024608
:101580000B463046394627F0F7FFDDE90C2328F0FB
:10159000ABF9DDE90245CDE9040122462B462046A0
:1015A000294628F0A1F978A3D3E9002304460D4683
:1015B00028F09AF976A3D3E9002327F0DFFF22462B
:1015C0002B4628F091F974A3D3E9002327F0D6FF26
:1015D00022462B4628F088F971A3D3E9002327F08F
:1015E000CDFF22462B4628F07FF96FA3D3E90023D5
:1015F00027F0C4FF22462B4628F076F96CA3D3E9E6
:10160000002327F0BBFF224606460F462B46204606
:10161000294628F069F902460B463046394628F03B
:1016200063F9524604460D465B46DDE9020127F0A8
:10163000A5FFDDE9042328F057F922462B4627F0C1
:101640009DFF524604460D465B465046594628F0DB
:101650004BF9644B002206460F4627F08FFF2246C7
:101660002B46CDE90A4527F089FF0D462B46524609
:101670005046594628F038F95A4BCDE9000100226E
:101680002946504627F078FF32463B4627F074FF44
:1016900002460B46DDE90A0127F06EFFDDE9022371
:1016A00028F022F92B4606460F465246DDE9040192
:1016B00028F01AF902460B463046394627F05EFFFD
:1016C00006460F463246DDE900013B4627F056FF4D
:1016D00039A3D3E9002350460D4628F005F9DDE98A
:1016E0000023CDE900012946504627F045FF024678
:1016F0000B463046394627F03FFF31A3D3E900239C
:1017000028F0F2F802460B461446294650461D467C
:101710002DA3D3E9002328F0E7F802460B46204624
:10172000294627F02BFFDDE9102327F027FF064687
:101730000F980F4628F06EF8324604460D463B4699
:10174000DDE9000127F01AFFDDE9082327F016FF85
:1017500022462B4627F012FF504622462B46CDE963
:10176000020127F009FFDDE9082327F005FFDDE985
:10177000002339E0AFF3008000000000000000000B
:10178000000000000000F03FEF4E454A287ECA3FAF
:1017900065DBC9934A86CD3F01411DA96074D13FE5
:1017A0004D268F515555D53FFFAB6FDBB66DDB3FF7
:1017B000033333333333E33F000000E009C7EE3F28
:1017C000FD033ADC09C7EE3FF5015B14E02F3EBE96
:1017D0000000F07F000040438E98030079B60B00B4
:1017E0000000F03F0000084027F0C6FE02460B460E
:1017F0003046394627F0C0FECDE904010023CDE98B
:1018000000890093DDE90067404632463B46494681
:1018100027F0B2FEDDE902AB52465B4628F064F8E1
:10182000424604460D464B46DDE9040128F05CF8CB
:1018300002460B462046294627F0A0FE32460446C3
:101840000D463B4650465946CDE9024528F04CF836
:1018500006460F46204629463B46324627F08EFE76
:10186000DB4B994204460D46884640F33F8101F127
:101870003F4303F5E003034340F09782C0A3D3E95D
:101880000023DDE9020127F079FE02460B462046DF
:10189000294614461D4632463B4627F06DFE024659
:1018A0000B462046294628F0AFFA002840F07D82FA
:1018B0004FF400734344C3F30A52C64CA2F2FF3202
:1018C0001441C3F3130AC2F11402002004EA030115
:1018D0004AF4801A4AFA02FA0B460246B8F1000F9F
:1018E00030463946B8BFCAF1000A27F045FE024625
:1018F0000B4606460F46DDE9020127F03FFE4FEAA0
:101900000A5B0D460024A0A3D3E900232046294604
:1019100027F0EAFF3246804689463B462046294664
:1019200027F02AFE02460B46DDE9020127F024FEDD
:1019300097A3D3E9002327F0D7FF02460B462046A2
:10194000294614461D4694A3D3E9002327F0CCFF73
:1019500002460B462046294627F010FE06460F4653
:1019600032463B464046494627F008FE42464B4633
:1019700004460D4627F000FE02460B463046394627
:1019800027F0FAFD2246804689462B462046294606
:1019900027F0AAFF82A3D3E9002306460F4627F0CB
:1019A000A3FF81A3D3E9002327F0E6FD32463B469F
:1019B00027F09AFF7EA3D3E9002327F0DFFD32460C
:1019C0003B4627F091FF7CA3D3E9002327F0D4FD09
:1019D00032463B4627F088FF79A3D3E9002327F05E
:1019E000CDFD32463B4627F07FFF02460B462046A0
:1019F000294627F0C1FD06460F4632463B462046A3
:101A0000294627F071FF02460B46304639461646F6
:101A10001F4600224FF0804327F0AEFD02460B46E2
:101A20003046394628F08AF8424606460F464B466D
:101A30002046294627F058FF42464B4627F09EFD98
:101A400002460B463046394627F096FD22462B4685
:101A500027F092FD02460B4600205F4927F08CFDDF
:101A60000C465C44B4F5801FC0F29B812146DDE941
:101A7000062327F039FF02460B4619E49FED527BFF
:101A80008DED067B7FE4002B00F0A68102230493FA
:101A9000C4E44FEA2A52A2F2FF32142A40F33781FB
:101AA000C2F1340223FA02F101FA02F29A4200F082
:101AB0009B81002B3AD1B7F1804F00F04F81204637
:101AC000294621F0FFFC0B460099024600297FF4CD
:101AD000B1AC414926F04040884200F0CC810299E7
:101AE000002900F0C381002104913EE4DFF8F0C03A
:101AF00021F00043634540F21B81384B0B44034304
:101B00000AD132463B4627F037FDDDE9022328F0B3
:101B100071F900283FF4CCAEDDE906010022002374
:101B200028F054F9003818BF01203CE4204629462B
:101B300021F0C8FC0B460099024600297FF47AACDC
:101B4000254926F04040884200F07881029900291A
:101B500000F060810099049107E4B7F1804F00F034
:101B6000FD80A2F5801297427FF4F5AB204629460E
:101B700013B0BDE8F04F20F033BD00BFAFF30080DD
:101B8000FE822B654715973C00000000432EE63F80
:101B9000EF39FAFE422EE63F396CA80C615C20BE9C
:101BA000D0A4BE726937663EF16BD2C541BDBB3E63
:101BB0002CDE25AF6A56113F93BDBE166CC1663F41
:101BC0003E5555555555C53F000000000000F0BF7B
:101BD000FFFF8F400000F0FF0000F03F00346F3F38
:101BE000FFCB9040002B7FF45BABFFF7EBBB9FED8F
:101BF000AA7B8DED087B9FEDAA7B8DED047B9DED8F
:101C0000087B00258DED107B66E400203FE4B4499D
:101C100002988842C0F0D380B2490298884200F20C
:101C2000EC80104619460022AE4B27F0A5FC9EA37F
:101C3000D3E9002304460D4627F056FE9CA3D3E9C2
:101C4000002382468B462046294627F04DFEA64BB0
:101C5000CDE9000100222046294627F045FE024634
:101C60000B4695A1D1E9000127F086FC22462B46C0
:101C700027F03AFE02460B4600209C4927F07CFCE8
:101C800022462B4606460F462046294627F02CFEC4
:101C900002460B463046394627F026FE88A3D3E994
:101CA000002327F021FE02460B46DDE9000127F064
:101CB00063FC04460D4622462B465046594627F003
:101CC0005DFC002052465B46CDE9020127F054FC42
:101CD00002460B462046294627F04EFCCDE904017A
:101CE0008CE5029904917F49002027F027FF0246E6
:101CF0000B46FFF77DBB002F4FF000024FF00003B3
:101D0000BFF6D6AA424609F10043FFF7D1BA002B2D
:101D10007FF40CAFC2F114024AFA02F101FA02F2A6
:101D200052457DD06F4A92453FF4F7AAFFF70FBBAB
:101D30006E4A934200F28880DDE900239346924682
:101D4000E0E522462B466749002027F0F7FE0246D1
:101D50000B46FFF7ADBAB7F1804F3DD122462B4677
:101D60002046294627F0C0FD02460B46FFF7A0BAE1
:101D70009FED557B8DED087B9FED557B8DED107BA9
:101D80009FED557B4FF480258DED047BFFF7A4BBC1
:101D9000002F7FF707AB002013B0BDE8F04F21F014
:101DA000BFBB5246FFF708F961E6DDE906010022F4
:101DB000002328F00BF8003818BF0120ECE7DDE91C
:101DC00006010022002328F001F8003818BF012086
:101DD000002FBFF6E8AADFE702230493FFF7BCBA9F
:101DE00000220023FFF764BA002BB4D001F00101F8
:101DF000C1F102030493FFF711BBDDE906010022E4
:101E0000002327F0E3FF003818BF0120002FC3DCB8
:101E1000FFF7C9BA002FFFF664AF0491FFF7EBBAE2
:101E2000304B9A453FF479AAB7F1804F96D001F034
:101E30000101C1F102030493FFF78EBA002F0BDBFF
:101E400000990491FFF7D7BA1B15A3F2FE334FF4A4
:101E5000801242FA03F32DE52249002027F06EFE9E
:101E6000009B049302460B46FFF7C5BA002FD4DA55
:101E70000021049137E7002F01DB0021CDE719494C
:101E8000002027F05BFE0023049302460B46FFF779
:101E9000B2BA00BFAFF300800000000000000000F5
:101EA000000000000000F03F000000604715F73F11
:101EB00044DF5DF80BAE543E555555555555D53F4D
:101EC000FE822B654715F73F0000004003B8E23F54
:101ED00006D0CF43EBFD4C3E000000000000F83F71
:101EE000FFFFEF3F0000F03F0000D03F0000E03F69
:101EF0002DE9F047D04F21F00042BA4286B00446A7
:101F00000D464FEAD1760DD9CC4FBA426FD9C1F305
:101F100013030343024640F04481002E64D00020A6
:101F2000002161E0C64B9A4200F21281C54B9A42F1
:101F300040F2248122462B462046294627F0D4FC35
:101F4000A7A3D3E9002306460F4627F0CDFCA6A39E
:101F5000D3E9002327F010FB32463B4627F0C4FCB0
:101F6000A3A3D3E9002327F009FB32463B4627F021
:101F7000BBFCA1A3D3E9002327F0FEFA32463B467F
:101F800027F0B2FC9EA3D3E9002327F0F7FA3246EC
:101F90003B4627F0A9FC02460B462046294627F07F
:101FA000EBFACDE90201DDE90289204642464B46C3
:101FB000294627F099FC002206460F464FF0804341
:101FC0004046494627F0D8FA02460B463046394685
:101FD00027F0B4FD22462B4627F0CEFA02460B46E8
:101FE0000020994927F0C8FA06B0BDE8F08786A31B
:101FF000D3E9002327F008FF0746002840F0D780E8
:1020000083A3D3E900232046294627F0DFFE0028DA
:1020100040F0DF808D4B204603EBC60629467EA3A9
:10202000D3E9002327F060FCD6E9082327F0A6FABD
:1020300027F00AFF824627F0EDFB79A3D3E90023BE
:1020400006460F4627F050FC02460B46204629461E
:1020500027F092FA74A3D3E90023804689463046DC
:10206000394627F041FCCDE90001DDE90023404677
:10207000494627F081FA02460B4604460D4627F0F2
:1020800033FC57A3D3E9002306460F4627F02CFC68
:1020900055A3D3E9002327F06FFA32463B4627F0D9
:1020A00023FC53A3D3E9002327F068FA32463B46CA
:1020B00027F01AFC50A3D3E9002327F05DFA32463B
:1020C0003B4627F011FC4EA3D3E9002327F056FA34
:1020D00032463B4627F008FC02460B46204629467E
:1020E00027F04AFA06460F462046294632463B4626
:1020F000CDE9026727F0F8FBCDE90401BAF1000F42
:102100003FF451AF32463B4600204FF0804127F06C
:1021100033FA02460B46DDE9040127F00FFD0246C3
:102120000B46DDE9000127F027FA42464B4627F02F
:1021300023FA02460B460020434927F01DFA6FF4AC
:102140007F72924539DB01EB0A5106B0BDE8F0879A
:102150003F4B9A423FF65EAF3C4C04EBC604D4E9D9
:10216000002327F009FA94ED047B86F0010A8DED37
:10217000007B80468946AAEB060A76E72CA3D3E9C2
:10218000002327F0FBF9304B002227F03DFE00280A
:102190003FF4D0AE2C4B00222046294627F0EEF922
:1021A00022E70B4627F0EAF906B0BDE8F0870020E9
:1021B00006B0BDE8F04721F0B3B90AF57A7A01EB31
:1021C0000A5100224FF0B87327F08EFB06B0BDE82D
:1021D000F087384606B0BDE8F04721F097B900BF58
:1021E000D0A4BE726937663EF16BD2C541BDBB3E1D
:1021F0002CDE25AF6A56113F93BDBE166CC1663FFB
:102200003E5555555555C53FEF39FAFE422E86408D
:1022100051302DD5104987C0FE822B654715F73FF9
:102220000000E0FE422EE63F763C7935EF39EA3D8C
:102230009C7500883CE4377E412E8640FFFFEF7F8F
:10224000422ED63FFFFFEF3D0000F03FF8F40200C2
:10225000B1A2F03F00000000B1F5801F2DE9F84366
:1022600004460D460B4619DA21F00042024353D0D2
:10227000002959DB364B002227F036FB354A0D4644
:102280002B46934204466FF035010CDD22462B4667
:102290002046294627F072F9BDE8F8832D4A93427B
:1022A0004FF00001F2DC1815A0F2FF300844C70F10
:1022B00000EBD070C3F3130627F0ACFAC7F57F73B9
:1022C000033346EA03551CA3D3E90023804689461D
:1022D00027F00AFB02460B462046294614461D46B7
:1022E00000F022FB16A3D3E9002327F0FDFA2246D3
:1022F0002B4627F043F914A3D3E9002304460D46E7
:102300004046494627F0F0FA02460B462046294649
:1023100027F034F9BDE8F883002200230E4900209D
:1023200027F00CFCBDE8F883024627F025F90022CF
:10233000002327F003FCAFE7362BF111F3FE593DE4
:102340000EE526157BCBDB3F00609F501344D33F47
:1023500000005043FFFFEF7F000050C3000000006B
:10236000C1F30A5C2DE9F041ACF2FF35132D0246B2
:102370000B460C46064622DC002D42DBDFF8E480EB
:1023800048FA05F801EA080C5CEA000C0F461BD07D
:1023900032A3D3E9002327F0F1F80022002327F02D
:1023A00033FD40B1002C03DA4FF480132B411F445E
:1023B00027EA0804002621463046BDE8F081332D87
:1023C00006DDB5F5806F2CD010461946BDE8F081CA
:1023D000ACF2134C4FF0FF3727FA0CF73842F3D02A
:1023E0001EA3D3E9002327F0C9F80022002327F019
:1023F0000BFD0028DFD0002C33461CDB23EA070648
:10240000D9E716A3D3E9002327F0B8F80022002368
:1024100027F0FAFC0028CED0002C05DB002634463D
:10242000C9E727F0ABF8D1E724F0004426430DD1EB
:102430004FF00044BFE7142D06D0C5F1340501224A
:10244000AA4013449E42D9D90134D7E7024C002652
:10245000B1E700BFAFF300800000F0BF9C750088BB
:102460003CE4377EFFFF0F002DE9F84F99465342B9
:102470005F4F134329F0004E4EEAD373BB429046A0
:1024800004460D463DD84642064321F0004A4AEA3A
:10249000D676BE4203468B4633D809F1404606F550
:1024A000801616433DD04FEAA97606F0020653EA9D
:1024B0000A0346EAD1762CD052EA0E0235D0BE4548
:1024C00046D0BA4531D0AAEB0E0ABAF1747F4FEA72
:1024D0002A5339DAB9F1000F46DA3C3344DA0020E6
:1024E0000021012E58D0022E49D086B134A3D3E961
:1024F000002327F041F834A3D3E9002327F03CF868
:1025000005E022462B464046494627F037F8BDE80D
:10251000F88F022E10D0032EF9D12DA1D1E90001A0
:10252000F5E7BDE8F84F00F067B8BBF1000F07DB37
:1025300029A1D1E90001EAE723A1D1E90001E6E7F9
:1025400027A1D1E90001E2E723A1D1E90001C8E711
:10255000F24506F1FF3623D0022E29D8254B03EB96
:10256000C603D3E90601D2E742464B462046294638
:1025700027F0E4FA20F0A6FF00F03EF8B1E710A340
:10258000D3E9002326F0F8FF02460B460EA1D1E95D
:10259000000126F0F1FFBAE701F100431946B6E762
:1025A000022E08D8134B03EBC603D3E90001AEE7B4
:1025B00000200021ABE70CA1D1E90001A7E700BF93
:1025C000075C143326A6A13C182D4454FB21094076
:1025D000182D4454FB2109C0182D4454FB21F93F08
:1025E000182D4454FB21F9BF182D4454FB21E93F19
:1025F0000000F07F40F502002DE9F84FC04B21F0BC
:1026000000469E4204460D468A460ED9BD4B9E4268
:1026100000F2AE8000F0A980BAF1000F40F3E8802C
:102620009BA1D1E90001BDE8F88FB74B9E4200F2B3
:10263000B680A3F1DE739E4240F2A2804FF0FF3BD2
:1026400022462B462046294627F04EF902460B46E5
:102650008046894627F048F98FA3D3E90023064630
:102660000F4627F041F98EA3D3E9002326F086FF19
:1026700032463B4627F038F98BA3D3E9002326F0F6
:102680007DFF32463B4627F02FF989A3D3E900238B
:1026900026F074FF32463B4627F026F986A3D3E99D
:1026A000002326F06BFF32463B4627F01DF984A33A
:1026B000D3E9002326F062FF42464B4627F014F987
:1026C00081A3D3E90023804689463046394627F066
:1026D0000BF97FA3D3E9002326F04EFF32463B4699
:1026E00027F002F97CA3D3E9002326F045FF324608
:1026F0003B4627F0F9F87AA3D3E9002326F03CFF04
:1027000032463B4627F0F0F877A3D3E9002326F0C2
:1027100033FF32463B4627F0E7F802460B46404679
:10272000494626F02BFF22462B4627F0DDF8BBF169
:10273000FF3F02460B4660D0744E06EBCB06D6E94F
:10274000082326F019FF22462B4626F015FF0246E5
:102750000B46D6E9000126F00FFFBAF1000F0DDAA3
:1027600001F100431946BDE8F88F00283FF454AF4B
:1027700022462B462046294626F000FFBDE8F88F6A
:102780005BA3D3E9002326F0F9FE614B002227F07A
:102790003BFB00283FF452AF20462946EEE720F0ED
:1027A00091FE5C4B9E4204460D462CD8A3F5502367
:1027B0009E4253D802460B4626F0E0FE544B0022C0
:1027C00026F0DAFE02460B462046294614461D46F0
:1027D00000224FF0804326F0D1FE02460B462046F1
:1027E000294627F0ABF94FF0000B04460D4627E7CA
:1027F00041A1D1E90001BDE8F88F2046294626F025
:10280000BBFEBDE8F88F444B9E421CD2434B0022D6
:1028100026F0B2FE02460B462046294614461D46C7
:1028200000223E4B27F060F8394B002226F0A6FE2E
:1028300002460B462046294627F080F94FF0020B4E
:1028400004460D46FCE622462B463549002027F07B
:1028500075F94FF0030B04460D46F1E62C4B0022B0
:1028600026F08AFE02460B462046294614461D469F
:102870000022274B26F082FE02460B4620462946C0
:1028800027F05CF94FF0010B04460D46D8E600BF77
:10289000182D4454FB21F93F11DA22E33AAD903F61
:1028A000EB0D76244B7BA93F513DD0A0660DB13F87
:1028B0006E204CC5CD45B73FFF8300922449C23FEF
:1028C0000D5555555555D53F2F6C6A2C44B4A2BFB4
:1028D0009AFDDE522DDEAD3F6D9A74AFF2B0B33F7C
:1028E000711623FEC671BC3FC4EB98999999C93FF4
:1028F0009C7500883CE4377E182D4454FB21F9BFB9
:10290000FFFF0F440000F07FFFFFDB3F80F5020078
:102910000000F03FFFFFF23F008003400000F83F5F
:102920000000F0BF000000002DE9F04FB1F5801F5E
:1029300087B002460B460D4680F2838021F00044AA
:10294000044300F020810029C0F26081D64B0022B0
:1029500026F0CAFF0D460B46D4498D426FF035066E
:10296000024673DC2C15C5F3130505F51521A4F2F9
:10297000FF3401F6647101F48011344404EB115406
:1029800081F07F5181F4401141EA05031046194658
:102990000022C74B26F0F0FDAB1CC3F31303022B40
:1029A00082468B464FF0000257DC002327F004FAE2
:1029B000002840F0F180A8A3D3E9002350465946EF
:1029C00026F092FF02460B460020BA4926F0D4FDBD
:1029D000524606460F465B465046594626F084FF4F
:1029E00002460B463046394626F07EFF06460F4625
:1029F000002C00F00281204626F00CFF98A3D3E9BA
:102A000000238046894626F06FFF97A3D3E9002371
:102A100004460D464046494626F066FF02460B46F0
:102A20003046394626F0A8FD52465B4626F0A4FD06
:102A300002460B462046294626F09EFD07B0BDE81B
:102A4000F08F9A498D424FF000068BDD10461946F3
:102A500026F094FD07B0BDE8F08F4FF0804326F0DC
:102A60008DFD02460B465046594627F067F806464C
:102A700020460F4626F0CEFE3246CDE904013B4605
:102A800030463946CDE9026726F02EFF02460B4656
:102A9000CDE9002326F028FF75A3D3E900230646DD
:102AA0000F4626F021FF74A3D3E9002326F066FD2C
:102AB00032463B4626F018FF71A3D3E9002326F0E7
:102AC0005DFD32463B4626F00FFF6FA3D3E900239E
:102AD00026F054FDDDE9002326F006FF6CA3D3E9C0
:102AE0000023CDE900013046394626F0FDFE6AA3F9
:102AF000D3E9002326F042FD32463B4626F0F4FEA1
:102B000067A3D3E9002326F039FD32463B4626F081
:102B1000EBFEA5F5C22802460B46C5F5D725DDE933
:102B2000000126F02BFDA8F27A48513545EA080548
:102B3000002D06460F464BDD5E4B0022504659469F
:102B400026F0D2FE52465B4626F0CEFE80468946EF
:102B50003046394642464B4626F010FDDDE9022359
:102B600026F0C2FE06460F46002C56D102460B4602
:102B70004046494626F000FD02460B46504659465F
:102B800026F0FAFC66E7002200234B49002026F0DD
:102B9000D5FF07B0BDE8F08F002C57D0204626F0B7
:102BA00039FE2FA3D3E9002306460F4626F09CFEEC
:102BB0002DA3D3E9002304460D463046394626F0BE
:102BC00093FE02460B462046294626F0D7FC41E7F5
:102BD00002460B465046594626F0CEFCDDE902235C
:102BE00026F082FE06460F463CB1DDE904891CA3AF
:102BF000D3E900234046494605E732463B46504666
:102C0000594626F0B9FC07B0BDE8F08F26F0B4FCB9
:102C10000022002326F092FF1CE711A3D3E9002332
:102C2000DDE9040126F060FE0FA3D3E9002304468A
:102C30000D46DDE9040126F057FE32463B4626F0FC
:102C40009DFC02460B4640464946EBE6002000212B
:102C500000E700BFAFF30080555555555555D53F9A
:102C60000000E0FE422EE63F763C7935EF39EA3D42
:102C700044523EDF12F1C23FDE03CB966446C73FAB
:102C8000599322942449D23F935555555555E53FC4
:102C90009FC678D0099AC33FAF788E1DC571CC3FCF
:102CA00004FA97999999D93F00005043FFFFEF7FAD
:102CB0000000F03F0000E03F000050C300000000B3
:102CC0002DE9F04F21F00048B8F1795F85B09246C8
:102CD0009B4606460F466DD227F0B6F8002800F056
:102CE000EE8032463B463046394626F0FDFD76A35F
:102CF000D3E9002304460D4626F0F6FD74A3D3E97C
:102D0000002326F03BFC22462B4626F0EDFD72A365
:102D1000D3E9002326F030FC22462B4626F0E4FDC2
:102D20006FA3D3E9002326F029FC22462B4626F088
:102D3000DBFD6DA3D3E9002326F01EFC22462B46C3
:102D400026F0D2FD6AA3D3E9002326F017FC224621
:102D50002B4626F0C9FDCDE90001694B0022204633
:102D6000294626F0C1FDDDE900238046894620463C
:102D7000294626F0B9FD44464D46804689465246CE
:102D80005B463046394626F0AFFD02460B464046CC
:102D9000494626F0F1FB02460B462046294626F01E
:102DA000EBFB02460B460020564926F0E5FB05B03A
:102DB000BDE8F08F02460B4626F096FD42A3D3E90C
:102DC000002304460D4626F08FFD41A3D3E90023DE
:102DD00026F0D4FB22462B4626F086FD3EA3D3E9FF
:102DE000002326F0C9FB22462B4626F07DFD3CA39E
:102DF000D3E9002326F0C2FB22462B4626F074FDC1
:102E000039A3D3E9002326F0B7FB22462B4626F050
:102E10006BFD37A3D3E9002326F0B0FB2B462246F7
:102E200026F062FD384B9845CDE9000195D9374B26
:102E300098453BD8A8F5001300223249002090465F
:102E4000994626F099FBCDE902012D4B0022204640
:102E5000294626F049FD42464B4626F08DFBDDE92A
:102E60000023804689462046294626F03DFD4446FB
:102E70004D468046894652465B463046394626F0E6
:102E800033FD02460B464046494626F075FB024696
:102E90000B462046294626F06FFB02460B46DDE92D
:102EA000020126F069FB05B0BDE8F08F9FED127BB3
:102EB000DFF85C908DED027B4FF00008C5E711490B
:102EC000002005B0BDE8F08FD43888BEE9FAA8BD6F
:102ED000C4B1B4BD9EEE213EAD529C804F7E923E69
:102EE0009015CB19A001FA3E7751C1166CC1563F1F
:102EF0004C5555555555A53F000000000000E73FD3
:102F00000000E03F0000F03F3233D33F0000E93FD4
:102F10000000D23F000000002DE9F04FBE4B21F031
:102F2000004A9A4583B004460D4612D90AF1404A38
:102F30000AF5801A5AEA000A00F0FD8002460B46A4
:102F400026F01AFB02460B4626F0F8FD03B0BDE85A
:102F5000F08FB24B9A458B460FD8BAF1795F80F06B
:102F6000658191A3D3E9002326F008FBAC4B002236
:102F700026F04AFF002840F012812046294620F022
:102F8000A1FA02460B460020A54926F0F5FAA54B0A
:102F9000002226F0A9FC86A3D3E9002304460D46AF
:102FA00026F0A2FC84A3D3E9002326F0E7FA224608
:102FB0002B4626F099FC82A3D3E9002326F0DCFA05
:102FC00022462B4626F090FC7FA3D3E9002326F06F
:102FD000D5FA22462B4626F087FC7DA3D3E90023B1
:102FE00026F0CAFA22462B4626F07EFC7AA3D3E9C5
:102FF000002326F0C3FA22462B4626F075FC78A360
:10300000D3E90023CDE900012046294626F06CFCD7
:1030100075A3D3E9002326F0AFFA22462B4626F00B
:1030200063FC73A3D3E9002326F0A8FA22462B46BB
:1030300026F05AFC70A3D3E9002326F09DFA22461D
:103040002B4626F051FC764B002226F097FA0646D6
:103050000F46204629461FF0C3FA3B468046894664
:103060003246DDE9000126F069FD6F4B9A45CDE956
:10307000000146464F4677D832464B4630464946D1
:1030800026F07CFADDE9002326F02EFC4FF0000844
:10309000CDE9000142464B464046494626F024FC15
:1030A00002460B462046294626F066FA424604466A
:1030B0000D464B463046494626F060FA02460B461E
:1030C0002046294626F03AFD02460B4626F056FADF
:1030D00002460B464AA1D1E9000126F04DFA02460C
:1030E0000B46DDE9000126F047FA424604460D464C
:1030F0004B464046394626F041FA02460B4642A16D
:10310000D1E9000126F038FA02460B46204629464E
:1031100026F032FA02460B463BA1D1E9000126F027
:103120002BFABBF1000F3FF711AF01F10043194635
:1031300003B0BDE8F08F36A3D3E9002326F0D4FB1B
:1031400002460B462046294614461D462CA3D3E9C9
:10315000002326F0C9FB02460B462046294626F0EE
:103160000DFA03B0BDE8F08F02460B4640464946D3
:1031700026F0BAFB42464B4626F000FA02460B46C2
:1031800026F0FCF91EA3D3E9002326F0F5F9024648
:103190000B461FA1D1E9000126F0EEF9C1E7204658
:1031A0002946D3E6AFF300809C7500883CE4377E67
:1031B00009F7FD0DE13D023F88B20175E0EF493F9F
:1031C0003B8F68B52882A43F5544880E55C1C93F3E
:1031D0007D6FEB0312D6D43F555555555555C53F18
:1031E00082922EB1C5B8B33F59018D1B6C06E63FE4
:1031F000C88A599CE52A00404B2D8A1C273A034077
:10320000075C143326A6913C182D4454FB21E93F5A
:10321000182D4454FB21F93FFFFFEF3FFFFFDF3F35
:103220000000F03F0000E03F3233EF3F02460B4624
:1032300026F05AFB37A3D3E9002306460F4626F0B3
:1032400053FB36A3D3E9002326F098F932463B46D8
:1032500026F04AFB33A3D3E9002326F08DF932464A
:103260003B4626F041FB31A3D3E9002326F086F943
:1032700032463B4626F038FB2EA3D3E9002326F046
:103280007BF932463B4626F02FFB2CA3D3E90023E3
:1032900026F074F932463B4626F026FB29A3D3E9F3
:1032A0000023804689463046394626F01DFB27A379
:1032B000D3E9002326F060F932463B4626F014FBA2
:1032C00024A3D3E9002326F059F932463B4626F0E1
:1032D0000BFB22A3D3E9002326F04EF932463B46EE
:1032E00026F002FB0A4B002226F048F902460B4664
:1032F0004046494626F022FC22462B4626F0F4FAA8
:1033000022462B4626F03AF903B0BDE8F08F00BF05
:103310000000F03F09F7FD0DE13D023F88B2017565
:10332000E0EF493F3B8F68B52882A43F5544880EA3
:1033300055C1C93F7D6FEB0312D6D43F5555555546
:103340005555C53F82922EB1C5B8B33F59018D1B6B
:103350006C06E63FC88A599CE52A00404B2D8A1C22
:10336000273A0340000000002DE9F84FC44E21F039
:103370000043B34204460D460DD903F1404303F523
:103380008013034340F0B980002940F3C08000203F
:103390000021BDE8F88FBB4EB34208D8BA4A934229
:1033A00000F2BA809CA1D1E90001BDE8F88F0029A4
:1033B000C0F2708122462B46B449002026F0DCF88A
:1033C000B34B002226F090FA04460D461FF008F990
:1033D00093A3D3E90023894680462946204626F058
:1033E00083FA91A3D3E9002326F0C8F822462B469E
:1033F00026F07AFA8EA3D3E9002326F0BDF8224600
:103400002B4626F071FA8CA3D3E9002326F0B6F8F8
:1034100022462B4626F068FA89A3D3E9002326F03A
:10342000ABF822462B4626F05FFA87A3D3E90023A8
:1034300026F0A4F822462B4626F056FA84A3D3E9B8
:10344000002382468B462046294626F04DFA82A369
:10345000D3E9002326F090F822462B4626F044FAC2
:103460007FA3D3E9002326F089F822462B4626F0D5
:103470003BFA7DA3D3E9002326F07EF822462B46B3
:1034800026F032FA814B002226F078F802460B46ED
:103490005046594626F052FB42464B4626F024FA47
:1034A000002682468B4632464B463046494626F039
:1034B0001BFA02460B462046294626F05DF83246A6
:1034C00004460D464B464046494626F057F802460C
:1034D0000B462046294626F031FB02460B46504655
:1034E000594626F04BF832464B4626F047F802463E
:1034F0000B4626F043F8BDE8F88F02460B4626F04F
:103500003BF802460B4626F019FBBDE8F88F58A1A0
:10351000D1E90001BDE8F88F02460B4626F0E4F938
:103520003FA3D3E9002306460F4626F0DDF93EA36C
:10353000D3E9002326F022F832463B4626F0D4F9A0
:103540003BA3D3E9002326F017F832463B4626F08A
:10355000CBF939A3D3E9002326F010F832463B46D5
:1035600026F0C2F936A3D3E9002326F005F8324647
:103570003B4626F0B9F934A3D3E9002325F0FEFF3A
:1035800032463B4626F0B0F931A3D3E9002380460A
:1035900089463046394626F0A7F92FA3D3E9002300
:1035A00025F0EAFF32463B4626F09EF92CA3D3E9EC
:1035B000002325F0E3FF32463B4626F095F92AA387
:1035C000D3E9002325F0D8FF32463B4626F08CF99C
:1035D0002E4B002225F0D2FF02460B4640464946BC
:1035E00026F0ACFA22462B4626F07EF902460B4620
:1035F00021A1D1E9000125F0BFFF02460B4620467C
:10360000294625F0B9FF02460B4603A1D1E9000186
:1036100025F0B2FFBDE8F88F182D4454FB21F93F87
:1036200009F7FD0DE13D023F88B20175E0EF493F2A
:103630003B8F68B52882A43F5544880E55C1C93FC9
:103640007D6FEB0312D6D43F555555555555C53FA3
:1036500082922EB1C5B8B33F59018D1B6C06E63F6F
:10366000C88A599CE52A00404B2D8A1C273A034002
:10367000182D4454FB210940075C143326A6913CC5
:10368000FFFFEF3FFFFFDF3F0000603C0000F03F27
:103690000000E03F5E4B002225F070FF5D4B0022F2
:1036A00026F022F942A3D3E9002304460D4626F072
:1036B0001BF941A3D3E9002325F060FF22462B46E6
:1036C00026F012F93EA3D3E9002325F055FF224648
:1036D0002B4626F009F93CA3D3E9002325F04EFF41
:1036E00022462B4626F000F939A3D3E9002325F022
:1036F00043FF22462B4626F0F7F837A3D3E90023F1
:1037000025F03CFF22462B4626F0EEF834A3D3E901
:10371000002306460F462046294626F0E5F832A348
:10372000D3E9002325F028FF22462B4626F0DCF8BB
:103730002FA3D3E9002325F021FF22462B4626F0B4
:10374000D3F82DA3D3E9002325F016FF22462B46FC
:1037500026F0CAF82E4B002225F010FF804689463D
:10376000204629461EF03CFF424604460D464B4685
:103770003046394626F0E2F922462B4626F0B4F8C8
:103780001FA3D3E9002325F0F7FE22462B4625F0A0
:10379000F5FE02460B4625F0F1FE02460B461AA145
:1037A000D1E9000125F0E8FEBDE8F88FAFF3008015
:1037B00009F7FD0DE13D023F88B20175E0EF493F99
:1037C0003B8F68B52882A43F5544880E55C1C93F38
:1037D0007D6FEB0312D6D43F555555555555C53F12
:1037E00082922EB1C5B8B33F59018D1B6C06E63FDE
:1037F000C88A599CE52A00404B2D8A1C273A034071
:10380000075C143326A6913C182D4454FB21094033
:103810000000F03F0000E03F2DE9F04F9B46D64B03
:1038200021F000479F4287B09246804689460E4667
:1038300051D826F009FB0446002871D1109B42465E
:10384000013313433B4300F0E581109B012B00F053
:10385000EE8152465B464046494625F08FFE0B46B8
:103860000246C64900201F4626F068F942464B46EC
:10387000804689462046394625F07EFE02460B46A4
:103880005046594625F078FE22464B4626F02CF845
:1038900002460B4616462046224639461F464B46F0
:1038A00026F022F8B64B002225F068FE02460B46B1
:1038B0003046394625F062FE42464B4626F014F863
:1038C00022464B4625F05AFE04460D462046294620
:1038D00007B0BDE8F08FAB4B9F4221D9002905DA34
:1038E00001F1004399460BF100439B4642464B468B
:1038F00083A1D1E9000125F03FFE52465B46044614
:103900000D4681A1D1E9000125F036FE22462B4665
:1039100025F034FE4FF0000A804689464FF0000B38
:1039200042464B464046494625F0DEFF02460B46DE
:10393000CDE9002325F0D8FFDDE9002304460D463C
:103940004046494625F0D0FF71A3D3E90023CDE9D5
:1039500002012046294625F0C7FF6FA3D3E90023C3
:1039600025F00CFE22462B4625F0BEFF6CA3D3E9C2
:10397000002325F003FE22462B4625F0B5FF6AA35F
:10398000D3E9002325F0FAFD22462B4625F0ACFFB3
:1039900067A3D3E9002325F0F1FD22462B4625F04D
:1039A000A3FF65A3D3E9002325F0E8FDDDE90023AB
:1039B00025F09AFF62A3D3E90023CDE90401204654
:1039C000294625F091FF60A3D3E9002325F0D6FD19
:1039D00022462B4625F088FF5DA3D3E9002325F07E
:1039E000CDFD22462B4625F07FFF5BA3D3E90023C4
:1039F00025F0C4FD22462B4625F076FF58A3D3E9D7
:103A0000002325F0BBFD22462B4625F06DFF56A373
:103A1000D3E9002325F0B2FD02460B46DDE904019F
:103A200025F0ACFDDDE9022325F05EFF52465B4642
:103A300025F0A4FDDDE9002325F056FF52465B4644
:103A400025F09CFD4AA3D3E9002304460D46DDE999
:103A5000020125F049FF22462B4625F08FFD8246C4
:103A60008B465B4640464946524625F087FD454B0E
:103A70009F4204460D4600F28780109B012B37D0F1
:103A8000002602460B460F4600203C49CDE9006760
:103A900026F054F842460D4604464B46DDE9000147
:103AA00025F06AFD02460B465046594625F064FD56
:103AB0002B46324625F018FF2B4680468946324673
:103AC000DDE9000125F010FF2D4B002225F056FD09
:103AD00002460B464046494625F050FD22462B46FD
:103AE00025F002FF2B46324625F048FD04460D46E0
:103AF0002046294607B0BDE8F08F00BFAFF3008035
:103B0000182D4454FB21E93F075C143326A6813C61
:103B1000D47ABF74702AFB3EE9A7F0320FB8123F87
:103B200068108D1AF726303F1583E0FEC8DB573F3B
:103B300093846EE9E326823FFE41B31BBAA1AB3FFB
:103B4000735360DBCB75F3BEA69237A0887E143F1B
:103B50000165F2F2D844433F280356C9226D6D3FF8
:103B600037D60684F464963F7AFE10111111C13FD6
:103B7000635555555555D53FFFFF2F3E0000F0BF0B
:103B80000000F03F2794E53F109825F043FE2246C1
:103B9000CDE900012B462046294625F0A5FE024628
:103BA0000B462046294614461D46DDE9002325F034
:103BB000E5FC02460B462046294625F0BFFF52464B
:103BC0005B4625F0D9FC02460B464046494625F0A7
:103BD000D3FC02460B4625F0D1FC02460B46DDE93C
:103BE000000125F0C9FC4FEAA67808F00208044657
:103BF000C8F101000D4625F00DFE02460B46204699
:103C0000294625F071FE04460D462046294607B098
:103C1000BDE8F08F404649461FF054FC02460B4673
:103C20000020044925F08AFF04460D4660E744461B
:103C30004D465DE70000F03F2DE9D04FD04E21F01A
:103C40000043B34284B082468B4601F0004411D950
:103C5000CC4EB34240F2C980CB4EB34240F2BD805D
:103C6000C1F31302024300F0D48102460B4625F053
:103C700085FCE4E0C54A934200F2E480C44A9342E2
:103C800040F245810024C34B00225046594625F09E
:103C90002BFE06460F4632463B465046594625F017
:103CA00023FE9FA3D3E900238046894625F01CFE0E
:103CB0009DA3D3E9002325F061FC42464B4625F045
:103CC00013FE9BA3D3E9002325F056FC42464B4646
:103CD00025F00AFE98A3D3E9002325F04FFC4246C5
:103CE0004B4625F001FE96A3D3E9002325F044FCC2
:103CF00042464B4625F0F8FDA74B002225F03EFC3E
:103D000002460B4630463946CDE9002325F0ECFD4E
:103D100002460B460020A14925F02EFC06460F4620
:103D200032463B46DDE9000125F026FC32463B46A3
:103D300006460F465046594625F0D6FD02460B462C
:103D40000020974925F018FC02460B4630463946BC
:103D500025F0F4FE42464B4625F0C6FD02460B46D2
:103D6000002C5ED0DDE9026732463B4625F004FCBC
:103D700052465B4625F0B8FD32463B4625F0FCFB3B
:103D80004B46424625F0F8FB631C06460F4600F002
:103D90003181012C00F00A81631C392B4FEA045653
:103DA00000F2A480132C00F3458152465B464FF489
:103DB000001725F0E1FB47FA04F4C4F17F594FF0F6
:103DC000000809F5401902460B464046494625F0D1
:103DD000D3FB711804B0BDE8D08F5BA3D3E90023F7
:103DE00026F012F8002840F04681002C53D058A34A
:103DF000D3E900235046594625F0C0FB002200239A
:103E000025F0E4FF002840F0078153A3D3E9002305
:103E10005046594625F068FD02460B460020614990
:103E200044E05046594625F05FFD42464B4625F09A
:103E3000A3FB02460B465046594625F09DFB04B0B5
:103E4000BDE8D08F584A934200F2E98044A3D3E9F9
:103E50000023002C00F0C48025F090FB0FF208191D
:103E6000D9E9008906460F464FF0FF3442464B46DB
:103E70003046394625F080FB82468B4652465B46EB
:103E80003046394625F078FB42464B4625F074FB18
:103E9000CDE90201F7E630A3D3E9002350465946A5
:103EA00025F022FD0B463B490246002025F066FB2B
:103EB00025F0CAFF044625F0ADFC29A3D3E9002371
:103EC0008046894625F010FD02460B46504659466D
:103ED00025F052FB26A3D3E9002306460F464046B1
:103EE000494625F001FD80468946BFE752465B46BC
:103EF00025F042FB02460B460020274925F03CFBFB
:103F0000731819460022244B25F036FB97E71AA3B5
:103F1000D3E9002325F032FB02460B4687E700BFBA
:103F20002DC3096EB7FD8ABE3952E686CACFD03E90
:103F3000B7DBAA9E19CE143F8555FE19A0015A3F42
:103F4000F41011111111A13FEF39FAFE422E8640F3
:103F500059F3F8C21F6EA501FE822B654715F73F86
:103F60000000E0FE422EE63F763C7935EF39EABDAF
:103F7000763C7935EF39EA3D9C7500883CE4377E24
:103F800079684340412E8640FFFFEF7F422ED63FA7
:103F9000FFFF8F3C0000E03F0000F03F00000840C2
:103FA000000018400000E0BFB1A2F03F3A4B0022F1
:103FB0005046594625F00AFF00284DD0374B504651
:103FC0005946002225F0DAFA02460B4630463946B9
:103FD00025F0D2FA00224FF0404325F085FC2EE771
:103FE00025F0CAFA0FF2A009D9E9008906460F4662
:103FF00001243BE702460B465046594625F0BCFAE1
:10400000264B002225F070FC244B002225F0B4FA48
:1040100015E7002C3FF413AF214900200FE71CA344
:10402000D3E9002325F060FC02460B46002044B390
:104030001C493BE7C4F57F7403342305002225F0B7
:104040009DFA02460B465046594625F095FA164B06
:10405000002225F093FABCE632463B4650465946CC
:1040600025F08AFA02460B4625F088FA0E4B00220C
:1040700025F084FAE3E6002004B0BDE8D04F1FF03D
:104080004FBA064912E700BF763C7935EF39EA3D71
:10409000FE822B654715F73F0000D0BF0000E03FD0
:1040A0000000F0BF0000E0BF0000F03F0000000093
:1040B000594A2DE9F84321F00046964204460D4640
:1040C0005CD8564B0029ACBFDFF86891DFF86C91E3
:1040D0009E424FF0000812D9514B9E4240F28E8012
:1040E000504B9E4256D901339E4250D048A3D3E94B
:1040F00000232046294625F0F7FBBDE8F8834A4B0C
:104100009E425ED842A3D3E9002325F037FA474BFD
:10411000002225F079FEB8BB204629461FF0D2F9CF
:10412000FFF78AFD04460D4622462B4620462946C7
:1041300025F024FA224606460F462B4620462946FD
:1041400025F0D2FB02460B462046294614461D4662
:104150000022364B25F012FA02460B46204629462D
:1041600025F0ECFC02460B463046394625F004FAB1
:1041700042464B4625F0B8FBBDE8F88302460B46A5
:1041800025F0FCF9BDE8F88320462946FAE7284BDC
:104190009842ABD8204629461FF094F9254B0022BF
:1041A00025F0A2FBFDF7A4FE04460D4622462B4651
:1041B0004046494625F098FB22462B4625F094FBC5
:1041C000E0E71FF07FF9FFF737FD184B00220446A8
:1041D0000D4625F0D3F90B4617498E420246A3D966
:1041E0002046294625F0AAFC22462B4625F0C6F992
:1041F00042464B4625F078FBBDE8F8831FF062F994
:10420000FDF776FE42464B4625F06EFBBAE700BF4F
:104210003374AC3C1F7BAC7FFFFFEF7FFFFF35406B
:10422000412E8640CD338640FFFF2F3E0000F03FF9
:104230007DF8B98F0000E03FFFFFEF3F0000E0BFD7
:1042400038B5124B1D682A6B04461AB10023C2E927
:10425000044338BD18200CF009F80246286378B1F1
:1042600001200021C2E90401094B0A480A49916072
:10427000C2E900030B2393810023C2E9044338BD44
:10428000064B0748462120F081FE00BF8C0000202D
:1042900034126DE60E33CDABECDE0500480A0300A8
:1042A000600A03001C4B10B51C68226B8AB11369AD
:1042B0001A4954691A4803FB01F100FB0411A3FBDE
:1042C0000030013341EB0001C2E9043121F000402C
:1042D00010BD18200BF0CAFF0246206388B1114CB4
:1042E000114B0E48114991609FED097BC2E90043D3
:1042F0000B2393810E4B014682ED047BC2E904310E
:1043000010BD0C4B0C48522120F040FEAFF3008052
:1043100001000000000000008C0000202DF4515826
:104320002D7F954C0E33CDAB34126DE6ECDE0500DF
:104330002E7F954C480A0300600A0300000000002D
:104340002DE9F04F9FB00F46002107921A910022ED
:104350000021CDE9041283463A461992904612F89C
:1043600001ABBAF12D0F5FD801A151F82AF000BFBF
:10437000B9450000294400002944000029440000F8
:104380002944000029440000294400002944000079
:10439000294400005B4300005B4300005B430000D6
:1043A0005B4300005B4300002944000029440000F7
:1043B0002944000029440000294400002944000049
:1043C0002944000029440000294400002944000039
:1043D0002944000029440000294400002944000029
:1043E0002944000029440000294400002944000019
:1043F0005B430000294400002944000029440000D8
:1044000029440000294400002944000029440000F8
:104410002944000029440000294400007548000098
:10442000294400008F48000000220892BAF1300FA2
:1044300000F0858000230993BAF12F0F564640F211
:1044400012854FF0000940464D464C4618E0082CB6
:10445000C8BF09EB890900F10100C8BF0AEB490A8E
:104460001990C8BFAAF1300990F800A0D8BFA3F1F5
:104470003005BAF12F0F04F10104564640F3A8802D
:1044800005EB8503BAF1390F0AEB4303DFDDAC49D5
:10449000012222F05FFF002868D11998431C19936C
:1044A000417818460A46002C40F0EB80302A08BFBD
:1044B000034640F0D7851946013319931A78302AFC
:1044C000F9D0C0F101000144A2F13100082800F246
:1044D000C68101310F910021303A98460A9101249A
:1044E00005EB850502EB450500210133199318788A
:1044F000A0F13002092A01F1010600F27E84002AAF
:1045000000F08C870F98012E30440F9000F08487C4
:1045100004F1010C604606E075000130061B013E07
:10452000B14240F38F84461E082E05EB8506F3DD6D
:104530001028DCBF09EB89094FEA4909EDE798F833
:10454000012002F0DF02582A18BF434600F012840F
:104550000133199393F800A0BAF1300FF8D09846C0
:10456000BAF1000F0ED00123099365E7BAF1650F88
:104570001AD0BAF1450F17D0002C2FD1099B002B70
:1045800000F0BC804FF000084FF00009079A0AB114
:10459000199B1360089BB3B109F10043994640464B
:1045A00049461FB0BDE8F08F002C78D10A940F94D3
:1045B000099B002B40F0E2824FF000084FF0000909
:1045C000079B03B11F60404649461FB0BDE8F08F0E
:1045D0005B49012222F0BEFE00284ED0284625F07D
:1045E00009F9092CCDE9040140F3CD820023102CF8
:1045F000A2460E93A8BF4FF0100A0A9412930F938D
:10460000504B03EBCA0353E9122325F06DF906461C
:1046100048460F4625F0EEF802460B46304639462E
:1046200024F0ACFF0F2CCDE9040100F3AC800E9B0D
:10463000002B00F0A8820E9B40F38E82162B40F3D5
:1046400065840E9AC4F125039342C0F29C803D4DCF
:10465000C4F10F0405EBC401DDE90423D1E9000135
:1046600025F042F90E9B1C1B05EBC405D5E9002380
:1046700025F03AF98046894688E7199A531C199320
:104680005178A1F13000092800F2DE8002460028AE
:1046900000F0BD8601210A94A4460F91D4E30021C5
:1046A000199B0A940F918C465A1C19925E782B2EF6
:1046B00000F0C7802D2E00F0BE804FF0000AA6F15A
:1046C0003007092F37D8302E199A40F0E580013293
:1046D00019921678302EFAD0A6F13100082840F24F
:1046E000D98000221292002C34D1099A0A437FF417
:1046F00049AFBCF1000F40F03F841F46692E00F027
:10470000188400F31184492E00F013844E2E7FF498
:1047100053AF0D4919A822F0F3FF00283FF44CAF26
:10472000199B1B78282B00F06D8508481FF0A0F816
:10473000804689462AE7002219931292D3E700BFE8
:10474000CC0A030020F60200DC0A03002C0A030056
:10475000002312930A9A1346002A08BF23460A939D
:104760000F9A129B102CA3EB020328460E93A2462D
:10477000A8BF4FF0100A25F03DF8092CCDE904013F
:104780003FF73EAF53E70E9BA4EB0A0A9A44BAF1F7
:10479000000F40F3A9802AF00F071AF00F0A40F02B
:1047A0004283B7F59A7F00F3DC83102FDFF880A1F6
:1047B0004FEA271600F04C85DDE904234FF0000C8A
:1047C0005746E14616F0010F1046194607D0D7E9C3
:1047D000002325F089F84FF0010C02460B467610B5
:1047E000012E09F1010907F10807EBD1BCF1000F17
:1047F00001D0CDE90423059BA3F1547305930AEB83
:10480000C90ADDE90423DAE9000125F06DF8454B1A
:10481000CDE904010B400A4643498B4200F2A183D3
:10482000A1F580118B4240F2AF84404B4FF0FF3234
:10483000CDE904235AE04FF0010A9A1C19929E78A0
:104840003DE74FF0000AF8E701F0DF0145297FF46A
:10485000C5AE00210A940F914FF0010C24E702F03D
:10486000DF02452A7FF48EAE00240A940F944FF0A5
:10487000010C19E70022089208F10102199298F838
:1048800001A0BAF1000F3FF497AE9046CEE50122A9
:104890000892F1E7A6F13007501C199056782F2E98
:1048A00040F3F68286460E9208E0013019909EF899
:1048B00001602F2EA2F1300706DD864607EB870246
:1048C000392E06EB4202F0DD0E9A801A082840F3DA
:1048D000DF8244F61F621292BAF1000F3FF403AF79
:1048E000129A52421292FEE640F0D98200230993B6
:1048F0000A9A009523464146584623F035FC13900A
:10490000002800F02E830F9B129A9B1A0E9A002A01
:10491000A8BF00230F9322EAE272002314921E46DE
:104920009946DAE00000F07F0000A07CFFFFEF7FF7
:1049300010F70200D21A1F2AA4EB020400F396819A
:1049400001239340109300231593099B25443C4475
:10495000A7421D443B46A8BF2346AB42A8BF2B46F7
:10496000002B02DDE41AED1AFF1A0F9B002B00F357
:104970001D81002C00F334810E9B002B00F36C8111
:10498000002D00F35A81002F08DD31463A46584683
:1049900023F0F2FD0646002800F058811A9952468D
:1049A000584623F07DFE8146002800F04F81002309
:1049B000C268C3603146129223F050FE0028C0F254
:1049C000E883059B984600F08C833146484624F0E6
:1049D00003F800224FF0804304460D4625F000FA0C
:1049E000002800F0D380129B002B40F04C81049BE8
:1049F000002B40F0EF81C8F31303002B40F08A81B5
:104A0000A94B00222046294625F0E0F9002840F075
:104A10003883A64B00222046294624F065FF0A462B
:104A20000146CDE9101202F100430C900D93A04F06
:104A3000A04B08EA07079F42DDE90C4500F04281E0
:104A4000099B13B3B7F1D46F1FD893A3D3E9002305
:104A5000DDE9100125F0C4F9A0B1DDE9100125F070
:104A60001BFA012838BF012024F0C4FE129BCDE9B7
:104A70001001002B40F0878201F10043169017933C
:104A8000DDE9164505F1D663DD1BDDE90A0123F0FA
:104A9000C1FE02460B462046294624F025FFDDE9EB
:104AA0000A2324F06BFDCDE904010C46099B23B9D0
:104AB0007F4B23409F4200F036811A99584623F0DD
:104AC000E1FA5146584623F0DDFA3146584623F0C4
:104AD000D9FA4946584623F0D5FA139C58466168DE
:104AE00023F090FA8246002800F0B080226902325A
:104AF000920004F10C010C3020F080F99DED047B54
:104B00001CAB01931BAB0093584653EC172B8DED58
:104B10000A7B23F005FF1A9000286AD0012158462D
:104B200023F0E6FB0646002800F090801B9B002B3C
:104B30007FDB0F9A149D9F18099A1C9C9B1A234493
:104B40005D4A013B9342C4F13604FFF6F3AE002305
:104B5000159301231093F8E61633FFF614AE0F9B5E
:104B6000129A9A1A554B03EBC203DDE90401D3E90B
:104B7000002324F0E3FF8046894607E5A44600248D
:104B8000199B214690E5DDE90489FFE4474B204667
:104B90002946002224F0A8FE129BCDE91001002B2B
:104BA0006CD101F100430C900D9340E731461A4659
:104BB000584623F069FC06461A98D6B1024631469B
:104BC000584623F0ABFB034612931A988BB101466B
:104BD000584623F057FA129B1A93002C7FF7CCAE5D
:104BE0001A992246584623F0C7FC1A9000287FF4F1
:104BF000C3AE5746CDF83890B2462223DFF8B090C6
:104C0000CBF800304FF000080146584623F03AFA3E
:104C10003946584623F036FA5146584623F032FAC0
:104C20001399584623F02EFA0E99584623F02AFA83
:104C3000ACE4149A0F9FD51A7EE751462A4658468F
:104C400023F09AFC824600287FF49DAE57461A98BE
:104C5000CDF83890B246D0E75146149A584623F022
:104C600013FC824600287FF48BAEEFE7144AD21A79
:104C7000012303FA02F21592109366E69DED107B74
:104C80008DED0C7BD3E69FED067B8DED0C7B8DEDE2
:104C9000107BCCE6AFF300800000C0FFFFFFDF41D8
:104CA000000000000000F03F0000F03F0000E03F87
:104CB0000000F07F0000E07F02FCFFFF20F6020012
:104CC000E2FBFFFFA8F154730593DDE9044520469C
:104CD000294623F09FFDDDE90C2324F005FE224642
:104CE0002B4624F04BFCB44AB44B0A409A42CDE91F
:104CF000040140F29480DDE90A0103F15473994202
:104D000002D1B0F1FF3FA1D0AD4C4FF0FF33CDE960
:104D10000434D2E69FED9E7B8DED0C7B9FED9E7B58
:104D20008DED107B83E6DDE910783846414625F0AD
:104D30003BF924F0ABFD02460B463846414624F0D1
:104D40001BFC049F129DC4F313043D432C430746F0
:104D500088462DD192A3D3E9002325F037F8002807
:104D60003FF4ABAECDF83890DDE904895746B24642
:104D70001A9849E70293089B01931AAB0093914A52
:104D80001BAB19A9584620F0B5FB10F00F050446DF
:104D90003FF4F8AB062D40F0218108F1010319938F
:104DA00000234FF000084FF000090893FFF7EEBB17
:104DB0007DA3D3E9002325F009F80028D2D17CA3F4
:104DC000D3E900233846414625F01EF800283FF479
:104DD00074AEC7E7049B012B9CD14346002B99D1AD
:104DE0005746CDF83890B24622231A98CBF80030B7
:104DF0004FF000084FF0000906E700F0DF004528FB
:104E000000F0B380002C7FF4A3AC099B19434FF052
:104E100000084FF000093FF4D3ABFFF7B7BB01F137
:104E20005474059442E6684901EBCA01DDE90423A4
:104E3000D1E9000124F058FDCDE90401002F3FF431
:104E400055ADAEE401398C44BCF1080F0CF10104FE
:104E50007FF746AB102CDCBF09EB890902EB49094F
:104E60000021FFF742BB59490122404622F072FA65
:104E700040B9814619980346013019905A784D4639
:104E8000FFF714BB099B002B3FF496ABFFF77ABBEF
:104E900044F61F629742A8BF174612971CE5CAF155
:104EA000000A4FEA2A171AF00F0A0DD0464B03EBFF
:104EB000CA03DDE90401D3E9002324F03FFECDE974
:104EC0000401002F3FF412AD1F2F00F30581DDE92F
:104ED000042317F0100118BF6A2117F0010F099180
:104EE0003B4E104619460FD0D6E9002324F0FCFCB7
:104EF0007F1002460B4600F0D28017F0010F06F13A
:104F0000080610461946EFD17F10F6E70E982E4995
:104F100001EBC001DDE90423D1E9000124F0E4FC48
:104F200080468946FFF732BB6E2E3FF4F2ABFFF7A7
:104F300043BB284919A822F0E3FB00283FF43CAB0F
:104F4000199B2549013B19A8199322F0D9FB10B9E7
:104F5000199B01331993DFF860904FF00008FFF7B9
:104F600015BB2223CBF80030F5E7002C00F03A8285
:104F70004FF0010CFFF798BB4FF000084FF000090D
:104F80001F46FFF71DBB9DED107B8DED167B77E572
:104F9000000000000000F0BF000000000000F03F33
:104FA0009535A094FFFFCF3F9535A094FFFFDF3FDD
:104FB00035E5AF350000E03F0000F07FFFFF9F7C4C
:104FC000FFFFEF7FC0F5020020F60200CC0A0300CD
:104FD000E8F50200D00A0300D40A03001A9A3AB195
:104FE00035211CA823F042FD1A99584623F04AF8AF
:104FF000013D042D00F21582DFE805F0032E2B2081
:1050000003001C9B04931B9B03F233421D9B23F460
:10501000801343EA02530593E20502D543F00043AF
:105020000593B34A1A40DDE90489002A7FF4AEAA49
:1050300022F0FEF922230360FFF7A8BA4FF0FF32F7
:105040006FF00043CDE90423E3057FF59CAD059B9C
:10505000E4E7A74B0593F7E7DDE91C121D9BCDE9BB
:105060000412D9E7A2F13103082B13D922F0200250
:10507000452A7FF407AF00230A930F930124FFF71B
:1050800097BA9FED977B8DED0C7B9FED977B8DED18
:10509000107BCCE4012103460F91FFF71CBA099B5A
:1050A000CDE904017BB1C1F30A52C2F16B03002BBD
:1050B00009DD1F2B40F3FD80342B049740F36481FE
:1050C0004FF05C730593DDE904010022002324F016
:1050D00073FE00283FF40CAC2223CBF80030FFF71E
:1050E00051BA5746C3F31302B2461E46129BCDF87F
:1050F0003890DDF840C0DDF854E07E49DDE90A89EA
:10510000002B00F093808A4200F0FA80BEF1000F7D
:1051100000F0E0801EEA060F32D04046494623F0F8
:1051200079FB099B002B00F03781C6F30A53C3F1CA
:105130006B03002B40F353811C0504F17F530022C5
:1051400003F5401324F0D0FB02460B464046494687
:1051500024F014FA80468946674B404649460022AF
:1051600024F0C2FB624B0B4080468946002B7FF443
:10517000FFAD2223CBF80030FAE51EEA060F72D10C
:10518000099B002BE8D1F3E502F154730593FFF777
:10519000ADBBDDE90445129ACDF83890224357465D
:1051A0004B46B246DDE90A89EAD1C5F313022E4621
:1051B000002AE5D125F00044240D2405B4F1D66F72
:1051C000DED95A6912B91A69012AD9DD0E9901226C
:1051D000584623F0D1F951460E9023F03FFA0028AB
:1051E000CEDD099B002B00F0AB80A4F580146FEAA4
:1051F00014536FEA035305934FF0FF330493DDE933
:105200000489A9E73D4919A81CAA22F095FA0528A6
:105210007FF48BAA1D9B43F0FF4343F4E003059307
:105220001C9B0493DDE90489FFF7B0B9A2B9DDE95D
:105230000434002B45D1099B002B00F081802C4CBD
:105240003440B4F1D66FD0D8B4F15C7F84D8CBE5CC
:105250004FF00009FFF7CFBABEF1000F8DD1049BCC
:105260001CEA030F8CD04046494623F0D3FA099B31
:10527000002B55D0C6F30A53C3F16B03002B40F348
:10528000AB801C0504F17F53002203F5401324F08A
:105290002BFB02460B464046494624F06DF900229E
:1052A00000238046894624F087FD00283FF454AF50
:1052B0009AE54FF0FF3202FA03F3049A1A4004927F
:1052C00001E7BEF1000F7FF458AF13EA0C0F3FF473
:1052D00057AFC8E7049B1CEA030F3FF451AF1CE72C
:1052E000000000000000E0BF000000000000E03F00
:1052F0000000F07FFFFF0F0000005039D4F50200DE
:10530000DDE90445099B214653BB234601332ED0DA
:10531000BEF1000F6AD01EEA060F3FF429ADFCE68D
:1053200002460B464046494624F026F90022002357
:105330008046894624F040FD00283FF419AD53E52E
:105340003E4A1A983240A2F580126FEA12536FEA71
:10535000035305934FF0FF330493DDE9048953E4CD
:10536000364A3240B2F1D46F20D9621C27D1344A78
:10537000964240D0314A324002F580130593002313
:105380000493DDE90489FBE6C2F14B024FF0FF33E1
:1053900093400B40059396E602460B46404649462D
:1053A00024F0ECF8804689461A982DE4120DC2F1DB
:1053B0006B024FF0FF3000FA02F29442D7D0BEF1F8
:1053C000000F04D01EEA060F3FF4C6AEA5E611EAB0
:1053D0000C0F3FF4C1AEA0E602460B465BE7024667
:1053E0000B46B3E600293FF449AEC1E514EA0C0FC1
:1053F0003FF4BEAC91E60131BCD122231A98DFF80C
:105400003C90CBF800304FF00008FFF7FDBB0F9049
:105410000A940121FFF769B8A44615E53146FFF764
:1054200064B8E10505D54FF000430593DDE9048933
:10543000FEE54FF000084FF00009F9E50000F07FAD
:10544000FFFFEF7F014BFEF77BBF00BFE8000020AE
:1054500010B4054C8446134620685DF8044B0A4698
:105460006146FEF76DBF00BF8C00002010B4054CF4
:10547000054B84460A4620685DF8044B6146FEF7FA
:105480005FBF00BF8C000020E80000202DE9F04144
:10549000DFF8A480044613462DED028B0A46D8F8A7
:1054A00000002146FEF74CFF02460B4604460D461F
:1054B00024F0B4FC50BB2046294624F00DFD08EE34
:1054C000100ADFED1A7AB0EEC87AB4EE677AF1EE20
:1054D00010FA15DD25F00047154B4FF0FF3220463E
:1054E000394624F09BFC38B9114B4FF0FF3220466F
:1054F000394624F075FC18B1D8F8003022221A6021
:1055000018EE100ABDEC028BBDE8F081002D0948B1
:1055100006DA1FF0D9F907EE900AB1EE678AEFE7D5
:10552000BDEC028BBDE8F0411FF0CEB9FFFF7F7FDD
:10553000FFFFEF7F2C0A03008C0000202DE9F843C9
:10554000264F274B04460A4638682146FEF7F8FEE8
:1055500002460B4604460D4624F060FC88BB2046FC
:10556000294624F0B9FC07EE100ADFED1E7AB0EEF2
:10557000C77AB4EE677AF1EE10FA064617DD25F029
:105580000049194B4FF0FF322046494624F046FCB3
:1055900038B9154B204649464FF0FF3224F020FC25
:1055A00028B13B6822221A603046BDE8F88316F025
:1055B000FF4FF9D10D4B2B40002BF2D13046BDE807
:1055C000F883002D0A4804DA1FF07EF980F00046C7
:1055D000EAE7BDE8F8431FF077B900BF8C00002070
:1055E000E8000020FFFF7F7FFFFFEF7F0000F07FDC
:1055F0002C0A03000348044B834202D0034B03B13F
:105600001847704780020020800200200000000040
:105610000548064B1B1AD90F01EBA301491002D014
:10562000034B03B11847704780020020800200201E
:105630000000000010B5064C237843B9FFF7DAFFED
:10564000044B13B10448AFF300800123237010BD55
:105650006018002000000000C44D030008B5044B92
:105660001BB104490448AFF30080BDE80840CFE710
:105670000000000064180020C44D0300A3F5803A28
:10568000704700BF154B002B08BF114B9D46FFF71D
:10569000F5FF00218B460F461148124A121A21F0DD
:1056A000B7FD0C4B002B00D098470B4B002B00D0C4
:1056B00098470020002104000D000B4803F08CFBEC
:1056C00022F08AFA2000290002F00AFB21F0E8FF0C
:1056D00000000800000000000000000000000220A0
:1056E00000040020441D0020D54D02006FF47D70A1
:1056F000704700BF6FF47D70704700BF6FF47D701E
:10570000704700BF6FF47D70704700BF6FF47D700D
:10571000704700BFC08800F00500003818BF0120A6
:10572000704700BFC08800F00A00003818BF012091
:10573000704700BFC08810F0030018BF01207047F9
:10574000C08800F00C00003818BF0120704700BF6F
:105750006FF47D70704700BF6FF47D70704700BFBD
:105760006FF47D70704700BF6FF47D70704700BFAD
:105770006FF47D70704700BF6FF47D70704700BF9D
:105780006FF47D70704700BF6FF47D70704700BF8D
:10579000704700BF064B10B50446D3F830090368C4
:1057A0005B6A98470146204626F057F8012010BD55
:1057B00000050020064B10B50446D3F82C090368F9
:1057C0009B6A98470146204626F047F8012010BD05
:1057D00000050020064B10B50446D3F82C090368D9
:1057E0001B6A98470146204626F037F8012010BD75
:1057F000000500202DE9F04182B0012102AF0546ED
:1058000028F088F902218046284628F083F9C31D34
:1058100023F00703ADEB030D6E46002346F8083B6B
:105820000446034632460A4841460BF0CBFC30B1F1
:105830000849284628F0EBF8BD46BDE8F081284627
:105840002246314626F015F80120BD46BDE8F0811C
:10585000000C002038F7020010B5044603F044F9AC
:105860000146204626F01DF8012010BD30B583B05A
:105870000F49044601A804F025FB0E4901A806F0D3
:105880001DF840B1204625F0DBFF01A805F0D2FF4E
:10589000012003B030BD01A806F026F8054601A896
:1058A00006F026F829460246204625F0E2FFECE7FE
:1058B000080E0020CC18002030B583B06A460121C4
:1058C000044628F0EAF8009A0023014601A805F0F2
:1058D000B9FF01A9074804F039FB054601A805F006
:1058E000A9FFB5FA85F12046490926F041F80120C3
:1058F00003B030BD080E0020074B10B50446D3F8A6
:1059000030090368DB6A9847B0FA80F149092046FC
:1059100026F02EF8012010BD00050020074B10B521
:105920000446D3F8300903689B6A9847B0FA80F1BF
:105930004909204626F01CF8012010BD0005002072
:1059400010B50121044628F0E5F8074B0146D3F8CD
:10595000300903681B6A9847B0FA80F1490920466C
:1059600026F006F8012010BD00050020074B10B5F9
:105970000446D3F830090368DB699847B0FA80F130
:105980004909204625F0F4FF012010BD0005002044
:10599000074B10B50446D3F82C0903681B6B9847D6
:1059A000B0FA80F14909204625F0E2FF012010BD40
:1059B00000050020074B10B50446D3F82C090368F6
:1059C000DB6A9847B0FA80F14909204625F0D0FFFC
:1059D000012010BD0005002010B50121044628F06B
:1059E00099F8074B0146D3F82C0903685B6A98477E
:1059F000B0FA80F14909204625F0BAFF012010BD18
:105A00000005002010B50121044628F083F8074B5B
:105A10000146D3F82C090368DB699847B0FA80F196
:105A20004909204625F0A4FF012010BD00050020F3
:105A300070B50121044628F06DF802210546204684
:105A400028F068F803210646204628F063F832B2B1
:105A5000C3B229B2054810F0FDF9B0FA80F1490946
:105A6000204625F085FF012070BD00BF040D0020F9
:105A700008B5012128F04EF80AF0D2F9002008BD3F
:105A800010B504460CF0BAFC0146204625F0E5FEB0
:105A9000012010BD10B50121044628F03BF80AF0A2
:105AA00059FD0146204625F0D8FE012010BD00BF5B
:105AB00010B50446044804F085F90146204625F057
:105AC000CCFE012010BD00BFF00D002010B501215B
:105AD000044628F01FF8C1B2054804F061F9B0FA95
