:1000000000000220C5960100ED960100EF96010068
:10001000F1960100F3960100F59601000000000042
:10002000000000000000000000000000F796010042
:10003000F996010000000000FB960100FD9601000A
:10004000FF960100E19500008D950100519501009A
:1000500065950100FF960100697F0100496C010070
:10006000D5900100DD900100E5900100FF960100B0
:10007000FF960100FF960100FF960100FF96010028
:10008000FF960100FF960100FF960100FF96010018
:10009000FF960100FF960100FF960100FF96010008
:1000A000FF960100FF960100ED900100F590010020
:1000B000FF960100FF960100000000000000000014
:1000C000FF960100FF960100FF960100799501005F
:1000D000FF960100FF960100FF960100000000005E
:1000E0000000000000000000000000000000000010
:1000F0000000000000000000000000000000000000
:1001000000000000000000000000000000000000EF
:1001100000000000000000000000000000000000DF
:1001200000000000000000000000000000000000CF
:1001300000000000000000000000000000000000BF
:1001400000000000000000000000000000000000AF
:10015000000000000000000000000000000000009F
:10016000000000000000000000000000000000008F
:10017000000000000000000000000000000000007F
:10018000000000000000000000000000000000006F
:10019000000000000000000000000000000000005F
:1001A000000000000000000000000000000000004F
:1001B000000000000000000000000000000000003F
:1001C000000000000000000000000000000000002F
:1001D000000000000000000000000000000000001F
:1001E000000000000000000000000000000000000F
:1001F00000000000000000000000000000000000FF
:1002000030B490F800F020F007016FF0000C10F00F
:10021000070491F820F040F048804FF000046FF0A0
:100220000700D1E9002391F840F000F1080082FABC
:100230004CF2A4FA8CF283FA4CF3A2FA8CF34BBB87
:10024000D1E9022382FA4CF200F10800A4FA8CF200
:1002500083FA4CF3A2FA8CF3E3B9D1E9042382FACE
:100260004CF200F10800A4FA8CF283FA4CF3A2FAE3
:100270008CF37BB9D1E9062301F1200182FA4CF21B
:1002800000F10800A4FA8CF283FA4CF3A2FA8CF382
:10029000002BC6D0002A04BF04301A4612BAB2FAA4
:1002A00082F200EBD20030BC7047D1E9002304F0A9
:1002B0000305C4F100004FEAC50514F0040F91F8DE
:1002C00040F00CFA05F562EA05021CBF63EA05037B
:1002D00062464FF00004AAE70000000000000000A2
:1002E00002780B78012A28BF9A4240F0D8806DE945
:1002F000044540EA0104CDE902676FF0000C4FEAC3
:1003000044721AB380EA010414F0070F6BD100F0B5
:10031000070420F0070004F0030521F007014FEA6D
:10032000C505F0E8042314F0040FF1E804670CFAA3
:1003300005F462EA040266EA04060BD063EA0403E9
:10034000624667EA0407664604E000BFF0E804235B
:10035000F1E8046782FA4CF582EA0604A4FA8CF408
:100360006CBB83FA4CF583EA0705A5FA8CF595B9C1
:1003700050E9022351E9026782FA4CF582EA060449
:10038000A4FA8CF483FA4CF583EA0705A5FA8CF5F8
:100390002543DBD09CB92DBAB5FA85F424F00704C7
:1003A00027FA04F1DDE9026723FA04F303F0FF0002
:1003B00001F0FF01FDE80445A0EB0100704724BAFD
:1003C000B4FA84F424F0070426FA04F1DDE90267A4
:1003D00022FA04F202F0FF0001F0FF01FDE80445FB
:1003E000A0EB0100704714F0030F3CD110F00304A0
:1003F00028D150F8082B51F8083B82FA4CF582EAD4
:100400000305A5FA8CF55DB950F8042C51F8043CAD
:1004100082FA4CF582EA0305A5FA8CF5002DE8D0A6
:100420002DBAB5FA85F424F0070423FA04F122FA70
:1004300004F202F0FF0001F0FF01FDE80445A0EB2B
:10044000010070474FEAC40420F0030050F8082B65
:1004500021F0030151F8083B0CFA04F462EA0402AB
:1004600063EA0403C9E710F003041DD0A1EB040103
:1004700020F00300E40750F8042B06D012D28B784A
:100480005FFAA2F4E41A06D12BB1CB785FFAB2F48A
:10049000E41A00D133B920465DF8104B7047A2EB47
:1004A0000300704701F1040150F8042BCC0721F040
:1004B000030151F8043B48D824D222F07F4482FA49
:1004C0004CF594EA1325A5FA8CF50AD165B951F8D3
:1004D000043B84EA0204B4EB036F0ED150F8042B02
:1004E000EBE74FEA132355E035F07F454DD108780F
:1004F000FDE80445C0F1000070474FEA126203F0C6
:10050000FF0347E002EA1C4482FA4CF594EA1345E3
:10051000A5FA8CF50AD165B951F8043B84EA0204C6
:10052000B4EB034F0CD150F8042BEBE74FEA134325
:1005300030E015EA1C4528D10B884FEA124229E029
:100540004FEA124203EA1C4324E002F0FF0482FA5D
:100550004CF594EA1365A5FA8CF50AD165B951F802
:10056000043B84EA0204B4EB032F09D150F8042BB6
:10057000EBE74FEA13630DE015F0FF0F05D10B68B1
:100580004FEA122223F07F4304E04FF00000FDE821
:100590000445704712BA1BBA82FA4CF482EA03048B
:1005A000A4FA8CF5B5FA85F402FA04F203FA04F31E
:1005B0004FEA1260FDE80445A0EB1360704700BFEE
:1005C00001F0FF01102A2BDB10F0070F08D010F804
:1005D000013B013A8B422DD010F0070F42B3F6D108
:1005E000F0B441EA012141EA014122F007047FF021
:1005F00000070023F0E80256083C85EA010586EA78
:10060000010685FA47F5A3FA87F586FA47F6A5FAB3
:1006100087F68EB9EED1F0BC01F0FF0102F00702BF
:1006200032B110F8013B013A83EA010313B1F8D16A
:100630000020704701387047002D06BF354603384B
:10064000073815F0010F07D1013015F4807F02BF84
:10065000013015F4C03F0130F0BC0138704700BFD5
:100660002DE9F0419FED1E7B214C04609FED1E5B48
:1006700000F502644FF07E55DFED1E6A03F1FF3C8A
:1006800080ED027B4FF00008256000F62807012668
:1006900000F5036500F5046EBCF1030F04ED025B89
:1006A000C0F82488C7ED006A80F82C6885ED007BCF
:1006B0000EED027B05D89C193441C0F81838C0F8FB
:1006C0001C4892B207EE902A00F61402F8EE677A00
:1006D00000F501631160C3ED007ABDE8F08100BF51
:1006E0000000000000000000030000000200000005
:1006F000BC150300000000002DE9F04F044683B054
:10070000C06828F0E9FD80462069894628F0E4FDAC
:100710006569CDE90001284628F0DEFD024601F1B9
:10072000004306460F464046494620F057FE29F052
:1007300035F9E062824621F0FBFF8346504621F006
:1007400097FB8246584628F0D9FD42464B4628F092
:100750002DFE80465046894628F0D0FD32463B4665
:1007600028F024FE02460B464046494628F066FC27
:1007700002460B46DDE9000120F030FE29F00EF9BB
:10078000002D07EE900A19DDF5EEC07AF1EE10FAB1
:100790001DDD11A7D7E9006717EE900A28F0AEFD1E
:1007A00002460B463046394628F048FC32463B4666
:1007B00028F046FC29F0F2F807EE900AE388C4ED31
:1007C0000A7A43F00203E38003B0BDE8F08F04A788
:1007D000D7E90067E0E700BFEA2E4454FB21F93F68
:1007E000EA2E4454FB21F9BF2DE9F0412DED028B97
:1007F000002408EE103A5C4B0360446005460F4647
:100800001646BDF820800EF025FA584B2B6003F1F8
:100810002C023833EB60AA606F612C8205F12C004A
:1008200015F000FA05F1300015F0FCF99FED507A53
:10083000504B68696E63C7EE087AA5F80480EC61D6
:100840002C852C83C0F80045B0EE677ABEEECE7AD8
:1008500017EE101A9FED427BB1F5004F83ED007B40
:1008600083ED027B234678DB013341FA03F4B4F5D0
:10087000004FF9DA072B15DC04FA03F10029B8BFA1
:100880000F31091107EE901ADFED396AC0F80C3507
:10089000F8EEE77AC0F8084586EEA77AC5ED097A42
:1008A00085ED087A00230222C0F804353249C0F8E9
:1008B0001025C0F84835C0F82835C0F84C35C0F8C8
:1008C0002C3540F201136B830123C0F8143530241A
:1008D00004238842C0F80032C0F8044321D02749DD
:1008E00088422DD0264A90420ED0326801235268A9
:1008F0002B7605F10801C0F8003530469047BDEC75
:10090000028B2846BDE8F0811E4A1F4C95601F4AA5
:100910009168A2F54062C1F8C840C2F884315360C2
:10092000E3E71A4B174A99681560A3F540634FF047
:100930008052174CC1F8B040C3F880211A60D4E748
:10094000104B144C5D60114B9968A3F54063C1F8DE
:10095000C440C3F884215A60C7E70C468EE700BF45
:1009600000800080008000805C1A03005C27030088
:10097000002474495018002000C0014000100240BB
:10098000002002408C1A00207D75010000ED00E07F
:10099000D57401002975010010B5012104462CF021
:1009A000E7FC28F0ABFC06A3D3E9002328F0FEFC0B
:1009B00028F0F4FF014620462AF0ACFB012010BDD0
:1009C000399D52A246DF913F10B5012104462CF01B
:1009D000CFFC28F093FC06A3D3E9002328F010FEF7
:1009E00028F0DCFF014620462AF094FB012010BDD0
:1009F000399D52A246DF913F82B010B59FED0A7B30
:100A0000014601F110040498C86081ED087B20467E
:100A100002A981E80C000FF0D3F82046BDE8104091
:100A200002B00FF01DB800BF000000000000000081
:100A3000C1F30A5C2DE9F041ACF2FF35132D0246FB
:100A40000B460C46064622DC002D4CDBDFF8D4803A
:100A500048FA05F801EA080C5CEA000C0F461BD0C6
:100A60002EA3D3E9002328F0EBFA0022002328F07C
:100A70002DFF40B1002C03DD4FF480132B411F44A8
:100A800027EA0804002621463046BDE8F081332DD0
:100A900006DDB5F5806F38D010461946BDE8F08107
:100AA000ACF2134C4FF0FF3727FA0CF73842F3D073
:100AB0001AA3D3E9002328F0C3FA0022002328F068
:100AC00005FF0028DFD0002C334609DD142D06D0A9
:100AD000C5F134050122AA4013449E4200D90134D5
:100AE00023EA0706CFE70DA3D3E9002328F0A8FAED
:100AF0000022002328F0EAFE0028C4D0002C07DBE7
:100B0000344300D0044C0026BDE728F099FAC5E72D
:100B100000264FF00044B6E70000F03F9C750088C7
:100B20003CE4377EFFFF0F00F8B504460D4601F0A8
:100B3000DFF906460F462046294622F02BF878B109
:100B400012A3D3E900232046294628F0BFFE50B95E
:100B500010A3D3E900232046294628F099FE58B96E
:100B600030463946F8BD26F0C5F9074F2223002646
:100B7000036039463046F8BD26F0BCF92223002632
:100B800000270360ECE700BF0000F07FEF39FAFEBA
:100B9000422E864051302DD5104987C000000000FC
:100BA0002DE9F04F964B21F000459D428FB08246D3
:100BB0008B46144640F28B80924B9D420F4628D8BC
:100BC000002985A3D3E9002340F3A18128F036FA58
:100BD0008D4B9D4206460F4600F08D8080A3D3E9E1
:100BE000002328F02BFA8046894642464B46304681
:100BF000394628F023FA7AA3D3E9002328F01EFA15
:100C0000C4E90089C4E90201012630460FB0BDE8FD
:100C1000F08F7E4B9D4240F288807D4B9D4261D893
:100C20002E15A6F21646A5EB06594946504628F061
:100C30006DFE28F051FB02460B4650464946CDE971
:100C4000082328F0FBF9734B002228F0AFFB8946FC
:100C5000804628F05BFE28F03FFB02460B464046EC
:100C60004946CDE90A2328F0E9F96A4B002228F029
:100C70009DFBCDE90C010DF1380A03254FF000086A
:100C80004FF000097AE9020142464B46AB46013D6E
:100C900028F0F4FD0028F5D15F4B01930223009367
:100CA00032465B46214608A820F086FC002F064607
:100CB000ABDA6168226801F10043E168C4E900230E
:100CC000A26801F10043C4E9022346429DE70022E5
:100CD0000023C4E900ABC4E90223002630460FB06C
:100CE000BDE8F08F02460B4628F0A8F9C4E90201DE
:100CF000C4E90001F1E73CA3D3E9002328F09EF901
:100D00003BA3D3E9002306460F4628F097F9804617
:100D1000894642464B463046394628F08FF934A37F
:100D2000D3E9002328F08AF96AE722F02DF932A3EB
:100D3000D3E900238046894628F038FB374B002250
:100D400028F07EF928F0E2FD064628F0C5FA0246B2
:100D50000B46CDE9022320A3D3E9002328F026FB8C
:100D600002460B464046494628F068F91CA3D3E9E1
:100D7000002382468B46DDE9020128F017FB02467C
:100D80000B4650465946CDE9042328F057F91F2E4B
:100D90008046894646DC224B721E53F82230AB4215
:100DA00040D042464B46C4E900895046594628F097
:100DB00045F9DDE9042328F041F9002FC4E90201D7
:100DC000BFF623AF09F10043C4E9008301F10043FA
:100DD000C4E90203764218E700004054FB21F93FC2
:100DE0003163621A61B4D03D0000601A61B4D03D35
:100DF0007370032E8A19A33B83C8C96D305FE43F2B
:100E0000FB21E93F7BD90240FB21F93FFB2139411E
:100E1000FFFFEF7F00007041A02D03000000E03FC6
:100E2000202D0300C9F30A53C3EB1553102B4FEACF
:100E30002555B6DD56A3D3E90023DDE9020128F0EC
:100E4000B5FA8046894642464B465046594628F0F8
:100E5000F5F802460B4650465946CDE90623924620
:100E60009B4628F0EBF842464B4628F0E7F84AA3A9
:100E7000D3E9002380468946DDE9020128F096FA8D
:100E800042464B4628F0DAF80B4602465946504691
:100E9000CDE9042328F0D2F8C1F30A53ED1A312D1D
:100EA000804689467FF77DAF3EA3D3E90023DDE985
:100EB000020128F07BFA8046894642464B46DDE92E
:100EC000060128F0BBF882468B4652465B46DDE9B8
:100ED000060128F0B3F842464B4628F0AFF833A39A
:100EE000D3E9002380468946DDE9020128F05EFA55
:100EF00042464B4628F0A2F802460B465046594659
:100F0000CDE9042328F09AF88046894649E728F07D
:100F100097F8234B9D4206460F4618D01AA3D3E9F3
:100F2000002328F08DF88046894642464B463046DD
:100F3000394628F083F814A3D3E9002328F080F879
:100F4000C4E90089C4E902014FF0FF365DE610A351
:100F5000D3E9002328F074F80FA3D3E90023064651
:100F60000F4628F06DF88046894642464B4630468B
:100F7000394628F063F808A3D3E9002328F060F885
:100F8000DEE700BFAFF300803163621A61B4D03D89
:100F90000000601A61B4D03D7370032E8A19A33B20
:100FA000FB21F93F0000002E8A19A33BC1492025EF
:100FB0009A837B390000000070B51646C1F30A52CF
:100FC00004460D460B464ABB21F00043034324D0A0
:100FD000334B002228F0EAF9324B9E4204460D467C
:100FE00046DBC1F30A520B46363A4CF250318E4280
:100FF0001CDC164440F2FE72964217DC002E29DCFF
:1010000016F1350F2CDB6FF31E53363643EA0651CB
:101010002046254B002228F0C9F970BD40F2FF7C24
:101020006245E2D1024628F00BF870BD002D14A1F4
:10103000D1E9000105DB12A3D3E9002328F0B6F9BA
:1010400070BD0FA3D3E900230FA1D1E9000128F05F
:10105000ADF9F5E76FF31E53204643EA065170BD24
:10106000002D0BA1D1E9000102DA0BA1D1E90001A9
:1010700007A3D3E9002328F099F970BDAFF30080EE
:101080009C7500883CE4377E9C7500883CE437FE04
:1010900059F3F8C21F6EA50159F3F8C21F6EA5815E
:1010A00000005043B03CFFFF0000903C00000000F7
:1010B000F8B504460D4622F099FC224606460F4636
:1010C0002B462046294628F00BFC48B920462946E5
:1010D00021F05AFF09A3D3E9002328F0F7FB10B948
:1010E00030463946F8BD25F005FF034F0026222380
:1010F000036039463046F8BD0000F07F7DF8B98FB7
:10110000CE338640000000002DE9F04F83B0CDE9DA
:10111000002321F00043B3F1795F04460D4604D269
:1011200028F0F4FB002800F0858022462B4620465C
:10113000294628F03BF906460F4632463B462046F4
:10114000294628F033F941A3D3E9002382468B4690
:101150003046394628F02AF93EA3D3E9002327F088
:101160006DFF32463B4628F021F93CA3D3E900232A
:1011700027F066FF32463B4628F018F939A3D3E939
:10118000002327F05BFF32463B4628F00FF937A3D8
:10119000D3E9002327F054FF0C9B804689469BB37C
:1011A000DDE90001284B002228F000F942464B46B9
:1011B000804689465046594628F0F8F802460B46C4
:1011C0004046494627F03AFF32463B4628F0EEF8C3
:1011D000DDE9002327F032FF19A3D3E900230646F7
:1011E0000F465046594628F0E1F802460B46304675
:1011F000394627F025FF02460B462046294627F0B0
:101200001DFF03B0BDE8F08F02460B46304639465D
:1012100028F0CCF80AA3D3E9002327F00FFF5246A9
:101220005B4628F0C3F822462B4627F009FF03B09F
:10123000BDE8F08F2046294603B0BDE8F08F00BF1F
:10124000495555555555C53F0000E03F7CD5CF5A0F
:101250003AD9E53DEB9C2B8AE6E55A3E7DFEB15737
:10126000E31DC73ED561C119A0012A3FA6F81011A0
:101270001111813F000000002DE9F04F23F0004ADA
:10128000044652EA0A0093B0904699460D4614D19E
:101290002319714985F4002252419842914126D286
:1012A00042464B462046294627F0CAFE02460B46D8
:1012B0001046194613B0BDE8F08F1F461346674A23
:1012C00000940E4621F000419142029116D9009BF4
:1012D00006F1404606F580161E43E1D14346DB1871
:1012E0005D4989F4002252419E429141D8D35C4B22
:1012F00000221046194613B0BDE8F08F13D0924576
:10130000E5D8DDF808B053D0002E15DB002B40F0F7
:101310008380534A924540F02084002FC0F211850B
:1013200022462B46C4E7002CBAD18A45B8D800F033
:101330005984DDF808B0E7E74A4A924500F2A383F2
:10134000494A924500F2A583002B40F0EF83B7F1A4
:10135000804F00F0038504932046294621F014FEB7
:101360000B4600990246002937D00498F10F013945
:1013700008435FD004980138084300F07F839FED55
:10138000347B8DED067BBAF1844F71D937498A459C
:1013900040F23D84344B029A9A4200F2F984002FC5
:1013A000C0F2F984002013B0BDE8F04F21F010BE68
:1013B000002B8CD1029B009A03F1404303F580136C
:1013C000134394D0284B029A9A4240F29484002FFF
:1013D000C0F2068542464B466AE7214926F0404066
:1013E000884202D002990029BFD1002FC0F27B842D
:1013F000002EBFF65DAF029901F14049049909F54D
:10140000801959EA010917D0049901297FF450AFD6
:1014100003F100410B464BE7002304932046294685
:1014200021F0B2FD0B46009902460029D5D0F10FFC
:1014300001399FE722462B461046194627F0FEFD4C
:1014400002460B4628F0DCF802460B4630E700BFA8
:10145000000000000000F03F0000F0FF0000F07FFF
:101460000000F03FFFFF3F43FFFFEF3F0000F0436E
:10147000D7493140002940F0C88310461946002260
:10148000D44B27F093FF02468B466FF034004FEAAF
:101490002B51A1F2FF310818CF490F90CBF3130B5A
:1014A0004BF07F548B4544F4401440F3A083CB4968
:1014B0008B4540F35D849FEDB07B8DED087B9FED08
:1014C000B07B8DED047B9FEDAC7B8DED107B01300F
:1014D0000F90A4F58014002592465046DDE90423C0
:1014E000214627F0ABFDA346DDE9042306460F465F
:1014F00050462146CDE90AAB27F0A2FD02460B4635
:101500000020B74928F07CF88C46834663465A464B
:1015100030463946CDE90CBC27F048FF64100A4636
:101520000146CDE9021244F00054DDE902AB04F5B6
:101530000023591900204FF0000A04460D462246A8
:101540002B4650465946CDE9000127F02FFF0246B1
:101550000B463046394627F071FDDDE90423064687
:101560000F462046294627F069FD02460B46DDE975
:101570000A0127F063FD52465B4627F017FF02463B
:101580000B463046394627F059FDDDE90C2327F09C
:101590000DFFDDE90245CDE9040122462B46204638
:1015A000294627F003FF78A3D3E9002304460D461C
:1015B00027F0FCFE76A3D3E9002327F041FD224665
:1015C0002B4627F0F3FE74A3D3E9002327F038FD60
:1015D00022462B4627F0EAFE71A3D3E9002327F029
:1015E0002FFD22462B4627F0E1FE6FA3D3E900230F
:1015F00027F026FD22462B4627F0D8FE6CA3D3E920
:10160000002327F01DFD224606460F462B462046A6
:10161000294627F0CBFE02460B463046394627F0D6
:10162000C5FE524604460D465B46DDE9020127F041
:1016300007FDDDE9042327F0B9FE22462B4627F0FB
:10164000FFFC524604460D465B465046594627F07D
:10165000ADFE644B002206460F4627F0F1FC224601
:101660002B46CDE90A4527F0EBFC0D462B465246AA
:101670005046594627F09AFE5A4BCDE90001002208
:101680002946504627F0DAFC32463B4627F0D6FC86
:1016900002460B46DDE90A0127F0D0FCDDE9022312
:1016A00027F084FE2B4606460F465246DDE904012C
:1016B00027F07CFE02460B463046394627F0C0FC38
:1016C00006460F463246DDE900013B4627F0B8FCEE
:1016D00039A3D3E9002350460D4627F067FEDDE924
:1016E0000023CDE900012946504627F0A7FC024619
:1016F0000B463046394627F0A1FC31A3D3E900233D
:1017000027F054FE02460B461446294650461D4615
:101710002DA3D3E9002327F049FE02460B462046BD
:10172000294627F08DFCDDE9102327F089FC0646C9
:101730000F980F4627F0D0FD324604460D463B4633
:10174000DDE9000127F07CFCDDE9082327F078FCC7
:1017500022462B4627F074FC504622462B46CDE904
:10176000020127F06BFCDDE9082327F067FCDDE9C7
:10177000002339E0AFF3008000000000000000000B
:10178000000000000000F03FEF4E454A287ECA3FAF
:1017900065DBC9934A86CD3F01411DA96074D13FE5
:1017A0004D268F515555D53FFFAB6FDBB66DDB3FF7
:1017B000033333333333E33F000000E009C7EE3F28
:1017C000FD033ADC09C7EE3FF5015B14E02F3EBE96
:1017D0000000F07F000040438E98030079B60B00B4
:1017E0000000F03F0000084027F028FC02460B46AE
:1017F0003046394627F022FCCDE904010023CDE92B
:1018000000890093DDE90067404632463B46494681
:1018100027F014FCDDE902AB52465B4627F0C6FD1B
:10182000424604460D464B46DDE9040127F0BEFD65
:1018300002460B462046294627F002FC3246044663
:101840000D463B4650465946CDE9024527F0AEFDD0
:1018500006460F46204629463B46324627F0F0FB17
:10186000DB4B994204460D46884640F33F8101F127
:101870003F4303F5E003034340F09782C0A3D3E95D
:101880000023DDE9020127F0DBFB02460B46204680
:10189000294614461D4632463B4627F0CFFB0246FA
:1018A0000B462046294628F011F8002840F07D829A
:1018B0004FF400734344C3F30A52C64CA2F2FF3202
:1018C0001441C3F3130AC2F11402002004EA030115
:1018D0004AF4801A4AFA02FA0B460246B8F1000F9F
:1018E00030463946B8BFCAF1000A27F0A7FB0246C6
:1018F0000B4606460F46DDE9020127F0A1FB4FEA41
:101900000A5B0D460024A0A3D3E900232046294604
:1019100027F04CFD3246804689463B462046294604
:1019200027F08CFB02460B46DDE9020127F086FB1F
:1019300097A3D3E9002327F039FD02460B46204642
:10194000294614461D4694A3D3E9002327F02EFD13
:1019500002460B462046294627F072FB06460F46F4
:1019600032463B464046494627F06AFB42464B46D4
:1019700004460D4627F062FB02460B4630463946C8
:1019800027F05CFB2246804689462B4620462946A6
:1019900027F00CFD82A3D3E9002306460F4627F06B
:1019A00005FD81A3D3E9002327F048FB32463B46DF
:1019B00027F0FCFC7EA3D3E9002327F041FB32464D
:1019C0003B4627F0F3FC7CA3D3E9002327F036FB4A
:1019D00032463B4627F0EAFC79A3D3E9002327F0FF
:1019E0002FFB32463B4627F0E1FC02460B462046E1
:1019F000294627F023FB06460F4632463B46204643
:101A0000294627F0D3FC02460B4630463946164697
:101A10001F4600224FF0804327F010FB02460B4682
:101A20003046394627F0ECFD424606460F464B4607
:101A30002046294627F0BAFC42464B4627F000FBD9
:101A400002460B463046394627F0F8FA22462B4626
:101A500027F0F4FA02460B4600205F4927F0EEFA21
:101A60000C465C44B4F5801FC0F29B812146DDE941
:101A7000062327F09BFC02460B4619E49FED527BA0
:101A80008DED067B7FE4002B00F0A68102230493FA
:101A9000C4E44FEA2A52A2F2FF32142A40F33781FB
:101AA000C2F1340223FA02F101FA02F29A4200F082
:101AB0009B81002B3AD1B7F1804F00F04F81204637
:101AC000294621F061FA0B460099024600297FF46D
:101AD000B1AC414926F04040884200F0CC810299E7
:101AE000002900F0C381002104913EE4DFF8F0C03A
:101AF00021F00043634540F21B81384B0B44034304
:101B00000AD132463B4627F099FADDE9022327F055
:101B1000D3FE00283FF4CCAEDDE90601002200230D
:101B200027F0B6FE003818BF01203CE420462946C5
:101B300021F02AFA0B460099024600297FF47AAC7C
:101B4000254926F04040884200F07881029900291A
:101B500000F060810099049107E4B7F1804F00F034
:101B6000FD80A2F5801297427FF4F5AB204629460E
:101B700013B0BDE8F04F20F095BA00BFAFF300807E
:101B8000FE822B654715973C00000000432EE63F80
:101B9000EF39FAFE422EE63F396CA80C615C20BE9C
:101BA000D0A4BE726937663EF16BD2C541BDBB3E63
:101BB0002CDE25AF6A56113F93BDBE166CC1663F41
:101BC0003E5555555555C53F000000000000F0BF7B
:101BD000FFFF8F400000F0FF0000F03F00346F3F38
:101BE000FFCB9040002B7FF45BABFFF7EBBB9FED8F
:101BF000AA7B8DED087B9FEDAA7B8DED047B9DED8F
:101C0000087B00258DED107B66E400203FE4B4499D
:101C100002988842C0F0D380B2490298884200F20C
:101C2000EC80104619460022AE4B27F007FA9EA31F
:101C3000D3E9002304460D4627F0B8FB9CA3D3E963
:101C4000002382468B462046294627F0AFFBA64B51
:101C5000CDE9000100222046294627F0A7FB0246D5
:101C60000B4695A1D1E9000127F0E8F922462B4661
:101C700027F09CFB02460B4600209C4927F0DEF92A
:101C800022462B4606460F462046294627F08EFB65
:101C900002460B463046394627F088FB88A3D3E935
:101CA000002327F083FB02460B46DDE9000127F005
:101CB000C5F904460D4622462B465046594627F0A4
:101CC000BFF9002052465B46CDE9020127F0B6F984
:101CD00002460B462046294627F0B0F9CDE904011B
:101CE0008CE5029904917F49002027F089FC024687
:101CF0000B46FFF77DBB002F4FF000024FF00003B3
:101D0000BFF6D6AA424609F10043FFF7D1BA002B2D
:101D10007FF40CAFC2F114024AFA02F101FA02F2A6
:101D200052457DD06F4A92453FF4F7AAFFF70FBBAB
:101D30006E4A934200F28880DDE900239346924682
:101D4000E0E522462B466749002027F059FC024671
:101D50000B46FFF7ADBAB7F1804F3DD122462B4677
:101D60002046294627F022FB02460B46FFF7A0BA81
:101D70009FED557B8DED087B9FED557B8DED107BA9
:101D80009FED557B4FF480258DED047BFFF7A4BBC1
:101D9000002F7FF707AB002013B0BDE8F04F21F014
:101DA00021B95246FFF708F961E6DDE90601002294
:101DB000002327F06DFD003818BF0120ECE7DDE9B6
:101DC00006010022002327F063FD003818BF012020
:101DD000002FBFF6E8AADFE702230493FFF7BCBA9F
:101DE00000220023FFF764BA002BB4D001F00101F8
:101DF000C1F102030493FFF711BBDDE906010022E4
:101E0000002327F045FD003818BF0120002FC3DC58
:101E1000FFF7C9BA002FFFF664AF0491FFF7EBBAE2
:101E2000304B9A453FF479AAB7F1804F96D001F034
:101E30000101C1F102030493FFF78EBA002F0BDBFF
:101E400000990491FFF7D7BA1B15A3F2FE334FF4A4
:101E5000801242FA03F32DE52249002027F0D0FB3F
:101E6000009B049302460B46FFF7C5BA002FD4DA55
:101E70000021049137E7002F01DB0021CDE719494C
:101E8000002027F0BDFB0023049302460B46FFF71A
:101E9000B2BA00BFAFF300800000000000000000F5
:101EA000000000000000F03F000000604715F73F11
:101EB00044DF5DF80BAE543E555555555555D53F4D
:101EC000FE822B654715F73F0000004003B8E23F54
:101ED00006D0CF43EBFD4C3E000000000000F83F71
:101EE000FFFFEF3F0000F03F0000D03F0000E03F69
:101EF0002DE9F047D04F21F00042BA4286B00446A7
:101F00000D464FEAD1760DD9CC4FBA426FD9C1F305
:101F100013030343024640F04481002E64D00020A6
:101F2000002161E0C64B9A4200F21281C54B9A42F1
:101F300040F2248122462B462046294627F036FAD5
:101F4000A7A3D3E9002306460F4627F02FFAA6A33E
:101F5000D3E9002327F072F832463B4627F026FAF1
:101F6000A3A3D3E9002327F06BF832463B4627F0C2
:101F70001DFAA1A3D3E9002327F060F832463B46BF
:101F800027F014FA9EA3D3E9002327F059F832462C
:101F90003B4627F00BFA02460B462046294627F01F
:101FA0004DF8CDE90201DDE90289204642464B4663
:101FB000294627F0FBF9002206460F464FF08043E2
:101FC0004046494627F03AF802460B463046394625
:101FD00027F016FB22462B4627F030F802460B4628
:101FE0000020994927F02AF806B0BDE8F08786A3BB
:101FF000D3E9002327F06AFC0746002840F0D78089
:1020000083A3D3E900232046294627F041FC00287A
:1020100040F0DF808D4B204603EBC60629467EA3A9
:10202000D3E9002327F0C2F9D6E9082327F008F8FE
:1020300027F06CFC824627F04FF979A3D3E90023FF
:1020400006460F4627F0B2F902460B4620462946BF
:1020500026F0F4FF74A3D3E9002380468946304676
:10206000394627F0A3F9CDE90001DDE90023404618
:10207000494626F0E3FF02460B4604460D4627F08C
:1020800095F957A3D3E9002306460F4627F08EF9AA
:1020900055A3D3E9002326F0D1FF32463B4627F073
:1020A00085F953A3D3E9002326F0CAFF32463B4605
:1020B00027F07CF950A3D3E9002326F0BFFF324676
:1020C0003B4627F073F94EA3D3E9002326F0B8FF6F
:1020D00032463B4627F06AF902460B46204629461F
:1020E00026F0ACFF06460F462046294632463B46C0
:1020F000CDE9026727F05AF9CDE90401BAF1000FE2
:102100003FF451AF32463B4600204FF0804126F06D
:1021100095FF02460B46DDE9040127F071FA0246FD
:102120000B46DDE9000126F089FF42464B4626F0CA
:1021300085FF02460B460020434926F07FFF6FF4DF
:102140007F72924539DB01EB0A5106B0BDE8F0879A
:102150003F4B9A423FF65EAF3C4C04EBC604D4E9D9
:10216000002326F06BFF94ED047B86F0010A8DEDD1
:10217000007B80468946AAEB060A76E72CA3D3E9C2
:10218000002326F05DFF304B002227F09FFB002844
:102190003FF4D0AE2C4B00222046294626F050FFBB
:1021A00022E70B4626F04CFF06B0BDE8F087002082
:1021B00006B0BDE8F04720F015BF0AF57A7A01EBCA
:1021C0000A5100224FF0B87327F0F0F806B0BDE8CE
:1021D000F087384606B0BDE8F04720F0F9BE00BFF2
:1021E000D0A4BE726937663EF16BD2C541BDBB3E1D
:1021F0002CDE25AF6A56113F93BDBE166CC1663FFB
:102200003E5555555555C53FEF39FAFE422E86408D
:1022100051302DD5104987C0FE822B654715F73FF9
:102220000000E0FE422EE63F763C7935EF39EA3D8C
:102230009C7500883CE4377E412E8640FFFFEF7F8F
:10224000422ED63FFFFFEF3D0000F03F80ED020041
:10225000B1A2F03F00000000B1F5801F2DE9F84366
:1022600004460D460B4619DA21F00042024353D0D2
:10227000002959DB364B002227F098F8354A0D46E5
:102280002B46934204466FF035010CDD22462B4667
:102290002046294626F0D4FEBDE8F8832D4A934215
:1022A0004FF00001F2DC1815A0F2FF300844C70F10
:1022B00000EBD070C3F3130627F00EF8C7F57F7359
:1022C000033346EA03551CA3D3E90023804689461D
:1022D00027F06CF802460B462046294614461D4658
:1022E00000F022FB16A3D3E9002327F05FF8224673
:1022F0002B4626F0A5FE14A3D3E9002304460D4681
:102300004046494627F052F802460B4620462946E9
:1023100026F096FEBDE8F883002200230E49002037
:1023200027F06EF9BDE8F883024626F087FE00220A
:10233000002327F065F9AFE7362BF111F3FE593D85
:102340000EE526157BCBDB3F00609F501344D33F47
:1023500000005043FFFFEF7F000050C3000000006B
:10236000C1F30A5C2DE9F041ACF2FF35132D0246B2
:102370000B460C46064622DC002D42DBDFF8E480EB
:1023800048FA05F801EA080C5CEA000C0F461BD07D
:1023900032A3D3E9002326F053FE0022002327F0C6
:1023A00095FA40B1002C03DA4FF480132B411F44FF
:1023B00027EA0804002621463046BDE8F081332D87
:1023C00006DDB5F5806F2CD010461946BDE8F081CA
:1023D000ACF2134C4FF0FF3727FA0CF73842F3D02A
:1023E0001EA3D3E9002326F02BFE0022002327F0B2
:1023F0006DFA0028DFD0002C33461CDB23EA0706E9
:10240000D9E716A3D3E9002326F01AFE0022002301
:1024100027F05CFA0028CED0002C05DB00263446DD
:10242000C9E726F00DFED1E724F0004426430DD184
:102430004FF00044BFE7142D06D0C5F1340501224A
:10244000AA4013449E42D9D90134D7E7024C002652
:10245000B1E700BFAFF300800000F0BF9C750088BB
:102460003CE4377EFFFF0F002DE9F84F99465342B9
:102470005F4F134329F0004E4EEAD373BB429046A0
:1024800004460D463DD84642064321F0004A4AEA3A
:10249000D676BE4203468B4633D809F1404606F550
:1024A000801616433DD04FEAA97606F0020653EA9D
:1024B0000A0346EAD1762CD052EA0E0235D0BE4548
:1024C00046D0BA4531D0AAEB0E0ABAF1747F4FEA72
:1024D0002A5339DAB9F1000F46DA3C3344DA0020E6
:1024E0000021012E58D0022E49D086B134A3D3E961
:1024F000002326F0A3FD34A3D3E9002326F09EFD9C
:1025000005E022462B464046494626F099FDBDE8A7
:10251000F88F022E10D0032EF9D12DA1D1E90001A0
:10252000F5E7BDE8F84F00F067B8BBF1000F07DB37
:1025300029A1D1E90001EAE723A1D1E90001E6E7F9
:1025400027A1D1E90001E2E723A1D1E90001C8E711
:10255000F24506F1FF3623D0022E29D8254B03EB96
:10256000C603D3E90601D2E742464B462046294638
:1025700027F046F820F008FD00F03EF8B1E710A380
:10258000D3E9002326F05AFD02460B460EA1D1E9FD
:10259000000126F053FDBAE701F100431946B6E702
:1025A000022E08D8134B03EBC603D3E90001AEE7B4
:1025B00000200021ABE70CA1D1E90001A7E700BF93
:1025C000075C143326A6A13C182D4454FB21094076
:1025D000182D4454FB2109C0182D4454FB21F93F08
:1025E000182D4454FB21F9BF182D4454FB21E93F19
:1025F0000000F07FC8ED02002DE9F84FC04B21F03C
:1026000000469E4204460D468A460ED9BD4B9E4268
:1026100000F2AE8000F0A980BAF1000F40F3E8802C
:102620009BA1D1E90001BDE8F88FB74B9E4200F2B3
:10263000B680A3F1DE739E4240F2A2804FF0FF3BD2
:1026400022462B462046294626F0B0FE02460B467F
:102650008046894626F0AAFE8FA3D3E900230646CA
:102660000F4626F0A3FE8EA3D3E9002326F0E8FC54
:1026700032463B4626F09AFE8BA3D3E9002326F090
:10268000DFFC32463B4626F091FE89A3D3E90023C6
:1026900026F0D6FC32463B4626F088FE86A3D3E9D8
:1026A000002326F0CDFC32463B4626F07FFE84A375
:1026B000D3E9002326F0C4FC42464B4626F076FEC2
:1026C00081A3D3E90023804689463046394626F067
:1026D0006DFE7FA3D3E9002326F0B0FC32463B46D3
:1026E00026F064FE7CA3D3E9002326F0A7FC324643
:1026F0003B4626F05BFE7AA3D3E9002326F09EFC3E
:1027000032463B4626F052FE77A3D3E9002326F05B
:1027100095FC32463B4626F049FE02460B464046B3
:10272000494626F08DFC22462B4626F03FFEBBF1A3
:10273000FF3F02460B4660D0744E06EBCB06D6E94F
:10274000082326F07BFC22462B4626F077FC024627
:102750000B46D6E9000126F071FCBAF1000F0DDA44
:1027600001F100431946BDE8F88F00283FF454AF4B
:1027700022462B462046294626F062FCBDE8F88F0B
:102780005BA3D3E9002326F05BFC614B002227F01A
:102790009DF800283FF452AF20462946EEE720F08E
:1027A000F3FB5C4B9E4204460D462CD8A3F5502308
:1027B0009E4253D802460B4626F042FC544B002260
:1027C00026F03CFC02460B462046294614461D4690
:1027D00000224FF0804326F033FC02460B46204691
:1027E000294626F00DFF4FF0000B04460D4627E763
:1027F00041A1D1E90001BDE8F88F2046294626F025
:102800001DFCBDE8F88F444B9E421CD2434B002276
:1028100026F014FC02460B462046294614461D4667
:1028200000223E4B26F0C2FD394B002226F008FC68
:1028300002460B462046294626F0E2FE4FF0020BE8
:1028400004460D46FCE622462B463549002026F07C
:10285000D7FE4FF0030B04460D46F1E62C4B002249
:1028600026F0ECFB02460B462046294614461D4640
:102870000022274B26F0E4FB02460B462046294661
:1028800026F0BEFE4FF0010B04460D46D8E600BF11
:10289000182D4454FB21F93F11DA22E33AAD903F61
:1028A000EB0D76244B7BA93F513DD0A0660DB13F87
:1028B0006E204CC5CD45B73FFF8300922449C23FEF
:1028C0000D5555555555D53F2F6C6A2C44B4A2BFB4
:1028D0009AFDDE522DDEAD3F6D9A74AFF2B0B33F7C
:1028E000711623FEC671BC3FC4EB98999999C93FF4
:1028F0009C7500883CE4377E182D4454FB21F9BFB9
:10290000FFFF0F440000F07FFFFFDB3F08EE0200F7
:102910000000F03FFFFFF23F008003400000F83F5F
:102920000000F0BF000000002DE9F04FB1F5801F5E
:1029300087B002460B460D4680F2838021F00044AA
:10294000044300F020810029C0F26081D64B0022B0
:1029500026F02CFD0D460B46D4498D426FF035060E
:10296000024673DC2C15C5F3130505F51521A4F2F9
:10297000FF3401F6647101F48011344404EB115406
:1029800081F07F5181F4401141EA05031046194658
:102990000022C74B26F052FBAB1CC3F31303022BE0
:1029A00082468B464FF0000257DC002326F066FF7C
:1029B000002840F0F180A8A3D3E9002350465946EF
:1029C00026F0F4FC02460B460020BA4926F036FBFE
:1029D000524606460F465B465046594626F0E6FCF0
:1029E00002460B463046394626F0E0FC06460F46C6
:1029F000002C00F00281204626F06EFC98A3D3E95B
:102A000000238046894626F0D1FC97A3D3E9002312
:102A100004460D464046494626F0C8FC02460B4691
:102A20003046394626F00AFB52465B4626F006FB46
:102A300002460B462046294626F000FB07B0BDE8BB
:102A4000F08F9A498D424FF000068BDD10461946F3
:102A500026F0F6FA07B0BDE8F08F4FF0804326F07D
:102A6000EFFA02460B465046594626F0C9FD064687
:102A700020460F4626F030FC3246CDE904013B46A5
:102A800030463946CDE9026726F090FC02460B46F7
:102A9000CDE9002326F08AFC75A3D3E9002306467E
:102AA0000F4626F083FC74A3D3E9002326F0C8FA6E
:102AB00032463B4626F07AFC71A3D3E9002326F088
:102AC000BFFA32463B4626F071FC6FA3D3E90023E0
:102AD00026F0B6FADDE9002326F068FC6CA3D3E902
:102AE0000023CDE900013046394626F05FFC6AA399
:102AF000D3E9002326F0A4FA32463B4626F056FCE2
:102B000067A3D3E9002326F09BFA32463B4626F022
:102B10004DFCA5F5C22802460B46C5F5D725DDE9D3
:102B2000000126F08DFAA8F27A48513545EA0805E9
:102B3000002D06460F464BDD5E4B0022504659469F
:102B400026F034FC52465B4626F030FC804689462F
:102B50003046394642464B4626F072FADDE90223FA
:102B600026F024FC06460F46002C56D102460B46A2
:102B70004046494626F062FA02460B465046594600
:102B800026F05CFA66E7002200234B49002026F07D
:102B900037FD07B0BDE8F08F002C57D0204626F057
:102BA0009BFB2FA3D3E9002306460F4626F0FEFB2E
:102BB0002DA3D3E9002304460D463046394626F0BE
:102BC000F5FB02460B462046294626F039FA41E736
:102BD00002460B465046594626F030FADDE90223FC
:102BE00026F0E4FB06460F463CB1DDE904891CA350
:102BF000D3E900234046494605E732463B46504666
:102C0000594626F01BFA07B0BDE8F08F26F016FAF9
:102C10000022002326F0F4FC1CE711A3D3E90023D3
:102C2000DDE9040126F0C2FB0FA3D3E9002304462B
:102C30000D46DDE9040126F0B9FB32463B4626F09D
:102C4000FFF902460B4640464946EBE600200021CC
:102C500000E700BFAFF30080555555555555D53F9A
:102C60000000E0FE422EE63F763C7935EF39EA3D42
:102C700044523EDF12F1C23FDE03CB966446C73FAB
:102C8000599322942449D23F935555555555E53FC4
:102C90009FC678D0099AC33FAF788E1DC571CC3FCF
:102CA00004FA97999999D93F00005043FFFFEF7FAD
:102CB0000000F03F0000E03F000050C300000000B3
:102CC0002DE9F04F21F00048B8F1795F85B09246C8
:102CD0009B4606460F466DD226F018FE002800F0EF
:102CE000EE8032463B463046394626F05FFB76A3FF
:102CF000D3E9002304460D4626F058FB74A3D3E91C
:102D0000002326F09DF922462B4626F04FFB72A3A6
:102D1000D3E9002326F092F922462B4626F046FB03
:102D20006FA3D3E9002326F08BF922462B4626F029
:102D30003DFB6DA3D3E9002326F080F922462B4604
:102D400026F034FB6AA3D3E9002326F079F9224662
:102D50002B4626F02BFBCDE90001694B00222046D3
:102D6000294626F023FBDDE90023804689462046DC
:102D7000294626F01BFB44464D468046894652466E
:102D80005B463046394626F011FB02460B4640466C
:102D9000494626F053F902460B462046294626F0BE
:102DA0004DF902460B460020564926F047F905B07A
:102DB000BDE8F08F02460B4626F0F8FA42A3D3E9AD
:102DC000002304460D4626F0F1FA41A3D3E900237F
:102DD00026F036F922462B4626F0E8FA3EA3D3E940
:102DE000002326F02BF922462B4626F0DFFA3CA3DF
:102DF000D3E9002326F024F922462B4626F0D6FA02
:102E000039A3D3E9002326F019F922462B4626F0F0
:102E1000CDFA37A3D3E9002326F012F92B46224638
:102E200026F0C4FA384B9845CDE9000195D9374BC7
:102E300098453BD8A8F5001300223249002090465F
:102E4000994626F0FBF8CDE902012D4B00222046E1
:102E5000294626F0ABFA42464B4626F0EFF8DDE96C
:102E60000023804689462046294626F09FFA44469C
:102E70004D468046894652465B463046394626F0E6
:102E800095FA02460B464046494626F0D7F80246D8
:102E90000B462046294626F0D1F802460B46DDE9CE
:102EA000020126F0CBF805B0BDE8F08F9FED127B54
:102EB000DFF85C908DED027B4FF00008C5E711490B
:102EC000002005B0BDE8F08FD43888BEE9FAA8BD6F
:102ED000C4B1B4BD9EEE213EAD529C804F7E923E69
:102EE0009015CB19A001FA3E7751C1166CC1563F1F
:102EF0004C5555555555A53F000000000000E73FD3
:102F00000000E03F0000F03F3233D33F0000E93FD4
:102F10000000D23F000000002DE9F04FBE4B21F031
:102F2000004A9A4583B004460D4612D90AF1404A38
:102F30000AF5801A5AEA000A00F0FD8002460B46A4
:102F400026F07CF802460B4626F05AFB03B0BDE89B
:102F5000F08FB24B9A458B460FD8BAF1795F80F06B
:102F6000658191A3D3E9002326F06AF8AC4B0022D7
:102F700026F0ACFC002840F012812046294620F0C3
:102F800003F802460B460020A54926F057F8A54B4A
:102F9000002226F00BFA86A3D3E9002304460D464F
:102FA00026F004FA84A3D3E9002326F049F8224648
:102FB0002B4626F0FBF982A3D3E9002326F03EF846
:102FC00022462B4626F0F2F97FA3D3E9002326F010
:102FD00037F822462B4626F0E9F97DA3D3E90023F2
:102FE00026F02CF822462B4626F0E0F97AA3D3E906
:102FF000002326F025F822462B4626F0D7F978A3A1
:10300000D3E90023CDE900012046294626F0CEF978
:1030100075A3D3E9002326F011F822462B4626F0AB
:10302000C5F973A3D3E9002326F00AF822462B46FC
:1030300026F0BCF970A3D3E9002325F0FFFF224658
:103040002B4626F0B3F9764B002225F0F9FF064611
:103050000F46204629461FF025F83B468046894604
:103060003246DDE9000126F0CBFA6F4B9A45CDE9F7
:10307000000146464F4677D832464B4630464946D1
:1030800025F0DEFFDDE9002326F090F94FF000087F
:10309000CDE9000142464B464046494626F086F9B6
:1030A00002460B462046294625F0C8FF4246044604
:1030B0000D464B463046494625F0C2FF02460B46B8
:1030C0002046294626F09CFA02460B4625F0B8FF1A
:1030D00002460B464AA1D1E9000125F0AFFF0246A6
:1030E0000B46DDE9000125F0A9FF424604460D46E6
:1030F0004B464046394625F0A3FF02460B4642A107
:10310000D1E9000125F09AFF02460B4620462946E8
:1031100025F094FF02460B463BA1D1E9000125F0C2
:103120008DFFBBF1000F3FF711AF01F100431946CE
:1031300003B0BDE8F08F36A3D3E9002326F036F9BB
:1031400002460B462046294614461D462CA3D3E9C9
:10315000002326F02BF902460B462046294625F08F
:103160006FFF03B0BDE8F08F02460B46404649466C
:1031700026F01CF942464B4625F062FF02460B46FC
:1031800025F05EFF1EA3D3E9002325F057FF02467A
:103190000B461FA1D1E9000125F050FFC1E72046F1
:1031A0002946D3E6AFF300809C7500883CE4377E67
:1031B00009F7FD0DE13D023F88B20175E0EF493F9F
:1031C0003B8F68B52882A43F5544880E55C1C93F3E
:1031D0007D6FEB0312D6D43F555555555555C53F18
:1031E00082922EB1C5B8B33F59018D1B6C06E63FE4
:1031F000C88A599CE52A00404B2D8A1C273A034077
:10320000075C143326A6913C182D4454FB21E93F5A
:10321000182D4454FB21F93FFFFFEF3FFFFFDF3F35
:103220000000F03F0000E03F3233EF3F02460B4624
:1032300026F0BCF837A3D3E9002306460F4626F054
:10324000B5F836A3D3E9002325F0FAFE32463B4613
:1032500026F0ACF833A3D3E9002325F0EFFE324685
:103260003B4626F0A3F831A3D3E9002325F0E8FE7E
:1032700032463B4626F09AF82EA3D3E9002325F0E8
:10328000DDFE32463B4626F091F82CA3D3E900231D
:1032900025F0D6FE32463B4626F088F829A3D3E92E
:1032A0000023804689463046394626F07FF827A31A
:1032B000D3E9002325F0C2FE32463B4626F076F8DD
:1032C00024A3D3E9002325F0BBFE32463B4626F07B
:1032D0006DF822A3D3E9002325F0B0FE32463B4629
:1032E00026F064F80A4B002225F0AAFE02460B469F
:1032F0004046494626F084F922462B4626F056F8E9
:1033000022462B4625F09CFE03B0BDE8F08F00BF9F
:103310000000F03F09F7FD0DE13D023F88B2017565
:10332000E0EF493F3B8F68B52882A43F5544880EA3
:1033300055C1C93F7D6FEB0312D6D43F5555555546
:103340005555C53F82922EB1C5B8B33F59018D1B6B
:103350006C06E63FC88A599CE52A00404B2D8A1C22
:10336000273A0340000000002DE9F84FC44E21F039
:103370000043B34204460D460DD903F1404303F523
:103380008013034340F0B980002940F3C08000203F
:103390000021BDE8F88FBB4EB34208D8BA4A934229
:1033A00000F2BA809CA1D1E90001BDE8F88F0029A4
:1033B000C0F2708122462B46B449002025F03EFE23
:1033C000B34B002225F0F2FF04460D461EF06AFEC4
:1033D00093A3D3E90023894680462946204625F059
:1033E000E5FF91A3D3E9002325F02AFE22462B46D0
:1033F00025F0DCFF8EA3D3E9002325F01FFE224633
:103400002B4625F0D3FF8CA3D3E9002325F018FE2B
:1034100022462B4625F0CAFF89A3D3E9002325F0D5
:103420000DFE22462B4625F0C1FF87A3D3E90023DA
:1034300025F006FE22462B4625F0B8FF84A3D3E9EB
:10344000002382468B462046294625F0AFFF82A303
:10345000D3E9002325F0F2FD22462B4625F0A6FFF6
:103460007FA3D3E9002325F0EBFD22462B4625F070
:103470009DFF7DA3D3E9002325F0E0FD22462B46E6
:1034800025F094FF814B002225F0DAFD02460B4621
:103490005046594626F0B4F842464B4625F086FF82
:1034A000002682468B4632464B463046494625F03A
:1034B0007DFF02460B462046294625F0BFFD3246D9
:1034C00004460D464B464046494625F0B9FD0246A6
:1034D0000B462046294626F093F802460B465046F6
:1034E000594625F0ADFD32464B4625F0A9FD024672
:1034F0000B4625F0A5FDBDE8F88F02460B4625F0EA
:103500009DFD02460B4626F07BF8BDE8F88F58A1DA
:10351000D1E90001BDE8F88F02460B4625F046FFD1
:103520003FA3D3E9002306460F4625F03FFF3EA305
:10353000D3E9002325F084FD32463B4625F036FFD3
:103540003BA3D3E9002325F079FD32463B4625F025
:103550002DFF39A3D3E9002325F072FD32463B4607
:1035600025F024FF36A3D3E9002325F067FD32467A
:103570003B4625F01BFF34A3D3E9002325F060FD73
:1035800032463B4625F012FF31A3D3E900238046A3
:1035900089463046394625F009FF2FA3D3E9002399
:1035A00025F04CFD32463B4625F000FF2CA3D3E925
:1035B000002325F045FD32463B4625F0F7FE2AA3C1
:1035C000D3E9002325F03AFD32463B4625F0EEFED6
:1035D0002E4B002225F034FD02460B46404649465C
:1035E00026F00EF822462B4625F0E0FE02460B465A
:1035F00021A1D1E9000125F021FD02460B4620461C
:10360000294625F01BFD02460B4603A1D1E9000126
:1036100025F014FDBDE8F88F182D4454FB21F93F27
:1036200009F7FD0DE13D023F88B20175E0EF493F2A
:103630003B8F68B52882A43F5544880E55C1C93FC9
:103640007D6FEB0312D6D43F555555555555C53FA3
:1036500082922EB1C5B8B33F59018D1B6C06E63F6F
:10366000C88A599CE52A00404B2D8A1C273A034002
:10367000182D4454FB210940075C143326A6913CC5
:10368000FFFFEF3FFFFFDF3F0000603C0000F03F27
:103690000000E03F5E4B002225F0D2FC5D4B002293
:1036A00025F084FE42A3D3E9002304460D4625F00D
:1036B0007DFE41A3D3E9002325F0C2FC22462B4620
:1036C00025F074FE3EA3D3E9002325F0B7FC224683
:1036D0002B4625F06BFE3CA3D3E9002325F0B0FC7C
:1036E00022462B4625F062FE39A3D3E9002325F0BC
:1036F000A5FC22462B4625F059FE37A3D3E900232B
:1037000025F09EFC22462B4625F050FE34A3D3E93B
:10371000002306460F462046294625F047FE32A3E1
:10372000D3E9002325F08AFC22462B4625F03EFEF5
:103730002FA3D3E9002325F083FC22462B4625F056
:1037400035FE2DA3D3E9002325F078FC22462B4635
:1037500025F02CFE2E4B002225F072FC8046894677
:10376000204629461EF09EFC424604460D464B4626
:103770003046394625F044FF22462B4625F016FEFA
:103780001FA3D3E9002325F059FC22462B4625F040
:1037900057FC02460B4625F053FC02460B461AA185
:1037A000D1E9000125F04AFCBDE8F88FAFF30080B5
:1037B00009F7FD0DE13D023F88B20175E0EF493F99
:1037C0003B8F68B52882A43F5544880E55C1C93F38
:1037D0007D6FEB0312D6D43F555555555555C53F12
:1037E00082922EB1C5B8B33F59018D1B6C06E63FDE
:1037F000C88A599CE52A00404B2D8A1C273A034071
:10380000075C143326A6913C182D4454FB21094033
:103810000000F03F0000E03F2DE9F04F9B46D64B03
:1038200021F000479F4287B09246804689460E4667
:1038300051D826F06BF80446002871D1109B4246FF
:10384000013313433B4300F0E581109B012B00F053
:10385000EE8152465B464046494625F0F1FB0B4659
:103860000246C64900201F4625F0CAFE42464B4686
:10387000804689462046394625F0E0FB02460B4645
:103880005046594625F0DAFB22464B4625F08EFD80
:1038900002460B4616462046224639461F464B46F0
:1038A00025F084FDB64B002225F0CAFB02460B46EC
:1038B0003046394625F0C4FB42464B4625F076FD9E
:1038C00022464B4625F0BCFB04460D4620462946C1
:1038D00007B0BDE8F08FAB4B9F4221D9002905DA34
:1038E00001F1004399460BF100439B4642464B468B
:1038F00083A1D1E9000125F0A1FB52465B460446B5
:103900000D4681A1D1E9000125F098FB22462B4606
:1039100025F096FB4FF0000A804689464FF0000BD9
:1039200042464B464046494625F040FD02460B467E
:10393000CDE9002325F03AFDDDE9002304460D46DC
:103940004046494625F032FD71A3D3E90023CDE975
:1039500002012046294625F029FD6FA3D3E9002363
:1039600025F06EFB22462B4625F020FD6CA3D3E903
:10397000002325F065FB22462B4625F017FD6AA3A0
:10398000D3E9002325F05CFB22462B4625F00EFDF3
:1039900067A3D3E9002325F053FB22462B4625F0ED
:1039A00005FD65A3D3E9002325F04AFBDDE90023EB
:1039B00025F0FCFC62A3D3E90023CDE904012046F5
:1039C000294625F0F3FC60A3D3E9002325F038FB5A
:1039D00022462B4625F0EAFC5DA3D3E9002325F01F
:1039E0002FFB22462B4625F0E1FC5BA3D3E9002305
:1039F00025F026FB22462B4625F0D8FC58A3D3E918
:103A0000002325F01DFB22462B4625F0CFFC56A3B4
:103A1000D3E9002325F014FB02460B46DDE904013F
:103A200025F00EFBDDE9022325F0C0FC52465B4683
:103A300025F006FBDDE9002325F0B8FC52465B4685
:103A400025F0FEFA4AA3D3E9002304460D46DDE93A
:103A5000020125F0ABFC22462B4625F0F1FA824606
:103A60008B465B4640464946524625F0E9FA454BAF
:103A70009F4204460D4600F28780109B012B37D0F1
:103A8000002602460B460F4600203C49CDE9006760
:103A900025F0B6FD42460D4604464B46DDE90001E1
:103AA00025F0CCFA02460B465046594625F0C6FA98
:103AB0002B46324625F07AFC2B4680468946324614
:103AC000DDE9000125F072FC2D4B002225F0B8FA4B
:103AD00002460B464046494625F0B2FA22462B469E
:103AE00025F064FC2B46324625F0AAFA04460D4622
:103AF0002046294607B0BDE8F08F00BFAFF3008035
:103B0000182D4454FB21E93F075C143326A6813C61
:103B1000D47ABF74702AFB3EE9A7F0320FB8123F87
:103B200068108D1AF726303F1583E0FEC8DB573F3B
:103B300093846EE9E326823FFE41B31BBAA1AB3FFB
:103B4000735360DBCB75F3BEA69237A0887E143F1B
:103B50000165F2F2D844433F280356C9226D6D3FF8
:103B600037D60684F464963F7AFE10111111C13FD6
:103B7000635555555555D53FFFFF2F3E0000F0BF0B
:103B80000000F03F2794E53F109825F0A5FB224662
:103B9000CDE900012B462046294625F007FC0246C8
:103BA0000B462046294614461D46DDE9002325F034
:103BB00047FA02460B462046294625F021FD52468B
:103BC0005B4625F03BFA02460B464046494625F047
:103BD00035FA02460B4625F033FA02460B46DDE97C
:103BE000000125F02BFA4FEAA67808F002080446F7
:103BF000C8F101000D4625F06FFB02460B4620463A
:103C0000294625F0D3FB04460D462046294607B039
:103C1000BDE8F08F404649461FF0B6F902460B4614
:103C20000020044925F0ECFC04460D4660E74446BC
:103C30004D465DE70000F03F2DE9D04FD04E21F01A
:103C40000043B34284B082468B4601F0004411D950
:103C5000CC4EB34240F2C980CB4EB34240F2BD805D
:103C6000C1F31302024300F0D48102460B4625F053
:103C7000E7F9E4E0C54A934200F2E480C44A934283
:103C800040F245810024C34B00225046594625F09E
:103C90008DFB06460F4632463B465046594625F0B8
:103CA00085FB9FA3D3E900238046894625F07EFB50
:103CB0009DA3D3E9002325F0C3F942464B4625F0E6
:103CC00075FB9BA3D3E9002325F0B8F942464B4688
:103CD00025F06CFB98A3D3E9002325F0B1F9424607
:103CE0004B4625F063FB96A3D3E9002325F0A6F904
:103CF00042464B4625F05AFBA74B002225F0A0F97F
:103D000002460B4630463946CDE9002325F04EFBEE
:103D100002460B460020A14925F090F906460F46C1
:103D200032463B46DDE9000125F088F932463B4644
:103D300006460F465046594625F038FB02460B46CC
:103D40000020974925F07AF902460B46304639465D
:103D500025F056FC42464B4625F028FB02460B4612
:103D6000002C5ED0DDE9026732463B4625F066F95D
:103D700052465B4625F01AFB32463B4625F05EF97B
:103D80004B46424625F05AF9631C06460F4600F0A2
:103D90003181012C00F00A81631C392B4FEA045653
:103DA00000F2A480132C00F3458152465B464FF489
:103DB000001725F043F947FA04F4C4F17F594FF096
:103DC000000809F5401902460B464046494625F0D1
:103DD00035F9711804B0BDE8D08F5BA3D3E9002397
:103DE00025F074FD002840F04681002C53D058A3E4
:103DF000D3E900235046594625F022F9002200233A
:103E000025F046FD002840F0078153A3D3E90023A5
:103E10005046594625F0CAFA02460B460020614931
:103E200044E05046594625F0C1FA42464B4625F03B
:103E300005F902460B465046594625F0FFF804B0F6
:103E4000BDE8D08F584A934200F2E98044A3D3E9F9
:103E50000023002C00F0C48025F0F2F80FF20819BE
:103E6000D9E9008906460F464FF0FF3442464B46DB
:103E70003046394625F0E2F882468B4652465B468C
:103E80003046394625F0DAF842464B4625F0D6F85A
:103E9000CDE90201F7E630A3D3E9002350465946A5
:103EA00025F084FA0B463B490246002025F0C8F86D
:103EB00025F02CFD044625F00FFA29A3D3E90023B1
:103EC0008046894625F072FA02460B46504659460E
:103ED00025F0B4F826A3D3E9002306460F46404652
:103EE000494625F063FA80468946BFE752465B465D
:103EF00025F0A4F802460B460020274925F09EF83D
:103F0000731819460022244B25F098F897E71AA356
:103F1000D3E9002325F094F802460B4687E700BF5B
:103F20002DC3096EB7FD8ABE3952E686CACFD03E90
:103F3000B7DBAA9E19CE143F8555FE19A0015A3F42
:103F4000F41011111111A13FEF39FAFE422E8640F3
:103F500059F3F8C21F6EA501FE822B654715F73F86
:103F60000000E0FE422EE63F763C7935EF39EABDAF
:103F7000763C7935EF39EA3D9C7500883CE4377E24
:103F800079684340412E8640FFFFEF7F422ED63FA7
:103F9000FFFF8F3C0000E03F0000F03F00000840C2
:103FA000000018400000E0BFB1A2F03F3A4B0022F1
:103FB0005046594625F06CFC00284DD0374B5046F2
:103FC0005946002225F03CF802460B463046394659
:103FD00025F034F800224FF0404325F0E7F92EE7B2
:103FE00025F02CF80FF2A009D9E9008906460F4602
:103FF00001243BE702460B465046594625F01EF881
:10400000264B002225F0D2F9244B002225F016F889
:1040100015E7002C3FF413AF214900200FE71CA344
:10402000D3E9002325F0C2F902460B46002044B331
:104030001C493BE7C4F57F7403342305002224F0B8
:10404000FFFF02460B465046594624F0F7FF164B39
:10405000002224F0F5FFBCE632463B465046594666
:1040600024F0ECFF02460B4624F0EAFF0E4B002240
:1040700024F0E6FFE3E6002004B0BDE8D04F1EF0D8
:10408000B1BF064912E700BF763C7935EF39EA3D0A
:10409000FE822B654715F73F0000D0BF0000E03FD0
:1040A0000000F0BF0000E0BF0000F03F0000000093
:1040B000594A2DE9F84321F00046964204460D4640
:1040C0005CD8564B0029ACBFDFF86891DFF86C91E3
:1040D0009E424FF0000812D9514B9E4240F28E8012
:1040E000504B9E4256D901339E4250D048A3D3E94B
:1040F00000232046294625F059F9BDE8F8834A4BAC
:104100009E425ED842A3D3E9002324F099FF474B97
:10411000002225F0DBFBB8BB204629461EF034FF09
:10412000FFF78AFD04460D4622462B4620462946C7
:1041300024F086FF224606460F462B462046294697
:1041400025F034F902460B462046294614461D4602
:104150000022364B24F074FF02460B4620462946C7
:1041600025F04EFA02460B463046394624F066FFEB
:1041700042464B4625F01AF9BDE8F88302460B4645
:1041800024F05EFFBDE8F88320462946FAE7284B75
:104190009842ABD8204629461EF0F6FE254B002259
:1041A00025F004F9FDF7A4FE04460D4622462B46F1
:1041B0004046494625F0FAF822462B4625F0F6F807
:1041C000E0E71EF0E1FEFFF737FD184B0022044642
:1041D0000D4624F035FF0B4617498E420246A3D9FF
:1041E0002046294625F00CFA22462B4624F028FFCB
:1041F00042464B4625F0DAF8BDE8F8831EF0C4FECF
:10420000FDF776FE42464B4625F0D0F8BAE700BFF0
:104210003374AC3C1F7BAC7FFFFFEF7FFFFF35406B
:10422000412E8640CD338640FFFF2F3E0000F03FF9
:104230007DF8B98F0000E03FFFFFEF3F0000E0BFD7
:1042400038B5124B1D682A6B04461AB10023C2E927
:10425000044338BD18200BF049FD0246286378B1AD
:1042600001200021C2E90401094B0A480A49916072
:10427000C2E900030B2393810023C2E9044338BD44
:10428000064B0748462120F0E3FB00BF8C000020CE
:1042900034126DE60E33CDABECDE0500B002030048
:1042A000C80203001C4B10B51C68226B8AB113694D
:1042B0001A4954691A4803FB01F100FB0411A3FBDE
:1042C0000030013341EB0001C2E9043121F000402C
:1042D00010BD18200BF00AFD0246206388B1114C76
:1042E000114B0E48114991609FED097BC2E90043D3
:1042F0000B2393810E4B014682ED047BC2E904310E
:1043000010BD0C4B0C48522120F0A2FBAFF30080F3
:1043100001000000000000008C0000202DF4515826
:104320002D7F954C0E33CDAB34126DE6ECDE0500DF
:104330002E7F954CB0020300C8020300000000006D
:104340002DE9F04F9FB00F46002107921A910022ED
:104350000021CDE9041283463A461992904612F89C
:1043600001ABBAF12D0F5FD801A151F82AF000BFBF
:10437000B9450000294400002944000029440000F8
:104380002944000029440000294400002944000079
:10439000294400005B4300005B4300005B430000D6
:1043A0005B4300005B4300002944000029440000F7
:1043B0002944000029440000294400002944000049
:1043C0002944000029440000294400002944000039
:1043D0002944000029440000294400002944000029
:1043E0002944000029440000294400002944000019
:1043F0005B430000294400002944000029440000D8
:1044000029440000294400002944000029440000F8
:104410002944000029440000294400007548000098
:10442000294400008F48000000220892BAF1300FA2
:1044300000F0858000230993BAF12F0F564640F211
:1044400012854FF0000940464D464C4618E0082CB6
:10445000C8BF09EB890900F10100C8BF0AEB490A8E
:104460001990C8BFAAF1300990F800A0D8BFA3F1F5
:104470003005BAF12F0F04F10104564640F3A8802D
:1044800005EB8503BAF1390F0AEB4303DFDDAC49D5
:10449000012222F0C1FC002868D11998431C19930D
:1044A000417818460A46002C40F0EB80302A08BFBD
:1044B000034640F0D7851946013319931A78302AFC
:1044C000F9D0C0F101000144A2F13100082800F246
:1044D000C68101310F910021303A98460A9101249A
:1044E00005EB850502EB450500210133199318788A
:1044F000A0F13002092A01F1010600F27E84002AAF
:1045000000F08C870F98012E30440F9000F08487C4
:1045100004F1010C604606E075000130061B013E07
:10452000B14240F38F84461E082E05EB8506F3DD6D
:104530001028DCBF09EB89094FEA4909EDE798F833
:10454000012002F0DF02582A18BF434600F012840F
:104550000133199393F800A0BAF1300FF8D09846C0
:10456000BAF1000F0ED00123099365E7BAF1650F88
:104570001AD0BAF1450F17D0002C2FD1099B002B70
:1045800000F0BC804FF000084FF00009079A0AB114
:10459000199B1360089BB3B109F10043994640464B
:1045A00049461FB0BDE8F08F002C78D10A940F94D3
:1045B000099B002B40F0E2824FF000084FF0000909
:1045C000079B03B11F60404649461FB0BDE8F08F0E
:1045D0005B49012222F020FC00284ED0284624F01E
:1045E0006BFE092CCDE9040140F3CD820023102C91
:1045F000A2460E93A8BF4FF0100A0A9412930F938D
:10460000504B03EBCA0353E9122324F0CFFE0646B6
:1046100048460F4624F050FE02460B4630463946C7
:1046200024F00EFD0F2CCDE9040100F3AC800E9BAD
:10463000002B00F0A8820E9B40F38E82162B40F3D5
:1046400065840E9AC4F125039342C0F29C803D4DCF
:10465000C4F10F0405EBC401DDE90423D1E9000135
:1046600024F0A4FE0E9B1C1B05EBC405D5E900231A
:1046700024F09CFE8046894688E7199A531C1993BA
:104680005178A1F13000092800F2DE8002460028AE
:1046900000F0BD8601210A94A4460F91D4E30021C5
:1046A000199B0A940F918C465A1C19925E782B2EF6
:1046B00000F0C7802D2E00F0BE804FF0000AA6F15A
:1046C0003007092F37D8302E199A40F0E580013293
:1046D00019921678302EFAD0A6F13100082840F24F
:1046E000D98000221292002C34D1099A0A437FF417
:1046F00049AFBCF1000F40F03F841F46692E00F027
:10470000188400F31184492E00F013844E2E7FF498
:1047100053AF0D4919A822F055FD00283FF44CAFC6
:10472000199B1B78282B00F06D8508481EF002FEAF
:10473000804689462AE7002219931292D3E700BFE8
:1047400034030300A8EE02004403030094020300B4
:10475000002312930A9A1346002A08BF23460A939D
:104760000F9A129B102CA3EB020328460E93A2462D
:10477000A8BF4FF0100A24F09FFD092CCDE90401D9
:104780003FF73EAF53E70E9BA4EB0A0A9A44BAF1F7
:10479000000F40F3A9802AF00F071AF00F0A40F02B
:1047A0004283B7F59A7F00F3DC83102FDFF880A1F6
:1047B0004FEA271600F04C85DDE904234FF0000C8A
:1047C0005746E14616F0010F1046194607D0D7E9C3
:1047D000002324F0EBFD4FF0010C02460B4676104F
:1047E000012E09F1010907F10807EBD1BCF1000F17
:1047F00001D0CDE90423059BA3F1547305930AEB83
:10480000C90ADDE90423DAE9000124F0CFFD454BB4
:10481000CDE904010B400A4643498B4200F2A183D3
:10482000A1F580118B4240F2AF84404B4FF0FF3234
:10483000CDE904235AE04FF0010A9A1C19929E78A0
:104840003DE74FF0000AF8E701F0DF0145297FF46A
:10485000C5AE00210A940F914FF0010C24E702F03D
:10486000DF02452A7FF48EAE00240A940F944FF0A5
:10487000010C19E70022089208F10102199298F838
:1048800001A0BAF1000F3FF497AE9046CEE50122A9
:104890000892F1E7A6F13007501C199056782F2E98
:1048A00040F3F68286460E9208E0013019909EF899
:1048B00001602F2EA2F1300706DD864607EB870246
:1048C000392E06EB4202F0DD0E9A801A082840F3DA
:1048D000DF8244F61F621292BAF1000F3FF403AF79
:1048E000129A52421292FEE640F0D98200230993B6
:1048F0000A9A009523464146584623F097F91390AB
:10490000002800F02E830F9B129A9B1A0E9A002A01
:10491000A8BF00230F9322EAE272002314921E46DE
:104920009946DAE00000F07F0000A07CFFFFEF7FF7
:1049300098EF0200D21A1F2AA4EB020400F396811A
:1049400001239340109300231593099B25443C4475
:10495000A7421D443B46A8BF2346AB42A8BF2B46F7
:10496000002B02DDE41AED1AFF1A0F9B002B00F357
:104970001D81002C00F334810E9B002B00F36C8111
:10498000002D00F35A81002F08DD31463A46584683
:1049900023F054FB0646002800F058811A9952462D
:1049A000584623F0DFFB8146002800F04F810023AA
:1049B000C268C3603146129223F0B2FB0028C0F2F5
:1049C000E883059B984600F08C833146484623F0E7
:1049D00065FD00224FF0804304460D4624F062FF3F
:1049E000002800F0D380129B002B40F04C81049BE8
:1049F000002B40F0EF81C8F31303002B40F08A81B5
:104A0000A94B00222046294624F042FF002840F00E
:104A10003883A64B00222046294624F0C7FC0A46CC
:104A20000146CDE9101202F100430C900D93A04F06
:104A3000A04B08EA07079F42DDE90C4500F04281E0
:104A4000099B13B3B7F1D46F1FD893A3D3E9002305
:104A5000DDE9100124F026FFA0B1DDE9100124F00A
:104A60007DFF012838BF012024F026FC129BCDE9F0
:104A70001001002B40F0878201F10043169017933C
:104A8000DDE9164505F1D663DD1BDDE90A0123F0FA
:104A900023FC02460B462046294624F087FCDDE92C
:104AA0000A2324F0CDFACDE904010C46099B23B971
:104AB0007F4B23409F4200F036811A99584623F0DD
:104AC00043F85146584623F03FF83146584623F004
:104AD0003BF84946584623F037F8139C584661681E
:104AE00022F0F2FF8246002800F0B08022690232F4
:104AF000920004F10C010C301FF0E2FE9DED047BEE
:104B00001CAB01931BAB0093584653EC172B8DED58
:104B10000A7B23F067FC1A9000286AD001215846CE
:104B200023F048F90646002800F090801B9B002BDC
:104B30007FDB0F9A149D9F18099A1C9C9B1A234493
:104B40005D4A013B9342C4F13604FFF6F3AE002305
:104B5000159301231093F8E61633FFF614AE0F9B5E
:104B6000129A9A1A554B03EBC203DDE90401D3E90B
:104B7000002324F045FD8046894607E5A44600242D
:104B8000199B214690E5DDE90489FFE4474B204667
:104B90002946002224F00AFC129BCDE91001002BCB
:104BA0006CD101F100430C900D9340E731461A4659
:104BB000584623F0CBF906461A98D6B1024631463C
:104BC000584623F00DF9034612931A988BB101460B
:104BD000584622F0B9FF129B1A93002C7FF7CCAEF7
:104BE0001A992246584623F029FA1A9000287FF491
:104BF000C3AE5746CDF83890B2462223DFF8B090C6
:104C0000CBF800304FF000080146584622F09CFFD8
:104C10003946584622F098FF5146584622F094FFF4
:104C20001399584622F090FF0E99584622F08CFFB7
:104C3000ACE4149A0F9FD51A7EE751462A4658468F
:104C400023F0FCF9824600287FF49DAE57461A985F
:104C5000CDF83890B246D0E75146149A584623F022
:104C600075F9824600287FF48BAEEFE7144AD21A1A
:104C7000012303FA02F21592109366E69DED107B74
:104C80008DED0C7BD3E69FED067B8DED0C7B8DEDE2
:104C9000107BCCE6AFF300800000C0FFFFFFDF41D8
:104CA000000000000000F03F0000F03F0000E03F87
:104CB0000000F07F0000E07F02FCFFFFA8EE020092
:104CC000E2FBFFFFA8F154730593DDE9044520469C
:104CD000294623F001FBDDE90C2324F067FB224683
:104CE0002B4624F0ADF9B44AB44B0A409A42CDE9C0
:104CF000040140F29480DDE90A0103F15473994202
:104D000002D1B0F1FF3FA1D0AD4C4FF0FF33CDE960
:104D10000434D2E69FED9E7B8DED0C7B9FED9E7B58
:104D20008DED107B83E6DDE910783846414624F0AE
:104D30009DFE24F00DFB02460B463846414624F00A
:104D40007DF9049F129DC4F313043D432C43074691
:104D500088462DD192A3D3E9002324F099FD0028A1
:104D60003FF4ABAECDF83890DDE904895746B24642
:104D70001A9849E70293089B01931AAB0093914A52
:104D80001BAB19A9584620F017F910F00F0504467F
:104D90003FF4F8AB062D40F0218108F1010319938F
:104DA00000234FF000084FF000090893FFF7EEBB17
:104DB0007DA3D3E9002324F06BFD0028D2D17CA38E
:104DC000D3E900233846414624F080FD00283FF413
:104DD00074AEC7E7049B012B9CD14346002B99D1AD
:104DE0005746CDF83890B24622231A98CBF80030B7
:104DF0004FF000084FF0000906E700F0DF004528FB
:104E000000F0B380002C7FF4A3AC099B19434FF052
:104E100000084FF000093FF4D3ABFFF7B7BB01F137
:104E20005474059442E6684901EBCA01DDE90423A4
:104E3000D1E9000124F0BAFACDE90401002F3FF4D2
:104E400055ADAEE401398C44BCF1080F0CF10104FE
:104E50007FF746AB102CDCBF09EB890902EB49094F
:104E60000021FFF742BB59490122404621F0D4FFFF
:104E700040B9814619980346013019905A784D4639
:104E8000FFF714BB099B002B3FF496ABFFF77ABBEF
:104E900044F61F629742A8BF174612971CE5CAF155
:104EA000000A4FEA2A171AF00F0A0DD0464B03EBFF
:104EB000CA03DDE90401D3E9002324F0A1FBCDE915
:104EC0000401002F3FF412AD1F2F00F30581DDE92F
:104ED000042317F0100118BF6A2117F0010F099180
:104EE0003B4E104619460FD0D6E9002324F05EFA57
:104EF0007F1002460B4600F0D28017F0010F06F13A
:104F0000080610461946EFD17F10F6E70E982E4995
:104F100001EBC001DDE90423D1E9000124F046FAE8
:104F200080468946FFF732BB6E2E3FF4F2ABFFF7A7
:104F300043BB284919A822F045F900283FF43CABAF
:104F4000199B2549013B19A8199322F03BF910B987
:104F5000199B01331993DFF860904FF00008FFF7B9
:104F600015BB2223CBF80030F5E7002C00F03A8285
:104F70004FF0010CFFF798BB4FF000084FF000090D
:104F80001F46FFF71DBB9DED107B8DED167B77E572
:104F9000000000000000F0BF000000000000F03F33
:104FA0009535A094FFFFCF3F9535A094FFFFDF3FDD
:104FB00035E5AF350000E03F0000F07FFFFF9F7C4C
:104FC000FFFFEF7F48EE0200A8EE0200340303006B
:104FD00070EE0200380303003C0303001A9A3AB152
:104FE00035211CA823F0A4FA1A99584622F0ACFDEA
:104FF000013D042D00F21582DFE805F0032E2B2081
:1050000003001C9B04931B9B03F233421D9B23F460
:10501000801343EA02530593E20502D543F00043AF
:105020000593B34A1A40DDE90489002A7FF4AEAA49
:1050300021F060FF22230360FFF7A8BA4FF0FF3290
:105040006FF00043CDE90423E3057FF59CAD059B9C
:10505000E4E7A74B0593F7E7DDE91C121D9BCDE9BB
:105060000412D9E7A2F13103082B13D922F0200250
:10507000452A7FF407AF00230A930F930124FFF71B
:1050800097BA9FED977B8DED0C7B9FED977B8DED18
:10509000107BCCE4012103460F91FFF71CBA099B5A
:1050A000CDE904017BB1C1F30A52C2F16B03002BBD
:1050B00009DD1F2B40F3FD80342B049740F36481FE
:1050C0004FF05C730593DDE904010022002324F016
:1050D000D5FB00283FF40CAC2223CBF80030FFF7BF
:1050E00051BA5746C3F31302B2461E46129BCDF87F
:1050F0003890DDF840C0DDF854E07E49DDE90A89EA
:10510000002B00F093808A4200F0FA80BEF1000F7D
:1051100000F0E0801EEA060F32D04046494623F0F8
:10512000DBF8099B002B00F03781C6F30A53C3F16B
:105130006B03002B40F353811C0504F17F530022C5
:1051400003F5401324F032F902460B464046494627
:1051500023F076FF80468946674B40464946002249
:1051600024F024F9624B0B4080468946002B7FF4E3
:10517000FFAD2223CBF80030FAE51EEA060F72D10C
:10518000099B002BE8D1F3E502F154730593FFF777
:10519000ADBBDDE90445129ACDF83890224357465D
:1051A0004B46B246DDE90A89EAD1C5F313022E4621
:1051B000002AE5D125F00044240D2405B4F1D66F72
:1051C000DED95A6912B91A69012AD9DD0E9901226C
:1051D000584622F033FF51460E9022F0A1FF0028DE
:1051E000CEDD099B002B00F0AB80A4F580146FEAA4
:1051F00014536FEA035305934FF0FF330493DDE933
:105200000489A9E73D4919A81CAA21F0F7FF052840
:105210007FF48BAA1D9B43F0FF4343F4E003059307
:105220001C9B0493DDE90489FFF7B0B9A2B9DDE95D
:105230000434002B45D1099B002B00F081802C4CBD
:105240003440B4F1D66FD0D8B4F15C7F84D8CBE5CC
:105250004FF00009FFF7CFBABEF1000F8DD1049BCC
:105260001CEA030F8CD04046494623F035F8099BD1
:10527000002B55D0C6F30A53C3F16B03002B40F348
:10528000AB801C0504F17F53002203F5401324F08A
:105290008DF802460B464046494623F0CFFE0022D9
:1052A00000238046894624F0E9FA00283FF454AFF1
:1052B0009AE54FF0FF3202FA03F3049A1A4004927F
:1052C00001E7BEF1000F7FF458AF13EA0C0F3FF473
:1052D00057AFC8E7049B1CEA030F3FF451AF1CE72C
:1052E000000000000000E0BF000000000000E03F00
:1052F0000000F07FFFFF0F00000050395CEE02005D
:10530000DDE90445099B214653BB234601332ED0DA
:10531000BEF1000F6AD01EEA060F3FF429ADFCE68D
:1053200002460B464046494623F088FE00220023F1
:105330008046894624F0A2FA00283FF419AD53E5CF
:105340003E4A1A983240A2F580126FEA12536FEA71
:10535000035305934FF0FF330493DDE9048953E4CD
:10536000364A3240B2F1D46F20D9621C27D1344A78
:10537000964240D0314A324002F580130593002313
:105380000493DDE90489FBE6C2F14B024FF0FF33E1
:1053900093400B40059396E602460B46404649462D
:1053A00023F04EFE804689461A982DE4120DC2F174
:1053B0006B024FF0FF3000FA02F29442D7D0BEF1F8
:1053C000000F04D01EEA060F3FF4C6AEA5E611EAB0
:1053D0000C0F3FF4C1AEA0E602460B465BE7024667
:1053E0000B46B3E600293FF449AEC1E514EA0C0FC1
:1053F0003FF4BEAC91E60131BCD122231A98DFF80C
:105400003C90CBF800304FF00008FFF7FDBB0F9049
:105410000A940121FFF769B8A44615E53146FFF764
:1054200064B8E10505D54FF000430593DDE9048933
:10543000FEE54FF000084FF00009F9E50000F07FAD
:10544000FFFFEF7F014BFEF77BBF00BFE8000020AE
:1054500010B4054C8446134620685DF8044B0A4698
:105460006146FEF76DBF00BF8C00002010B4054CF4
:10547000054B84460A4620685DF8044B6146FEF7FA
:105480005FBF00BF8C000020E80000202DE9F04144
:10549000DFF8A480044613462DED028B0A46D8F8A7
:1054A00000002146FEF74CFF02460B4604460D461F
:1054B00024F016FA50BB2046294624F06FFA08EE75
:1054C000100ADFED1A7AB0EEC87AB4EE677AF1EE20
:1054D00010FA15DD25F00047154B4FF0FF3220463E
:1054E000394624F0FDF938B9114B4FF0FF32204610
:1054F000394624F0D7F918B1D8F8003022221A60C2
:1055000018EE100ABDEC028BBDE8F081002D0948B1
:1055100006DA1EF03BFF07EE900AB1EE678AEFE76E
:10552000BDEC028BBDE8F0411EF030BFFFFF7F7F76
:10553000FFFFEF7F940203008C0000202DE9F84369
:10554000264F274B04460A4638682146FEF7F8FEE8
:1055500002460B4604460D4624F0C2F988BB20469D
:10556000294624F01BFA07EE100ADFED1E7AB0EE92
:10557000C77AB4EE677AF1EE10FA064617DD25F029
:105580000049194B4FF0FF322046494624F0A8F954
:1055900038B9154B204649464FF0FF3224F082F9C6
:1055A00028B13B6822221A603046BDE8F88316F025
:1055B000FF4FF9D10D4B2B40002BF2D13046BDE807
:1055C000F883002D0A4804DA1EF0E0FE80F0004661
:1055D000EAE7BDE8F8431EF0D9BE00BF8C0000200A
:1055E000E8000020FFFF7F7FFFFFEF7F0000F07FDC
:1055F000940203000348044B834202D0034B03B1DF
:105600001847704780020020800200200000000040
:105610000548064B1B1AD90F01EBA301491002D014
:10562000034B03B11847704780020020800200201E
:105630000000000010B5064C237843B9FFF7DAFFED
:10564000044B13B10448AFF300800123237010BD55
:1056500060180020000000001846030008B5044B45
:105660001BB104490448AFF30080BDE80840CFE710
:10567000000000006418002018460300A3F5803ADB
:10568000704700BF154B002B08BF114B9D46FFF71D
:10569000F5FF00218B460F461148124A121A21F0DD
:1056A00019FB0C4B002B00D098470B4B002B00D064
:1056B00098470020002104000D000B4803F0CCF8AF
:1056C00021F0ECFF2000290002F082FA21F04AFDCF
:1056D00000000800000000000000000000000220A0
:1056E00000040020441D0020994802006FF47D70E2
:1056F000704700BF6FF47D70704700BF6FF47D701E
:10570000704700BF6FF47D70704700BF6FF47D700D
:10571000704700BFC08800F00500003818BF0120A6
:10572000704700BFC08800F00A00003818BF012091
:10573000704700BFC08810F0030018BF01207047F9
:10574000C08800F00C00003818BF0120704700BF6F
:105750006FF47D70704700BF6FF47D70704700BFBD
:105760006FF47D70704700BF6FF47D70704700BFAD
:105770006FF47D70704700BF6FF47D70704700BF9D
:105780006FF47D70704700BF6FF47D70704700BF8D
:10579000704700BF064B10B50446D3F830090368C4
:1057A0005B6A98470146204625F0BBFC012010BDEE
:1057B00000050020064B10B50446D3F82C090368F9
:1057C0009B6A98470146204625F0ABFC012010BD9E
:1057D00000050020064B10B50446D3F82C090368D9
:1057E0001B6A98470146204625F09BFC012010BD0E
:1057F000000500202DE9F04182B0012102AF0546ED
:1058000027F0CDFD02218046284627F0C8FDC31DA4
:1058100023F00703ADEB030D6E46002346F8083B6B
:105820000446034632460A4841460BF00BFA30B1B3
:105830000849284627F030FDBD46BDE8F0812846DE
:105840002246314625F079FC0120BD46BDE8F081B5
:10585000000C0020C0EF020010B5044602F084FEE8
:105860000146204625F081FC012010BD30B583B0F3
:105870000F49044601A804F065F80E4901A805F097
:105880005DFD40B1204625F03FFC01A805F012FD6A
:10589000012003B030BD01A805F066FD054601A852
:1058A00005F066FD29460246204625F046FCECE759
:1058B000080E0020CC18002030B583B06A460121C4
:1058C000044627F02FFD009A0023014601A805F0A9
:1058D000F9FC01A9074804F079F8054601A805F08C
:1058E000E9FCB5FA85F12046490925F0A5FC01201F
:1058F00003B030BD080E0020074B10B50446D3F8A6
:1059000030090368DB6A9847B0FA80F149092046FC
:1059100025F092FC012010BD00050020074B10B5BA
:105920000446D3F8300903689B6A9847B0FA80F1BF
:105930004909204625F080FC012010BD000500200B
:1059400010B50121044627F02AFD074B0146D3F884
:10595000300903681B6A9847B0FA80F1490920466C
:1059600025F06AFC012010BD00050020074B10B592
:105970000446D3F830090368DB699847B0FA80F130
:105980004909204625F058FC012010BD00050020E3
:10599000074B10B50446D3F82C0903681B6B9847D6
:1059A000B0FA80F14909204625F046FC012010BDDF
:1059B00000050020074B10B50446D3F82C090368F6
:1059C000DB6A9847B0FA80F14909204625F034FC9B
:1059D000012010BD0005002010B50121044627F06C
:1059E000DEFC074B0146D3F82C0903685B6A984735
:1059F000B0FA80F14909204625F01EFC012010BDB7
:105A00000005002010B50121044627F0C8FC074B13
:105A10000146D3F82C090368DB699847B0FA80F196
:105A20004909204625F008FC012010BD0005002092
:105A300070B50121044627F0B2FC0221054620463C
:105A400027F0ADFC03210646204627F0A8FC32B221
:105A5000C3B229B205480FF03DFFB0FA80F1490901
:105A6000204625F0E9FB012070BD00BF040D002099
:105A700008B5012127F093FC09F012FF002008BDB2
:105A800010B504460CF0FAF90146204625F049FB12
:105A9000012010BD10B50121044627F080FC0AF05A
:105AA00099FA0146204625F03CFB012010BD00BFBD
:105AB00010B50446044803F0C5FE0146204625F013
:105AC00030FB012010BD00BFF00D002010B50121FA
:105AD000044627F064FCC1B2054803F0A1FEB0FA09
