:100000000000022085990100AD990100AF9901001F
:10001000B1990100B3990100B599010000000000F9
:10002000000000000000000000000000B79901007F
:10003000B999010000000000BB990100BD990100C1
:10004000BF990100A19800004D980100119801008E
:1000500025980100BF99010029820100096F010064
:10006000959301009D930100A5930100BF990100A4
:10007000BF990100BF990100BF990100BF9901001C
:10008000BF990100BF990100BF990100BF9901000C
:10009000BF990100BF990100BF990100BF990100FC
:1000A000BF990100BF990100AD930100B593010014
:1000B000BF990100BF99010000000000000000008E
:1000C000BF990100BF990100BF9901003998010053
:1000D000BF990100BF990100BF9901000000000015
:1000E0000000000000000000000000000000000010
:1000F0000000000000000000000000000000000000
:1001000000000000000000000000000000000000EF
:1001100000000000000000000000000000000000DF
:1001200000000000000000000000000000000000CF
:1001300000000000000000000000000000000000BF
:1001400000000000000000000000000000000000AF
:10015000000000000000000000000000000000009F
:10016000000000000000000000000000000000008F
:10017000000000000000000000000000000000007F
:10018000000000000000000000000000000000006F
:10019000000000000000000000000000000000005F
:1001A000000000000000000000000000000000004F
:1001B000000000000000000000000000000000003F
:1001C000000000000000000000000000000000002F
:1001D000000000000000000000000000000000001F
:1001E000000000000000000000000000000000000F
:1001F00000000000000000000000000000000000FF
:1002000030B490F800F020F007016FF0000C10F00F
:10021000070491F820F040F048804FF000046FF0A0
:100220000700D1E9002391F840F000F1080082FABC
:100230004CF2A4FA8CF283FA4CF3A2FA8CF34BBB87
:10024000D1E9022382FA4CF200F10800A4FA8CF200
:1002500083FA4CF3A2FA8CF3E3B9D1E9042382FACE
:100260004CF200F10800A4FA8CF283FA4CF3A2FAE3
:100270008CF37BB9D1E9062301F1200182FA4CF21B
:1002800000F10800A4FA8CF283FA4CF3A2FA8CF382
:10029000002BC6D0002A04BF04301A4612BAB2FAA4
:1002A00082F200EBD20030BC7047D1E9002304F0A9
:1002B0000305C4F100004FEAC50514F0040F91F8DE
:1002C00040F00CFA05F562EA05021CBF63EA05037B
:1002D00062464FF00004AAE70000000000000000A2
:1002E00002780B78012A28BF9A4240F0D8806DE945
:1002F000044540EA0104CDE902676FF0000C4FEAC3
:1003000044721AB380EA010414F0070F6BD100F0B5
:10031000070420F0070004F0030521F007014FEA6D
:10032000C505F0E8042314F0040FF1E804670CFAA3
:1003300005F462EA040266EA04060BD063EA0403E9
:10034000624667EA0407664604E000BFF0E804235B
:10035000F1E8046782FA4CF582EA0604A4FA8CF408
:100360006CBB83FA4CF583EA0705A5FA8CF595B9C1
:1003700050E9022351E9026782FA4CF582EA060449
:10038000A4FA8CF483FA4CF583EA0705A5FA8CF5F8
:100390002543DBD09CB92DBAB5FA85F424F00704C7
:1003A00027FA04F1DDE9026723FA04F303F0FF0002
:1003B00001F0FF01FDE80445A0EB0100704724BAFD
:1003C000B4FA84F424F0070426FA04F1DDE90267A4
:1003D00022FA04F202F0FF0001F0FF01FDE80445FB
:1003E000A0EB0100704714F0030F3CD110F00304A0
:1003F00028D150F8082B51F8083B82FA4CF582EAD4
:100400000305A5FA8CF55DB950F8042C51F8043CAD
:1004100082FA4CF582EA0305A5FA8CF5002DE8D0A6
:100420002DBAB5FA85F424F0070423FA04F122FA70
:1004300004F202F0FF0001F0FF01FDE80445A0EB2B
:10044000010070474FEAC40420F0030050F8082B65
:1004500021F0030151F8083B0CFA04F462EA0402AB
:1004600063EA0403C9E710F003041DD0A1EB040103
:1004700020F00300E40750F8042B06D012D28B784A
:100480005FFAA2F4E41A06D12BB1CB785FFAB2F48A
:10049000E41A00D133B920465DF8104B7047A2EB47
:1004A0000300704701F1040150F8042BCC0721F040
:1004B000030151F8043B48D824D222F07F4482FA49
:1004C0004CF594EA1325A5FA8CF50AD165B951F8D3
:1004D000043B84EA0204B4EB036F0ED150F8042B02
:1004E000EBE74FEA132355E035F07F454DD108780F
:1004F000FDE80445C0F1000070474FEA126203F0C6
:10050000FF0347E002EA1C4482FA4CF594EA1345E3
:10051000A5FA8CF50AD165B951F8043B84EA0204C6
:10052000B4EB034F0CD150F8042BEBE74FEA134325
:1005300030E015EA1C4528D10B884FEA124229E029
:100540004FEA124203EA1C4324E002F0FF0482FA5D
:100550004CF594EA1365A5FA8CF50AD165B951F802
:10056000043B84EA0204B4EB032F09D150F8042BB6
:10057000EBE74FEA13630DE015F0FF0F05D10B68B1
:100580004FEA122223F07F4304E04FF00000FDE821
:100590000445704712BA1BBA82FA4CF482EA03048B
:1005A000A4FA8CF5B5FA85F402FA04F203FA04F31E
:1005B0004FEA1260FDE80445A0EB1360704700BFEE
:1005C00001F0FF01102A2BDB10F0070F08D010F804
:1005D000013B013A8B422DD010F0070F42B3F6D108
:1005E000F0B441EA012141EA014122F007047FF021
:1005F00000070023F0E80256083C85EA010586EA78
:10060000010685FA47F5A3FA87F586FA47F6A5FAB3
:1006100087F68EB9EED1F0BC01F0FF0102F00702BF
:1006200032B110F8013B013A83EA010313B1F8D16A
:100630000020704701387047002D06BF354603384B
:10064000073815F0010F07D1013015F4807F02BF84
:10065000013015F4C03F0130F0BC0138704700BFD5
:100660002DE9F0419FED1E7B214C04609FED1E5B48
:1006700000F502644FF07E55DFED1E6A03F1FF3C8A
:1006800080ED027B4FF00008256000F62807012668
:1006900000F5036500F5046EBCF1030F04ED025B89
:1006A000C0F82488C7ED006A80F82C6885ED007BCF
:1006B0000EED027B05D89C193441C0F81838C0F8FB
:1006C0001C4892B207EE902A00F61402F8EE677A00
:1006D00000F501631160C3ED007ABDE8F08100BF51
:1006E0000000000000000000030000000200000005
:1006F00058120300000000002DE9F04F044683B0BB
:10070000C06828F051FD80462069894628F04CFDDC
:100710006569CDE90001284628F046FD024601F151
:10072000004306460F464046494620F049FE29F060
:100730009DF8E062824621F0EDFF8346504621F0AD
:1007400089FB8246584628F041FD42464B4628F038
:1007500095FD80465046894628F038FD32463B4696
:1007600028F08CFD02460B464046494628F0CEFB59
:1007700002460B46DDE9000120F022FE29F076F862
:10078000002D07EE900A19DDF5EEC07AF1EE10FAB1
:100790001DDD11A7D7E9006717EE900A28F016FDB6
:1007A00002460B463046394628F0B0FB32463B46FF
:1007B00028F0AEFB29F05AF807EE900AE388C4ED62
:1007C0000A7A43F00203E38003B0BDE8F08F04A788
:1007D000D7E90067E0E700BFEA2E4454FB21F93F68
:1007E000EA2E4454FB21F9BF2DE9F0412DED028B97
:1007F000002408EE103A5C4B0360446005460F4647
:100800001646BDF820800EF085FB584B2B6003F197
:100810002C023833EB60AA606F612C8205F12C004A
:1008200015F060FB05F1300015F05CFB9FED507A90
:10083000504B68696E63C7EE087AA5F80480EC61D6
:100840002C852C83C0F80045B0EE677ABEEECE7AD8
:1008500017EE101A9FED427BB1F5004F83ED007B40
:1008600083ED027B234678DB013341FA03F4B4F5D0
:10087000004FF9DA072B15DC04FA03F10029B8BFA1
:100880000F31091107EE901ADFED396AC0F80C3507
:10089000F8EEE77AC0F8084586EEA77AC5ED097A42
:1008A00085ED087A00230222C0F804353249C0F8E9
:1008B0001025C0F84835C0F82835C0F84C35C0F8C8
:1008C0002C3540F201136B830123C0F8143530241A
:1008D00004238842C0F80032C0F8044321D02749DD
:1008E00088422DD0264A90420ED0326801235268A9
:1008F0002B7605F10801C0F8003530469047BDEC75
:10090000028B2846BDE8F0811E4A1F4C95601F4AA5
:100910009168A2F54062C1F8C840C2F884315360C2
:10092000E3E71A4B174A99681560A3F540634FF047
:100930008052174CC1F8B040C3F880211A60D4E748
:10094000104B144C5D60114B9968A3F54063C1F8DE
:10095000C440C3F884215A60C7E70C468EE700BF45
:100960000080008000800080F8160300F823030058
:10097000002474495018002000C0014000100240BB
:10098000002002408C1A00203D78010000ED00E0BC
:1009900095770100E977010010B5012104462CF09C
:1009A0007AFC07A3D3E9002328F068FC02460B4633
:1009B00020462AF01EFB012010BD00BFAFF30080CF
:1009C000399D52A246DF913F10B5012104462CF01B
:1009D00062FC07A3D3E9002328F07AFD02460B4608
:1009E00020462AF006FB012010BD00BFAFF30080B7
:1009F000399D52A246DF913F2DE9F843044603F0AA
:100A000009FD6FF0004390FBF3F3C3EBC373C01A0F
:100A100028F0CAFB31A3D3E9002328F059FD804612
:100A2000204689462AF0B5F9012805460BD0022850
:100A300024D0002845D142464B4620462AF0D9FA18
:100A40000120BDE8F883014620462CF037FC061E45
:100A500004DC1F4A294620461DF0ECFC304628F0F5
:100A6000A3FB42464B4628F009FC01F031FD194B2F
:100A7000002228F04DFA02460B46DEE7012120460F
:100A80002CF01CFC2946074620462CF017FC874218
:100A9000064604DD0E4A294620461DF0CBFCF61B17
:100AA000701C28F081FB42464B4628F0E7FB01F022
:100AB0000FFD80468946384628F076FB42464B4675
:100AC000D7E720460449BDE8F8432CF078BB00BFC7
:100AD000E53B03000000F03FF73B03000000C0FFD0
:100AE000FFFFDF410000000010B51749174A044618
:100AF0002CF09FFC12A3D3E9002320462AF079FAB8
:100B00006FF001012046124A2AF0D4FB114B204617
:100B100000222AF06EFA20460F4A6FF001012AF0F7
:100B2000C9FB20460D4A4FF0FF312AF024FB204636
:100B30000B4A6FF001012AF0BDFB012010BD00BF80
:100B4000182D4454FB210940113C03005427030095
:100B5000163C03000000F07F193C03001E3C03001C
:100B6000C13503000000000082B010B59FED0A7B84
:100B7000014601F110040498C86081ED087B20460D
:100B800002A981E80C000FF07BF92046BDE8104077
:100B900002B00FF0C5B800BF000000000000000068
:100BA000C1F30A5C2DE9F041ACF2FF35132D02468A
:100BB0000B460C46064622DC002D4CDBDFF8D480C9
:100BC00048FA05F801EA080C5CEA000C0F461BD055
:100BD0002EA3D3E9002328F09BF90022002328F05C
:100BE000DDFD40B1002C03DD4FF480132B411F4489
:100BF00027EA0804002621463046BDE8F081332D5F
:100C000006DDB5F5806F38D010461946BDE8F08195
:100C1000ACF2134C4FF0FF3727FA0CF73842F3D001
:100C20001AA3D3E9002328F073F90022002328F047
:100C3000B5FD0028DFD0002C334609DD142D06D089
:100C4000C5F134050122AA4013449E4200D9013463
:100C500023EA0706CFE70DA3D3E9002328F058F9CC
:100C60000022002328F09AFD0028C4D0002C07DBC6
:100C7000344300D0044C0026BDE728F049F9C5E70D
:100C800000264FF00044B6E70000F03F9C75008856
:100C90003CE4377EFFFF0F00F8B504460D4601F037
:100CA000DFF906460F462046294621F065FF78B158
:100CB00012A3D3E900232046294628F06FFD50B93E
:100CC00010A3D3E900232046294628F049FD58B94E
:100CD00030463946F8BD25F07DFE074F2223002619
:100CE000036039463046F8BD25F074FE2223002605
:100CF00000270360ECE700BF0000F07FEF39FAFE49
:100D0000422E864051302DD5104987C0000000008A
:100D10002DE9F04F964B21F000459D428FB0824661
:100D20008B46144640F28B80924B9D420F4628D84A
:100D3000002985A3D3E9002340F3A18128F0E6F838
:100D40008D4B9D4206460F4600F08D8080A3D3E96F
:100D5000002328F0DBF88046894642464B46304661
:100D6000394628F0D3F87AA3D3E9002328F0CEF847
:100D7000C4E90089C4E90201012630460FB0BDE88C
:100D8000F08F7E4B9D4240F288807D4B9D4261D822
:100D90002E15A6F21646A5EB06594946504628F0F0
:100DA0001DFD28F001FA02460B4650464946CDE9A2
:100DB000082328F0ABF8734B002228F05FFA89462D
:100DC000804628F00BFD28F0EFF902460B4640461E
:100DD0004946CDE90A2328F099F86A4B002228F009
:100DE0004DFACDE90C010DF1380A03254FF000084A
:100DF0004FF000097AE9020142464B46AB46013DFD
:100E000028F0A4FC0028F5D15F4B01930223009346
:100E100032465B46214608A820F0C0FB002F06465C
:100E2000ABDA6168226801F10043E168C4E900239C
:100E3000A26801F10043C4E9022346429DE7002273
:100E40000023C4E900ABC4E90223002630460FB0FA
:100E5000BDE8F08F02460B4628F058F8C4E90201BD
:100E6000C4E90001F1E73CA3D3E9002328F04EF8E0
:100E70003BA3D3E9002306460F4628F047F88046F7
:100E8000894642464B463046394628F03FF834A35F
:100E9000D3E9002328F03AF86AE722F067F832A392
:100EA000D3E900238046894628F0E8F9374B002231
:100EB00028F02EF828F092FC064628F075F9024634
:100EC0000B46CDE9022320A3D3E9002328F0D6F96D
:100ED00002460B464046494628F018F81CA3D3E9C1
:100EE000002382468B46DDE9020128F0C7F902465D
:100EF0000B4650465946CDE9042328F007F81F2E2B
:100F00008046894646DC224B721E53F82230AB42A3
:100F100040D042464B46C4E900895046594627F026
:100F2000F5FFDDE9042327F0F1FF002FC4E90201FA
:100F3000BFF623AF09F10043C4E9008301F1004388
:100F4000C4E90203764218E700004054FB21F93F50
:100F50003163621A61B4D03D0000601A61B4D03DC3
:100F60007370032E8A19A33B83C8C96D305FE43FB9
:100F7000FB21E93F7BD90240FB21F93FFB213941AD
:100F8000FFFFEF7F00007041202A03000000E03FD8
:100F9000A0290300C9F30A53C3EB1553102B4FEAE2
:100FA0002555B6DD56A3D3E90023DDE9020128F07B
:100FB00065F98046894642464B465046594627F0D9
:100FC000A5FF02460B4650465946CDE906239246F8
:100FD0009B4627F09BFF42464B4627F097FF4AA3CC
:100FE000D3E9002380468946DDE9020128F046F96D
:100FF00042464B4627F08AFF0B460246594650466A
:10100000CDE9042327F082FFC1F30A53ED1A312DF5
:10101000804689467FF77DAF3EA3D3E90023DDE913
:10102000020128F02BF98046894642464B46DDE90D
:10103000060127F06BFF82468B4652465B46DDE990
:10104000060127F063FF42464B4627F05FFF33A3BC
:10105000D3E9002380468946DDE9020128F00EF934
:1010600042464B4627F052FF02460B465046594631
:10107000CDE9042327F04AFF8046894649E727F057
:1010800047FF234B9D4206460F4618D01AA3D3E9CB
:10109000002327F03DFF8046894642464B463046B6
:1010A000394627F033FF14A3D3E9002327F030FF9C
:1010B000C4E90089C4E902014FF0FF365DE610A3E0
:1010C000D3E9002327F024FF0FA3D3E9002306462A
:1010D0000F4627F01DFF8046894642464B46304664
:1010E000394627F013FF08A3D3E9002327F010FFA8
:1010F000DEE700BFAFF300803163621A61B4D03D18
:101100000000601A61B4D03D7370032E8A19A33BAE
:10111000FB21F93F0000002E8A19A33BC14920257D
:101120009A837B390000000070B51646C1F30A525D
:1011300004460D460B464ABB21F00043034324D02E
:10114000334B002228F09AF8324B9E4204460D465B
:1011500046DBC1F30A520B46363A4CF250318E420E
:101160001CDC164440F2FE72964217DC002E29DC8D
:1011700016F1350F2CDB6FF31E53363643EA06515A
:101180002046254B002228F079F870BD40F2FF7C04
:101190006245E2D1024627F0BBFE70BD002D14A1CE
:1011A000D1E9000105DB12A3D3E9002328F066F89A
:1011B00070BD0FA3D3E900230FA1D1E9000128F0EE
:1011C0005DF8F5E76FF31E53204643EA065170BD04
:1011D000002D0BA1D1E9000102DA0BA1D1E9000138
:1011E00007A3D3E9002328F049F870BDAFF30080CE
:1011F0009C7500883CE4377E9C7500883CE437FE93
:1012000059F3F8C21F6EA50159F3F8C21F6EA581EC
:1012100000005043B03CFFFF0000903C0000000085
:10122000F8B504460D4622F0D3FB224606460F468B
:101230002B462046294628F0BBFA48B920462946C5
:1012400021F094FE09A3D3E9002328F0A7FA10B9EE
:1012500030463946F8BD25F0BDFB034F002622235A
:10126000036039463046F8BD0000F07F7DF8B98F45
:10127000CE338640000000002DE9F04F83B0CDE969
:10128000002321F00043B3F1795F04460D4604D2F8
:1012900028F0A4FA002800F0858022462B4620463C
:1012A000294627F0EBFF06460F4632463B462046CE
:1012B000294627F0E3FF41A3D3E9002382468B466A
:1012C0003046394627F0DAFF3EA3D3E9002327F062
:1012D0001DFE32463B4627F0D1FF3CA3D3E9002355
:1012E00027F016FE32463B4627F0C8FF39A3D3E964
:1012F000002327F00BFE32463B4627F0BFFF37A303
:10130000D3E9002327F004FE0C9B804689469BB35B
:10131000DDE90001284B002227F0B0FF42464B4692
:10132000804689465046594627F0A8FF02460B469C
:101330004046494627F0EAFD32463B4627F09EFFED
:10134000DDE9002327F0E2FD19A3D3E900230646D7
:101350000F465046594627F091FF02460B4630464D
:10136000394627F0D5FD02460B462046294627F090
:10137000CDFD03B0BDE8F08F02460B46304639463E
:1013800027F07CFF0AA3D3E9002327F0BFFD5246D4
:101390005B4627F073FF22462B4627F0B9FD03B0CA
:1013A000BDE8F08F2046294603B0BDE8F08F00BFAE
:1013B000495555555555C53F0000E03F7CD5CF5A9E
:1013C0003AD9E53DEB9C2B8AE6E55A3E7DFEB157C6
:1013D000E31DC73ED561C119A0012A3FA6F810112F
:1013E0001111813F000000002DE9F04F23F0004A69
:1013F000044652EA0A0093B0904699460D4614D12D
:101400002319714985F4002252419842914126D214
:1014100042464B462046294627F07AFD02460B46B7
:101420001046194613B0BDE8F08F1F461346674AB1
:1014300000940E4621F000419142029116D9009B82
:1014400006F1404606F580161E43E1D14346DB18FF
:101450005D4989F4002252419E429141D8D35C4BB0
:1014600000221046194613B0BDE8F08F13D0924504
:10147000E5D8DDF808B053D0002E15DB002B40F086
:101480008380534A924540F02084002FC0F211859A
:1014900022462B46C4E7002CBAD18A45B8D800F0C2
:1014A0005984DDF808B0E7E74A4A924500F2A38381
:1014B000494A924500F2A583002B40F0EF83B7F133
:1014C000804F00F0038504932046294621F04EFD0D
:1014D0000B4600990246002937D00498F10F0139D4
:1014E00008435FD004980138084300F07F839FEDE4
:1014F000347B8DED067BBAF1844F71D937498A452B
:1015000040F23D84344B029A9A4200F2F984002F53
:10151000C0F2F984002013B0BDE8F04F21F04ABDBD
:10152000002B8CD1029B009A03F1404303F58013FA
:10153000134394D0284B029A9A4240F29484002F8D
:10154000C0F2068542464B466AE7214926F04040F4
:10155000884202D002990029BFD1002FC0F27B84BB
:10156000002EBFF65DAF029901F14049049909F5DB
:10157000801959EA010917D0049901297FF450AF65
:1015800003F100410B464BE7002304932046294614
:1015900021F0ECFC0B46009902460029D5D0F10F52
:1015A00001399FE722462B461046194627F0AEFC2C
:1015B00002460B4627F08CFF02460B4630E700BF81
:1015C000000000000000F03F0000F0FF0000F07F8E
:1015D0000000F03FFFFF3F43FFFFEF3F0000F043FD
:1015E000D7493140002940F0C883104619460022EF
:1015F000D44B27F043FE02468B466FF034004FEA8F
:101600002B51A1F2FF310818CF490F90CBF3130BE8
:101610004BF07F548B4544F4401440F3A083CB49F6
:101620008B4540F35D849FEDB07B8DED087B9FED96
:10163000B07B8DED047B9FEDAC7B8DED107B01309D
:101640000F90A4F58014002592465046DDE904234E
:10165000214627F05BFCA346DDE9042306460F463E
:1016600050462146CDE90AAB27F052FC02460B4614
:101670000020B74927F02CFF8C46834663465A4624
:1016800030463946CDE90CBC27F0F8FD64100A4617
:101690000146CDE9021244F00054DDE902AB04F545
:1016A0000023591900204FF0000A04460D46224637
:1016B0002B4650465946CDE9000127F0DFFD024692
:1016C0000B463046394627F021FCDDE90423064667
:1016D0000F462046294627F019FC02460B46DDE955
:1016E0000A0127F013FC52465B4627F0C7FD02466D
:1016F0000B463046394627F009FCDDE90C2327F07C
:10170000BDFDDDE90245CDE9040122462B46204618
:10171000294627F0B3FD78A3D3E9002304460D46FC
:1017200027F0ACFD76A3D3E9002327F0F1FB224696
:101730002B4627F0A3FD74A3D3E9002327F0E8FB91
:1017400022462B4627F09AFD71A3D3E9002327F008
:10175000DFFB22462B4627F091FD6FA3D3E9002340
:1017600027F0D6FB22462B4627F088FD6CA3D3E951
:10177000002327F0CDFB224606460F462B46204687
:10178000294627F07BFD02460B463046394627F0B6
:1017900075FD524604460D465B46DDE9020127F021
:1017A000B7FBDDE9042327F069FD22462B4627F02D
:1017B000AFFB524604460D465B465046594627F05D
:1017C0005DFD644B002206460F4627F0A1FB224632
:1017D0002B46CDE90A4527F09BFB0D462B4652468A
:1017E0005046594627F04AFD5A4BCDE900010022E8
:1017F0002946504627F08AFB32463B4627F086FBB7
:1018000002460B46DDE90A0127F080FBDDE90223F1
:1018100027F034FD2B4606460F465246DDE904010B
:1018200027F02CFD02460B463046394627F070FB68
:1018300006460F463246DDE900013B4627F068FBCD
:1018400039A3D3E9002350460D4627F017FDDDE903
:101850000023CDE900012946504627F057FB0246F8
:101860000B463046394627F051FB31A3D3E900231C
:1018700027F004FD02460B461446294650461D46F5
:101880002DA3D3E9002327F0F9FC02460B4620469E
:10189000294627F03DFBDDE9102327F039FB0646FA
:1018A0000F980F4627F080FC324604460D463B4613
:1018B000DDE9000127F02CFBDDE9082327F028FBF8
:1018C00022462B4627F024FB504622462B46CDE9E4
:1018D000020127F01BFBDDE9082327F017FBDDE9F8
:1018E000002339E0AFF3008000000000000000009A
:1018F000000000000000F03FEF4E454A287ECA3F3E
:1019000065DBC9934A86CD3F01411DA96074D13F73
:101910004D268F515555D53FFFAB6FDBB66DDB3F85
:10192000033333333333E33F000000E009C7EE3FB6
:10193000FD033ADC09C7EE3FF5015B14E02F3EBE24
:101940000000F07F000040438E98030079B60B0042
:101950000000F03F0000084027F0D8FA02460B468E
:101960003046394627F0D2FACDE904010023CDE90B
:1019700000890093DDE90067404632463B46494610
:1019800027F0C4FADDE902AB52465B4627F076FC4D
:10199000424604460D464B46DDE9040127F06EFC45
:1019A00002460B462046294627F0B2FA3246044644
:1019B0000D463B4650465946CDE9024527F05EFCB0
:1019C00006460F46204629463B46324627F0A0FAF7
:1019D000DB4B994204460D46884640F33F8101F1B6
:1019E0003F4303F5E003034340F09782C0A3D3E9EC
:1019F0000023DDE9020127F08BFA02460B46204660
:101A0000294614461D4632463B4627F07FFA0246D9
:101A10000B462046294627F0C1FE002840F07D8273
:101A20004FF400734344C3F30A52C64CA2F2FF3290
:101A30001441C3F3130AC2F11402002004EA0301A3
:101A40004AF4801A4AFA02FA0B460246B8F1000F2D
:101A500030463946B8BFCAF1000A27F057FA0246A5
:101A60000B4606460F46DDE9020127F051FA4FEA20
:101A70000A5B0D460024A0A3D3E900232046294693
:101A800027F0FCFB3246804689463B4620462946E5
:101A900027F03CFA02460B46DDE9020127F036FA50
:101AA00097A3D3E9002327F0E9FB02460B46204623
:101AB000294614461D4694A3D3E9002327F0DEFBF4
:101AC00002460B462046294627F022FA06460F46D4
:101AD00032463B464046494627F01AFA42464B46B4
:101AE00004460D4627F012FA02460B4630463946A8
:101AF00027F00CFA2246804689462B462046294686
:101B000027F0BCFB82A3D3E9002306460F4627F04B
:101B1000B5FB81A3D3E9002327F0F8F932463B4611
:101B200027F0ACFB7EA3D3E9002327F0F1F932467E
:101B30003B4627F0A3FB7CA3D3E9002327F0E6F97B
:101B400032463B4627F09AFB79A3D3E9002327F0DE
:101B5000DFF932463B4627F091FB02460B46204612
:101B6000294627F0D3F906460F4632463B46204623
:101B7000294627F083FB02460B4630463946164677
:101B80001F4600224FF0804327F0C0F902460B4663
:101B90003046394627F09CFC424606460F464B46E7
:101BA0002046294627F06AFB42464B4627F0B0F90B
:101BB00002460B463046394627F0A8F922462B4606
:101BC00027F0A4F902460B4600205F4927F09EF952
:101BD0000C465C44B4F5801FC0F29B812146DDE9D0
:101BE000062327F04BFB02460B4619E49FED527B80
:101BF0008DED067B7FE4002B00F0A6810223049389
:101C0000C4E44FEA2A52A2F2FF32142A40F3378189
:101C1000C2F1340223FA02F101FA02F29A4200F010
:101C20009B81002B3AD1B7F1804F00F04F812046C5
:101C3000294621F09BF90B460099024600297FF4C2
:101C4000B1AC414926F04040884200F0CC81029975
:101C5000002900F0C381002104913EE4DFF8F0C0C8
:101C600021F00043634540F21B81384B0B44034392
:101C70000AD132463B4627F049F9DDE9022327F035
:101C800083FD00283FF4CCAEDDE9060100220023ED
:101C900027F066FD003818BF01203CE420462946A5
:101CA00021F064F90B460099024600297FF47AACD2
:101CB000254926F04040884200F0788102990029A9
:101CC00000F060810099049107E4B7F1804F00F0C3
:101CD000FD80A2F5801297427FF4F5AB204629469D
:101CE00013B0BDE8F04F20F0CFB900BFAFF30080D4
:101CF000FE822B654715973C00000000432EE63F0F
:101D0000EF39FAFE422EE63F396CA80C615C20BE2A
:101D1000D0A4BE726937663EF16BD2C541BDBB3EF1
:101D20002CDE25AF6A56113F93BDBE166CC1663FCF
:101D30003E5555555555C53F000000000000F0BF09
:101D4000FFFF8F400000F0FF0000F03F00346F3FC6
:101D5000FFCB9040002B7FF45BABFFF7EBBB9FED1D
:101D6000AA7B8DED087B9FEDAA7B8DED047B9DED1D
:101D7000087B00258DED107B66E400203FE4B4492C
:101D800002988842C0F0D380B2490298884200F29B
:101D9000EC80104619460022AE4B27F0B7F89EA300
:101DA000D3E9002304460D4627F068FA9CA3D3E943
:101DB000002382468B462046294627F05FFAA64B31
:101DC000CDE9000100222046294627F057FA0246B5
:101DD0000B4695A1D1E9000127F098F822462B4641
:101DE00027F04CFA02460B4600209C4927F08EF85B
:101DF00022462B4606460F462046294627F03EFA45
:101E000002460B463046394627F038FA88A3D3E914
:101E1000002327F033FA02460B46DDE9000127F0E4
:101E200075F804460D4622462B465046594627F083
:101E30006FF8002052465B46CDE9020127F066F8B4
:101E400002460B462046294627F060F8CDE90401FA
:101E50008CE5029904917F49002027F039FB024666
:101E60000B46FFF77DBB002F4FF000024FF0000341
:101E7000BFF6D6AA424609F10043FFF7D1BA002BBC
:101E80007FF40CAFC2F114024AFA02F101FA02F235
:101E900052457DD06F4A92453FF4F7AAFFF70FBB3A
:101EA0006E4A934200F28880DDE900239346924611
:101EB000E0E522462B466749002027F009FB024651
:101EC0000B46FFF7ADBAB7F1804F3DD122462B4606
:101ED0002046294627F0D2F902460B46FFF7A0BA62
:101EE0009FED557B8DED087B9FED557B8DED107B38
:101EF0009FED557B4FF480258DED047BFFF7A4BB50
:101F0000002F7FF707AB002013B0BDE8F04F21F0A2
:101F10005BB85246FFF708F961E6DDE906010022E9
:101F2000002327F01DFC003818BF0120ECE7DDE995
:101F300006010022002327F013FC003818BF0120FF
:101F4000002FBFF6E8AADFE702230493FFF7BCBA2D
:101F500000220023FFF764BA002BB4D001F0010186
:101F6000C1F102030493FFF711BBDDE90601002272
:101F7000002327F0F5FB003818BF0120002FC3DC39
:101F8000FFF7C9BA002FFFF664AF0491FFF7EBBA71
:101F9000304B9A453FF479AAB7F1804F96D001F0C3
:101FA0000101C1F102030493FFF78EBA002F0BDB8E
:101FB00000990491FFF7D7BA1B15A3F2FE334FF433
:101FC000801242FA03F32DE52249002027F080FA1F
:101FD000009B049302460B46FFF7C5BA002FD4DAE4
:101FE0000021049137E7002F01DB0021CDE71949DB
:101FF000002027F06DFA0023049302460B46FFF7FA
:10200000B2BA00BFAFF30080000000000000000083
:10201000000000000000F03F000000604715F73F9F
:1020200044DF5DF80BAE543E555555555555D53FDB
:10203000FE822B654715F73F0000004003B8E23FE2
:1020400006D0CF43EBFD4C3E000000000000F83FFF
:10205000FFFFEF3F0000F03F0000D03F0000E03FF7
:102060002DE9F047D04F21F00042BA4286B0044635
:102070000D464FEAD1760DD9CC4FBA426FD9C1F394
:1020800013030343024640F04481002E64D0002035
:10209000002161E0C64B9A4200F21281C54B9A4280
:1020A00040F2248122462B462046294627F0E6F8B6
:1020B000A7A3D3E9002306460F4627F0DFF8A6A31F
:1020C000D3E9002326F022FF32463B4627F0D6F81C
:1020D000A3A3D3E9002326F01BFF32463B4627F09B
:1020E000CDF8A1A3D3E9002326F010FF32463B46EA
:1020F00027F0C4F89EA3D3E9002326F009FF324657
:102100003B4627F0BBF802460B462046294626F000
:10211000FDFECDE90201DDE90289204642464B463B
:10212000294627F0ABF8002206460F464FF08043C1
:102130004046494626F0EAFE02460B4630463946FE
:1021400027F0C6F922462B4626F0E0FE02460B4653
:102150000020994926F0DAFE06B0BDE8F08786A394
:10216000D3E9002327F01AFB0746002840F0D78068
:1021700083A3D3E900232046294627F0F1FA00285B
:1021800040F0DF808D4B204603EBC60629467EA338
:10219000D3E9002327F072F8D6E9082326F0B8FE29
:1021A00027F01CFB824626F0FFFF79A3D3E900232A
:1021B00006460F4627F062F802460B46204629469F
:1021C00026F0A4FE74A3D3E9002380468946304656
:1021D000394627F053F8CDE90001DDE900234046F8
:1021E000494626F093FE02460B4604460D4627F06C
:1021F00045F857A3D3E9002306460F4627F03EF8DB
:1022000055A3D3E9002326F081FE32463B4627F052
:1022100035F853A3D3E9002326F07AFE32463B4635
:1022200027F02CF850A3D3E9002326F06FFE3246A6
:102230003B4627F023F84EA3D3E9002326F068FE9F
:1022400032463B4627F01AF802460B4620462946FE
:1022500026F05CFE06460F462046294632463B469F
:10226000CDE9026727F00AF8CDE90401BAF1000FC1
:102270003FF451AF32463B4600204FF0804126F0FC
:1022800045FE02460B46DDE9040127F021F902462E
:102290000B46DDE9000126F039FE42464B4626F0AA
:1022A00035FE02460B460020434926F02FFE6FF410
:1022B0007F72924539DB01EB0A5106B0BDE8F08729
:1022C0003F4B9A423FF65EAF3C4C04EBC604D4E968
:1022D000002326F01BFE94ED047B86F0010A8DEDB1
:1022E000007B80468946AAEB060A76E72CA3D3E951
:1022F000002326F00DFE304B002227F04FFA002875
:102300003FF4D0AE2C4B00222046294626F000FE9A
:1023100022E70B4626F0FCFD06B0BDE8F087002062
:1023200006B0BDE8F04720F04FBE0AF57A7A01EB1F
:102330000A5100224FF0B87326F0A0FF06B0BDE8A6
:10234000F087384606B0BDE8F04720F033BE00BF46
:10235000D0A4BE726937663EF16BD2C541BDBB3EAB
:102360002CDE25AF6A56113F93BDBE166CC1663F89
:102370003E5555555555C53FEF39FAFE422E86401C
:1023800051302DD5104987C0FE822B654715F73F88
:102390000000E0FE422EE63F763C7935EF39EA3D1B
:1023A0009C7500883CE4377E412E8640FFFFEF7F1E
:1023B000422ED63FFFFFEF3D0000F03F18EE020037
:1023C000B1A2F03F00000000B1F5801F2DE9F843F5
:1023D00004460D460B4619DA21F00042024353D061
:1023E000002959DB364B002226F048FF354A0D46BE
:1023F0002B46934204466FF035010CDD22462B46F6
:102400002046294626F084FDBDE8F8832D4A9342F4
:102410004FF00001F2DC1815A0F2FF300844C70F9E
:1024200000EBD070C3F3130626F0BEFEC7F57F7332
:10243000033346EA03551CA3D3E9002380468946AB
:1024400026F01CFF02460B462046294614461D4630
:1024500000F022FB16A3D3E9002326F00FFF22464B
:102460002B4626F055FD14A3D3E9002304460D4660
:102470004046494626F002FF02460B4620462946C2
:1024800026F046FDBDE8F883002200230E49002017
:1024900027F01EF8BDE8F883024626F037FD00223B
:1024A000002327F015F8AFE7362BF111F3FE593D65
:1024B0000EE526157BCBDB3F00609F501344D33FD6
:1024C00000005043FFFFEF7F000050C300000000FA
:1024D000C1F30A5C2DE9F041ACF2FF35132D024641
:1024E0000B460C46064622DC002D42DBDFF8E4807A
:1024F00048FA05F801EA080C5CEA000C0F461BD00C
:1025000032A3D3E9002326F003FD0022002327F0A5
:1025100045F940B1002C03DA4FF480132B411F44DE
:1025200027EA0804002621463046BDE8F081332D15
:1025300006DDB5F5806F2CD010461946BDE8F08158
:10254000ACF2134C4FF0FF3727FA0CF73842F3D0B8
:102550001EA3D3E9002326F0DBFC0022002327F092
:102560001DF90028DFD0002C33461CDB23EA0706C8
:10257000D9E716A3D3E9002326F0CAFC00220023E2
:1025800027F00CF90028CED0002C05DB00263446BD
:10259000C9E726F0BDFCD1E724F0004426430DD165
:1025A0004FF00044BFE7142D06D0C5F134050122D9
:1025B000AA4013449E42D9D90134D7E7024C0026E1
:1025C000B1E700BFAFF300800000F0BF9C7500884A
:1025D0003CE4377EFFFF0F002DE9F84F9946534248
:1025E0005F4F134329F0004E4EEAD373BB4290462F
:1025F00004460D463DD84642064321F0004A4AEAC9
:10260000D676BE4203468B4633D809F1404606F5DE
:10261000801616433DD04FEAA97606F0020653EA2B
:102620000A0346EAD1762CD052EA0E0235D0BE45D6
:1026300046D0BA4531D0AAEB0E0ABAF1747F4FEA00
:102640002A5339DAB9F1000F46DA3C3344DA002074
:102650000021012E58D0022E49D086B134A3D3E9EF
:10266000002326F053FC34A3D3E9002326F04EFCCC
:1026700005E022462B464046494626F049FCBDE887
:10268000F88F022E10D0032EF9D12DA1D1E900012F
:10269000F5E7BDE8F84F00F067B8BBF1000F07DBC6
:1026A00029A1D1E90001EAE723A1D1E90001E6E788
:1026B00027A1D1E90001E2E723A1D1E90001C8E7A0
:1026C000F24506F1FF3623D0022E29D8254B03EB25
:1026D000C603D3E90601D2E742464B4620462946C7
:1026E00026F0F6FE20F042FC00F03EF8B1E710A321
:1026F000D3E9002326F00AFC02460B460EA1D1E9DD
:10270000000126F003FCBAE701F100431946B6E7E1
:10271000022E08D8134B03EBC603D3E90001AEE742
:1027200000200021ABE70CA1D1E90001A7E700BF21
:10273000075C143326A6A13C182D4454FB21094004
:10274000182D4454FB2109C0182D4454FB21F93F96
:10275000182D4454FB21F9BF182D4454FB21E93FA7
:102760000000F07F60EE02002DE9F84FC04B21F031
:1027700000469E4204460D468A460ED9BD4B9E42F7
:1027800000F2AE8000F0A980BAF1000F40F3E880BB
:102790009BA1D1E90001BDE8F88FB74B9E4200F242
:1027A000B680A3F1DE739E4240F2A2804FF0FF3B61
:1027B00022462B462046294626F060FD02460B465F
:1027C0008046894626F05AFD8FA3D3E900230646AA
:1027D0000F4626F053FD8EA3D3E9002326F098FB85
:1027E00032463B4626F04AFD8BA3D3E9002326F070
:1027F0008FFB32463B4626F041FD89A3D3E90023F7
:1028000026F086FB32463B4626F038FD86A3D3E908
:10281000002326F07DFB32463B4626F02FFD84A3A5
:10282000D3E9002326F074FB42464B4626F026FDF2
:1028300081A3D3E90023804689463046394626F0F5
:102840001DFD7FA3D3E9002326F060FB32463B4603
:1028500026F014FD7CA3D3E9002326F057FB324673
:102860003B4626F00BFD7AA3D3E9002326F04EFB6E
:1028700032463B4626F002FD77A3D3E9002326F03B
:1028800045FB32463B4626F0F9FC02460B464046E5
:10289000494626F03DFB22462B4626F0EFFCBBF1D5
:1028A000FF3F02460B4660D0744E06EBCB06D6E9DE
:1028B000082326F02BFB22462B4626F027FB024658
:1028C0000B46D6E9000126F021FBBAF1000F0DDA24
:1028D00001F100431946BDE8F88F00283FF454AFDA
:1028E00022462B462046294626F012FBBDE8F88FEB
:1028F0005BA3D3E9002326F00BFB614B002226F0FB
:102900004DFF00283FF452AF20462946EEE720F065
:102910002DFB5C4B9E4204460D462CD8A3F550235C
:102920009E4253D802460B4626F0F2FA544B002240
:1029300026F0ECFA02460B462046294614461D4670
:1029400000224FF0804326F0E3FA02460B46204671
:10295000294626F0BDFD4FF0000B04460D4627E743
:1029600041A1D1E90001BDE8F88F2046294626F0B3
:10297000CDFABDE8F88F444B9E421CD2434B002257
:1029800026F0C4FA02460B462046294614461D4648
:1029900000223E4B26F072FC394B002226F0B8FA9A
:1029A00002460B462046294626F092FD4FF0020BC8
:1029B00004460D46FCE622462B463549002026F00B
:1029C00087FD4FF0030B04460D46F1E62C4B002229
:1029D00026F09CFA02460B462046294614461D4620
:1029E0000022274B26F094FA02460B462046294641
:1029F00026F06EFD4FF0010B04460D46D8E600BFF1
:102A0000182D4454FB21F93F11DA22E33AAD903FEF
:102A1000EB0D76244B7BA93F513DD0A0660DB13F15
:102A20006E204CC5CD45B73FFF8300922449C23F7D
:102A30000D5555555555D53F2F6C6A2C44B4A2BF42
:102A40009AFDDE522DDEAD3F6D9A74AFF2B0B33F0A
:102A5000711623FEC671BC3FC4EB98999999C93F82
:102A60009C7500883CE4377E182D4454FB21F9BF47
:102A7000FFFF0F440000F07FFFFFDB3FA0EE0200EE
:102A80000000F03FFFFFF23F008003400000F83FEE
:102A90000000F0BF000000002DE9F04FB1F5801FED
:102AA00087B002460B460D4680F2838021F0004439
:102AB000044300F020810029C0F26081D64B00223F
:102AC00026F0DCFB0D460B46D4498D426FF03506EF
:102AD000024673DC2C15C5F3130505F51521A4F288
:102AE000FF3401F6647101F48011344404EB115495
:102AF00081F07F5181F4401141EA050310461946E7
:102B00000022C74B26F002FAAB1CC3F31303022BBF
:102B100082468B464FF0000257DC002326F016FE5B
:102B2000002840F0F180A8A3D3E90023504659467D
:102B300026F0A4FB02460B460020BA4926F0E6F92F
:102B4000524606460F465B465046594626F096FBCF
:102B500002460B463046394626F090FB06460F46A5
:102B6000002C00F00281204626F01EFB98A3D3E93A
:102B700000238046894626F081FB97A3D3E90023F2
:102B800004460D464046494626F078FB02460B4671
:102B90003046394626F0BAF952465B4626F0B6F979
:102BA00002460B462046294626F0B0F907B0BDE89C
:102BB000F08F9A498D424FF000068BDD1046194682
:102BC00026F0A6F907B0BDE8F08F4FF0804326F05D
:102BD0009FF902460B465046594626F079FC0646B8
:102BE00020460F4626F0E0FA3246CDE904013B4686
:102BF00030463946CDE9026726F040FB02460B46D7
:102C0000CDE9002326F03AFB75A3D3E9002306465D
:102C10000F4626F033FB74A3D3E9002326F078F99E
:102C200032463B4626F02AFB71A3D3E9002326F067
:102C30006FF932463B4626F021FB6FA3D3E9002310
:102C400026F066F9DDE9002326F018FB6CA3D3E932
:102C50000023CDE900013046394626F00FFB6AA378
:102C6000D3E9002326F054F932463B4626F006FB12
:102C700067A3D3E9002326F04BF932463B4626F002
:102C8000FDFAA5F5C22802460B46C5F5D725DDE9B4
:102C9000000126F03DF9A8F27A48513545EA0805C9
:102CA000002D06460F464BDD5E4B0022504659462E
:102CB00026F0E4FA52465B4626F0E0FA8046894662
:102CC0003046394642464B4626F022F9DDE90223DA
:102CD00026F0D4FA06460F46002C56D102460B4683
:102CE0004046494626F012F902460B4650465946E0
:102CF00026F00CF966E7002200234B49002026F05D
:102D0000E7FB07B0BDE8F08F002C57D0204626F037
:102D10004BFA2FA3D3E9002306460F4626F0AEFA5E
:102D20002DA3D3E9002304460D463046394626F04C
:102D3000A5FA02460B462046294626F0E9F841E767
:102D400002460B465046594626F0E0F8DDE90223DC
:102D500026F094FA06460F463CB1DDE904891CA32F
:102D6000D3E900234046494605E732463B465046F4
:102D7000594626F0CBF807B0BDE8F08F26F0C6F82C
:102D80000022002326F0A4FB1CE711A3D3E90023B3
:102D9000DDE9040126F072FA0FA3D3E9002304460B
:102DA0000D46DDE9040126F069FA32463B4626F07D
:102DB000AFF802460B4640464946EBE600200021AC
:102DC00000E700BFAFF30080555555555555D53F29
:102DD0000000E0FE422EE63F763C7935EF39EA3DD1
:102DE00044523EDF12F1C23FDE03CB966446C73F3A
:102DF000599322942449D23F935555555555E53F53
:102E00009FC678D0099AC33FAF788E1DC571CC3F5D
:102E100004FA97999999D93F00005043FFFFEF7F3B
:102E20000000F03F0000E03F000050C30000000041
:102E30002DE9F04F21F00048B8F1795F85B0924656
:102E40009B4606460F466DD226F0C8FC002800F0CF
:102E5000EE8032463B463046394626F00FFA76A3DE
:102E6000D3E9002304460D4626F008FA74A3D3E9FB
:102E7000002326F04DF822462B4626F0FFF972A3D8
:102E8000D3E9002326F042F822462B4626F0F6F935
:102E90006FA3D3E9002326F03BF822462B4626F009
:102EA000EDF96DA3D3E9002326F030F822462B4636
:102EB00026F0E4F96AA3D3E9002326F029F8224694
:102EC0002B4626F0DBF9CDE90001694B00222046B4
:102ED000294626F0D3F9DDE90023804689462046BD
:102EE000294626F0CBF944464D468046894652464F
:102EF0005B463046394626F0C1F902460B4640464D
:102F0000494626F003F802460B462046294625F09E
:102F1000FDFF02460B460020564925F0F7FF05B09D
:102F2000BDE8F08F02460B4626F0A8F942A3D3E98C
:102F3000002304460D4626F0A1F941A3D3E900235E
:102F400025F0E6FF22462B4626F098F93EA3D3E96A
:102F5000002325F0DBFF22462B4626F08FF93CA309
:102F6000D3E9002325F0D4FF22462B4626F086F92C
:102F700039A3D3E9002325F0C9FF22462B4626F0CA
:102F80007DF937A3D3E9002325F0C2FF2B46224663
:102F900026F074F9384B9845CDE9000195D9374BA7
:102FA00098453BD8A8F500130022324900209046EE
:102FB000994625F0ABFFCDE902012D4B00222046BA
:102FC000294626F05BF942464B4625F09FFFDDE996
:102FD0000023804689462046294626F04FF944467C
:102FE0004D468046894652465B463046394626F075
:102FF00045F902460B464046494625F087FF024602
:103000000B462046294625F081FF02460B46DDE9A6
:10301000020125F07BFF05B0BDE8F08F9FED127B2C
:10302000DFF85C908DED027B4FF00008C5E7114999
:10303000002005B0BDE8F08FD43888BEE9FAA8BDFD
:10304000C4B1B4BD9EEE213EAD529C804F7E923EF7
:103050009015CB19A001FA3E7751C1166CC1563FAD
:103060004C5555555555A53F000000000000E73F61
:103070000000E03F0000F03F3233D33F0000E93F63
:103080000000D23F000000002DE9F04FBE4B21F0C0
:10309000004A9A4583B004460D4612D90AF1404AC7
:1030A0000AF5801A5AEA000A00F0FD8002460B4633
:1030B00025F02CFF02460B4626F00AFA03B0BDE8C5
:1030C000F08FB24B9A458B460FD8BAF1795F80F0FA
:1030D000658191A3D3E9002325F01AFFAC4B0022B0
:1030E00026F05CFB002840F01281204629461FF0A4
:1030F0003DFF02460B460020A54925F007FFA54BE2
:10310000002226F0BBF886A3D3E9002304460D462F
:1031100026F0B4F884A3D3E9002325F0F9FE224673
:103120002B4626F0ABF882A3D3E9002325F0EEFE70
:1031300022462B4626F0A2F87FA3D3E9002325F0F0
:10314000E7FE22462B4626F099F87DA3D3E900231B
:1031500025F0DCFE22462B4626F090F87AA3D3E930
:10316000002325F0D5FE22462B4626F087F878A3CB
:10317000D3E90023CDE900012046294626F07EF858
:1031800075A3D3E9002325F0C1FE22462B4626F085
:1031900075F873A3D3E9002325F0BAFE22462B4627
:1031A00026F06CF870A3D3E9002325F0AFFE224689
:1031B0002B4626F063F8764B002225F0A9FE064642
:1031C0000F46204629461EF05FFF3B468046894653
:1031D0003246DDE9000126F07BF96F4B9A45CDE9D7
:1031E000000146464F4677D832464B463046494660
:1031F00025F08EFEDDE9002326F040F84FF00008B0
:10320000CDE9000142464B464046494626F036F895
:1032100002460B462046294625F078FE42460446E3
:103220000D464B463046494625F072FE02460B4697
:103230002046294626F04CF902460B4625F068FE4A
:1032400002460B464AA1D1E9000125F05FFE024685
:103250000B46DDE9000125F059FE424604460D46C5
:103260004B464046394625F053FE02460B4642A1E6
:10327000D1E9000125F04AFE02460B4620462946C8
:1032800025F044FE02460B463BA1D1E9000125F0A2
:103290003DFEBBF1000F3FF711AF01F100431946AE
:1032A00003B0BDE8F08F36A3D3E9002325F0E6FF95
:1032B00002460B462046294614461D462CA3D3E958
:1032C000002325F0DBFF02460B462046294625F069
:1032D0001FFE03B0BDE8F08F02460B46404649464C
:1032E00025F0CCFF42464B4625F012FE02460B4627
:1032F00025F00EFE1EA3D3E9002325F007FE0246AB
:103300000B461FA1D1E9000125F000FEC1E72046D0
:103310002946D3E6AFF300809C7500883CE4377EF5
:1033200009F7FD0DE13D023F88B20175E0EF493F2D
:103330003B8F68B52882A43F5544880E55C1C93FCC
:103340007D6FEB0312D6D43F555555555555C53FA6
:1033500082922EB1C5B8B33F59018D1B6C06E63F72
:10336000C88A599CE52A00404B2D8A1C273A034005
:10337000075C143326A6913C182D4454FB21E93FE9
:10338000182D4454FB21F93FFFFFEF3FFFFFDF3FC4
:103390000000F03F0000E03F3233EF3F02460B46B3
:1033A00025F06CFF37A3D3E9002306460F4625F02E
:1033B00065FF36A3D3E9002325F0AAFD32463B463C
:1033C00025F05CFF33A3D3E9002325F09FFD3246AF
:1033D0003B4625F053FF31A3D3E9002325F098FDA8
:1033E00032463B4625F04AFF2EA3D3E9002325F0C1
:1033F0008DFD32463B4625F041FF2CA3D3E9002347
:1034000025F086FD32463B4625F038FF29A3D3E957
:103410000023804689463046394625F02FFF27A3F2
:10342000D3E9002325F072FD32463B4625F026FF06
:1034300024A3D3E9002325F06BFD32463B4625F05B
:103440001DFF22A3D3E9002325F060FD32463B4651
:1034500025F014FF0A4B002225F05AFD02460B46C8
:103460004046494626F034F822462B4625F006FF12
:1034700022462B4625F04CFD03B0BDE8F08F00BF7F
:103480000000F03F09F7FD0DE13D023F88B20175F4
:10349000E0EF493F3B8F68B52882A43F5544880E32
:1034A00055C1C93F7D6FEB0312D6D43F55555555D5
:1034B0005555C53F82922EB1C5B8B33F59018D1BFA
:1034C0006C06E63FC88A599CE52A00404B2D8A1CB1
:1034D000273A0340000000002DE9F84FC44E21F0C8
:1034E0000043B34204460D460DD903F1404303F5B2
:1034F0008013034340F0B980002940F3C0800020CE
:103500000021BDE8F88FBB4EB34208D8BA4A9342B7
:1035100000F2BA809CA1D1E90001BDE8F88F002932
:10352000C0F2708122462B46B449002025F0EEFC03
:10353000B34B002225F0A2FE04460D461EF0A4FD6A
:1035400093A3D3E90023894680462946204625F0E7
:1035500095FE91A3D3E9002325F0DAFC22462B4601
:1035600025F08CFE8EA3D3E9002325F0CFFC224664
:103570002B4625F083FE8CA3D3E9002325F0C8FC5D
:1035800022462B4625F07AFE89A3D3E9002325F0B5
:10359000BDFC22462B4625F071FE87A3D3E900230C
:1035A00025F0B6FC22462B4625F068FE84A3D3E91D
:1035B000002382468B462046294625F05FFE82A3E3
:1035C000D3E9002325F0A2FC22462B4625F056FE27
:1035D0007FA3D3E9002325F09BFC22462B4625F050
:1035E0004DFE7DA3D3E9002325F090FC22462B4617
:1035F00025F044FE814B002225F08AFC02460B4652
:103600005046594625F064FF42464B4625F036FEAB
:10361000002682468B4632464B463046494625F0C8
:103620002DFE02460B462046294625F06FFC324609
:1036300004460D464B464046494625F069FC024685
:103640000B462046294625F043FF02460B465046CE
:10365000594625F05DFC32464B4625F059FC0246A2
:103660000B4625F055FCBDE8F88F02460B4625F0C9
:103670004DFC02460B4625F02BFFBDE8F88F58A104
:10368000D1E90001BDE8F88F02460B4625F0F6FDB2
:103690003FA3D3E9002306460F4625F0EFFD3EA3E6
:1036A000D3E9002325F034FC32463B4625F0E6FD05
:1036B0003BA3D3E9002325F029FC32463B4625F005
:1036C000DDFD39A3D3E9002325F022FC32463B4639
:1036D00025F0D4FD36A3D3E9002325F017FC3246AC
:1036E0003B4625F0CBFD34A3D3E9002325F010FCA5
:1036F00032463B4625F0C2FD31A3D3E90023804684
:1037000089463046394625F0B9FD2FA3D3E9002379
:1037100025F0FCFB32463B4625F0B0FD2CA3D3E957
:10372000002325F0F5FB32463B4625F0A7FD2AA3F2
:10373000D3E9002325F0EAFB32463B4625F09EFD07
:103740002E4B002225F0E4FB02460B46404649463C
:1037500025F0BEFE22462B4625F090FD02460B4684
:1037600021A1D1E9000125F0D1FB02460B462046FC
:10377000294625F0CBFB02460B4603A1D1E9000107
:1037800025F0C4FBBDE8F88F182D4454FB21F93F08
:1037900009F7FD0DE13D023F88B20175E0EF493FB9
:1037A0003B8F68B52882A43F5544880E55C1C93F58
:1037B0007D6FEB0312D6D43F555555555555C53F32
:1037C00082922EB1C5B8B33F59018D1B6C06E63FFE
:1037D000C88A599CE52A00404B2D8A1C273A034091
:1037E000182D4454FB210940075C143326A6913C54
:1037F000FFFFEF3FFFFFDF3F0000603C0000F03FB6
:103800000000E03F5E4B002225F082FB5D4B002272
:1038100025F034FD42A3D3E9002304460D4625F0EC
:103820002DFD41A3D3E9002325F072FB22462B4650
:1038300025F024FD3EA3D3E9002325F067FB2246B3
:103840002B4625F01BFD3CA3D3E9002325F060FBAC
:1038500022462B4625F012FD39A3D3E9002325F09B
:1038600055FB22462B4625F009FD37A3D3E900235B
:1038700025F04EFB22462B4625F000FD34A3D3E96C
:10388000002306460F462046294625F0F7FC32A3C2
:10389000D3E9002325F03AFB22462B4625F0EEFC27
:1038A0002FA3D3E9002325F033FB22462B4625F036
:1038B000E5FC2DA3D3E9002325F028FB22462B4667
:1038C00025F0DCFC2E4B002225F022FB80468946A9
:1038D000204629461EF0D8FB424604460D464B467C
:1038E0003046394625F0F4FD22462B4625F0C6FC2D
:1038F0001FA3D3E9002325F009FB22462B4625F020
:1039000007FB02460B4625F003FB02460B461AA1B5
:10391000D1E9000125F0FAFABDE8F88FAFF3008095
:1039200009F7FD0DE13D023F88B20175E0EF493F27
:103930003B8F68B52882A43F5544880E55C1C93FC6
:103940007D6FEB0312D6D43F555555555555C53FA0
:1039500082922EB1C5B8B33F59018D1B6C06E63F6C
:10396000C88A599CE52A00404B2D8A1C273A0340FF
:10397000075C143326A6913C182D4454FB210940C2
:103980000000F03F0000E03F2DE9F04F9B46D64B92
:1039900021F000479F4287B09246804689460E46F6
:1039A00051D825F01BFF0446002871D1109B4246D8
:1039B000013313433B4300F0E581109B012B00F0E2
:1039C000EE8152465B464046494625F0A1FA0B4639
:1039D0000246C64900201F4625F07AFD42464B4666
:1039E000804689462046394625F090FA02460B4625
:1039F0005046594625F08AFA22464B4625F03EFCB1
:103A000002460B4616462046224639461F464B467E
:103A100025F034FCB64B002225F07AFA02460B461C
:103A20003046394625F074FA42464B4625F026FCCE
:103A300022464B4625F06CFA04460D4620462946A0
:103A400007B0BDE8F08FAB4B9F4221D9002905DAC2
:103A500001F1004399460BF100439B4642464B4619
:103A600083A1D1E9000125F051FA52465B46044694
:103A70000D4681A1D1E9000125F048FA22462B46E6
:103A800025F046FA4FF0000A804689464FF0000BB9
:103A900042464B464046494625F0F0FB02460B465F
:103AA000CDE9002325F0EAFBDDE9002304460D46BD
:103AB0004046494625F0E2FB71A3D3E90023CDE956
:103AC00002012046294625F0D9FB6FA3D3E9002344
:103AD00025F01EFA22462B4625F0D0FB6CA3D3E935
:103AE000002325F015FA22462B4625F0C7FB6AA3D2
:103AF000D3E9002325F00CFA22462B4625F0BEFB25
:103B000067A3D3E9002325F003FA22462B4625F0CC
:103B1000B5FB65A3D3E9002325F0FAF9DDE900231D
:103B200025F0ACFB62A3D3E90023CDE904012046D4
:103B3000294625F0A3FB60A3D3E9002325F0E8F98B
:103B400022462B4625F09AFB5DA3D3E9002325F0FE
:103B5000DFF922462B4625F091FB5BA3D3E9002336
:103B600025F0D6F922462B4625F088FB58A3D3E949
:103B7000002325F0CDF922462B4625F07FFB56A3E6
:103B8000D3E9002325F0C4F902460B46DDE9040120
:103B900025F0BEF9DDE9022325F070FB52465B46B5
:103BA00025F0B6F9DDE9002325F068FB52465B46B7
:103BB00025F0AEF94AA3D3E9002304460D46DDE91A
:103BC000020125F05BFB22462B4625F0A1F9824637
:103BD0008B465B4640464946524625F099F9454B8F
:103BE0009F4204460D4600F28780109B012B37D080
:103BF000002602460B460F4600203C49CDE90067EF
:103C000025F066FC42460D4604464B46DDE90001C0
:103C100025F07CF902460B465046594625F076F9C8
:103C20002B46324625F02AFB2B46804689463246F3
:103C3000DDE9000125F022FB2D4B002225F068F97B
:103C400002460B464046494625F062F922462B467D
:103C500025F014FB2B46324625F05AF904460D4652
:103C60002046294607B0BDE8F08F00BFAFF30080C3
:103C7000182D4454FB21E93F075C143326A6813CF0
:103C8000D47ABF74702AFB3EE9A7F0320FB8123F16
:103C900068108D1AF726303F1583E0FEC8DB573FCA
:103CA00093846EE9E326823FFE41B31BBAA1AB3F8A
:103CB000735360DBCB75F3BEA69237A0887E143FAA
:103CC0000165F2F2D844433F280356C9226D6D3F87
:103CD00037D60684F464963F7AFE10111111C13F65
:103CE000635555555555D53FFFFF2F3E0000F0BF9A
:103CF0000000F03F2794E53F109825F055FA224642
:103D0000CDE900012B462046294625F0B7FA0246A8
:103D10000B462046294614461D46DDE9002325F0C2
:103D2000F7F802460B462046294625F0D1FB5246BD
:103D30005B4625F0EBF802460B464046494625F027
:103D4000E5F802460B4625F0E3F802460B46DDE9AE
:103D5000000125F0DBF84FEAA67808F002080446D7
:103D6000C8F101000D4625F01FFA02460B46204619
:103D7000294625F083FA04460D462046294607B019
:103D8000BDE8F08F404649461FF0F0F802460B466A
:103D90000020044925F09CFB04460D4660E744469C
:103DA0004D465DE70000F03F2DE9D04FD04E21F0A9
:103DB0000043B34284B082468B4601F0004411D9DF
:103DC000CC4EB34240F2C980CB4EB34240F2BD80EC
:103DD000C1F31302024300F0D48102460B4625F0E2
:103DE00097F8E4E0C54A934200F2E480C44A934263
:103DF00040F245810024C34B00225046594625F02D
:103E00003DFA06460F4632463B465046594625F097
:103E100035FA9FA3D3E900238046894625F02EFA80
:103E20009DA3D3E9002325F073F842464B4625F0C5
:103E300025FA9BA3D3E9002325F068F842464B46B8
:103E400025F01CFA98A3D3E9002325F061F8424637
:103E50004B4625F013FA96A3D3E9002325F056F834
:103E600042464B4625F00AFAA74B002225F050F8AF
:103E700002460B4630463946CDE9002325F0FEF9CF
:103E800002460B460020A14925F040F806460F46A1
:103E900032463B46DDE9000125F038F832463B4624
:103EA00006460F465046594625F0E8F902460B46AD
:103EB0000020974925F02AF802460B46304639463D
:103EC00025F006FB42464B4625F0D8F902460B4644
:103ED000002C5ED0DDE9026732463B4625F016F83D
:103EE00052465B4625F0CAF932463B4625F00EF8AD
:103EF0004B46424625F00AF8631C06460F4600F082
:103F00003181012C00F00A81631C392B4FEA0456E1
:103F100000F2A480132C00F3458152465B464FF417
:103F2000001724F0F3FF47FA04F4C4F17F594FF06F
:103F3000000809F5401902460B464046494624F060
:103F4000E5FF711804B0BDE8D08F5BA3D3E900236F
:103F500025F024FC002840F04681002C53D058A3C3
:103F6000D3E900235046594624F0D2FF0022002313
:103F700025F0F6FB002840F0078153A3D3E9002386
:103F80005046594625F07AF902460B460020614911
:103F900044E05046594625F071F942464B4624F01C
:103FA000B5FF02460B465046594624F0AFFF04B019
:103FB000BDE8D08F584A934200F2E98044A3D3E988
:103FC0000023002C00F0C48024F0A2FF0FF2081997
:103FD000D9E9008906460F464FF0FF3442464B466A
:103FE0003046394624F092FF82468B4652465B4665
:103FF0003046394624F08AFF42464B4624F086FF7D
:10400000CDE90201F7E630A3D3E900235046594633
:1040100025F034F90B463B490246002024F078FF96
:1040200025F0DCFB044625F0BFF829A3D3E90023E3
:104030008046894625F022F902460B4650465946ED
:1040400024F064FF26A3D3E9002306460F4640462A
:10405000494625F013F980468946BFE752465B463C
:1040600024F054FF02460B460020274924F04EFF5F
:10407000731819460022244B24F048FF97E71AA32F
:10408000D3E9002324F044FF02460B4687E700BF34
:104090002DC3096EB7FD8ABE3952E686CACFD03E1F
:1040A000B7DBAA9E19CE143F8555FE19A0015A3FD1
:1040B000F41011111111A13FEF39FAFE422E864082
:1040C00059F3F8C21F6EA501FE822B654715F73F15
:1040D0000000E0FE422EE63F763C7935EF39EABD3E
:1040E000763C7935EF39EA3D9C7500883CE4377EB3
:1040F00079684340412E8640FFFFEF7F422ED63F36
:10410000FFFF8F3C0000E03F0000F03F0000084050
:10411000000018400000E0BFB1A2F03F3A4B00227F
:104120005046594625F01CFB00284DD0374B5046D1
:104130005946002224F0ECFE02460B463046394632
:1041400024F0E4FE00224FF0404325F097F82EE7DC
:1041500024F0DCFE0FF2A009D9E9008906460F46DB
:1041600001243BE702460B465046594624F0CEFE5A
:10417000264B002225F082F8244B002224F0C6FEB4
:1041800015E7002C3FF413AF214900200FE71CA3D3
:10419000D3E9002325F072F802460B46002044B311
:1041A0001C493BE7C4F57F7403342305002224F047
:1041B000AFFE02460B465046594624F0A7FE164B6A
:1041C000002224F0A5FEBCE632463B465046594646
:1041D00024F09CFE02460B4624F09AFE0E4B002271
:1041E00024F096FEE3E6002004B0BDE8D04F1EF0B8
:1041F000EBBE064912E700BF763C7935EF39EA3D60
:10420000FE822B654715F73F0000D0BF0000E03F5E
:104210000000F0BF0000E0BF0000F03F0000000021
:10422000594A2DE9F84321F00046964204460D46CE
:104230005CD8564B0029ACBFDFF86891DFF86C9171
:104240009E424FF0000812D9514B9E4240F28E80A0
:10425000504B9E4256D901339E4250D048A3D3E9D9
:1042600000232046294625F009F8BDE8F8834A4B8B
:104270009E425ED842A3D3E9002324F049FE474B77
:10428000002225F08BFAB8BB204629461EF06EFEB0
:10429000FFF78AFD04460D4622462B462046294656
:1042A00024F036FE224606460F462B462046294677
:1042B00024F0E4FF02460B462046294614461D46DC
:1042C0000022364B24F024FE02460B4620462946A7
:1042D00025F0FEF802460B463046394624F016FE1D
:1042E00042464B4624F0CAFFBDE8F88302460B461F
:1042F00024F00EFEBDE8F88320462946FAE7284B55
:104300009842ABD8204629461EF030FE254B0022AD
:1043100024F0B4FFFDF7A4FE04460D4622462B46CA
:104320004046494624F0AAFF22462B4624F0A6FF29
:10433000E0E71EF01BFEFFF737FD184B0022044696
:104340000D4624F0E5FD0B4617498E420246A3D9DF
:104350002046294625F0BCF822462B4624F0D8FDFD
:1043600042464B4624F08AFFBDE8F8831EF0FEFD6E
:10437000FDF776FE42464B4624F080FFBAE700BFC9
:104380003374AC3C1F7BAC7FFFFFEF7FFFFF3540FA
:10439000412E8640CD338640FFFF2F3E0000F03F88
:1043A0007DF8B98F0000E03FFFFFEF3F0000E0BF66
:1043B00038B5124B1D682A6B04461AB10023C2E9B6
:1043C000044338BD18200BF0F1FD0246286378B194
:1043D00001200021C2E90401094B0A480A49916001
:1043E000C2E900030B2393810023C2E9044338BDD3
:1043F000064B0748462120F093FA00BF8C000020AE
:1044000034126DE60E33CDABECDE05002403030061
:104410003C0303001C4B10B51C68226B8AB1136966
:104420001A4954691A4803FB01F100FB0411A3FB6C
:104430000030013341EB0001C2E9043121F00040BA
:1044400010BD18200BF0B2FD0246206388B1114C5C
:10445000114B0E48114991609FED097BC2E9004361
:104460000B2393810E4B014682ED047BC2E904319C
:1044700010BD0C4B0C48522120F052FAAFF30080D3
:1044800001000000000000008C0000202DF45158B5
:104490002D7F954C0E33CDAB34126DE6ECDE05006E
:1044A0002E7F954C240303003C0303000000000012
:1044B0002DE9F04F9FB00F46002107921A9100227C
:1044C0000021CDE9041283463A461992904612F82B
:1044D00001ABBAF12D0F5FD801A151F82AF000BF4E
:1044E00029470000994500009945000099450000C2
:1044F0009945000099450000994500009945000044
:1045000099450000CB440000CB440000CB440000A0
:10451000CB440000CB4400009945000099450000C1
:104520009945000099450000994500009945000013
:104530009945000099450000994500009945000003
:1045400099450000994500009945000099450000F3
:1045500099450000994500009945000099450000E3
:10456000CB440000994500009945000099450000A2
:1045700099450000994500009945000099450000C3
:10458000994500009945000099450000E549000063
:1045900099450000FF49000000220892BAF1300F4F
:1045A00000F0858000230993BAF12F0F564640F2A0
:1045B00012854FF0000940464D464C4618E0082C45
:1045C000C8BF09EB890900F10100C8BF0AEB490A1D
:1045D0001990C8BFAAF1300990F800A0D8BFA3F184
:1045E0003005BAF12F0F04F10104564640F3A880BC
:1045F00005EB8503BAF1390F0AEB4303DFDDAC4964
:10460000012222F079F9002868D11998431C1993E6
:10461000417818460A46002C40F0EB80302A08BF4B
:10462000034640F0D7851946013319931A78302A8A
:10463000F9D0C0F101000144A2F13100082800F2D4
:10464000C68101310F910021303A98460A91012428
:1046500005EB850502EB4505002101331993187818
:10466000A0F13002092A01F1010600F27E84002A3D
:1046700000F08C870F98012E30440F9000F0848753
:1046800004F1010C604606E075000130061B013E96
:10469000B14240F38F84461E082E05EB8506F3DDFC
:1046A0001028DCBF09EB89094FEA4909EDE798F8C2
:1046B000012002F0DF02582A18BF434600F012849E
:1046C0000133199393F800A0BAF1300FF8D098464F
:1046D000BAF1000F0ED00123099365E7BAF1650F17
:1046E0001AD0BAF1450F17D0002C2FD1099B002BFF
:1046F00000F0BC804FF000084FF00009079A0AB1A3
:10470000199B1360089BB3B109F1004399464046D9
:1047100049461FB0BDE8F08F002C78D10A940F9461
:10472000099B002B40F0E2824FF000084FF0000997
:10473000079B03B11F60404649461FB0BDE8F08F9C
:104740005B49012222F0D8F800284ED0284624F0F8
:104750001BFD092CCDE9040140F3CD820023102C70
:10476000A2460E93A8BF4FF0100A0A9412930F931B
:10477000504B03EBCA0353E9122324F07FFD064696
:1047800048460F4624F000FD02460B4630463946A7
:1047900024F0BEFB0F2CCDE9040100F3AC800E9B8E
:1047A000002B00F0A8820E9B40F38E82162B40F364
:1047B00065840E9AC4F125039342C0F29C803D4D5E
:1047C000C4F10F0405EBC401DDE90423D1E90001C4
:1047D00024F054FD0E9B1C1B05EBC405D5E90023FA
:1047E00024F04CFD8046894688E7199A531C19939A
:1047F0005178A1F13000092800F2DE80024600283D
:1048000000F0BD8601210A94A4460F91D4E3002153
:10481000199B0A940F918C465A1C19925E782B2E84
:1048200000F0C7802D2E00F0BE804FF0000AA6F1E8
:104830003007092F37D8302E199A40F0E580013221
:1048400019921678302EFAD0A6F13100082840F2DD
:10485000D98000221292002C34D1099A0A437FF4A5
:1048600049AFBCF1000F40F03F841F46692E00F0B5
:10487000188400F31184492E00F013844E2E7FF427
:1048800053AF0D4919A822F00DFA00283FF44CAFA0
:10489000199B1B78282B00F06D8508481EF03CFD05
:1048A000804689462AE7002219931292D3E700BF77
:1048B000A803030040EF0200B8030300080303004D
:1048C000002312930A9A1346002A08BF23460A932C
:1048D0000F9A129B102CA3EB020328460E93A246BC
:1048E000A8BF4FF0100A24F04FFC092CCDE90401B9
:1048F0003FF73EAF53E70E9BA4EB0A0A9A44BAF186
:10490000000F40F3A9802AF00F071AF00F0A40F0B9
:104910004283B7F59A7F00F3DC83102FDFF880A184
:104920004FEA271600F04C85DDE904234FF0000C18
:104930005746E14616F0010F1046194607D0D7E951
:10494000002324F09BFC4FF0010C02460B4676102E
:10495000012E09F1010907F10807EBD1BCF1000FA5
:1049600001D0CDE90423059BA3F1547305930AEB11
:10497000C90ADDE90423DAE9000124F07FFC454B94
:10498000CDE904010B400A4643498B4200F2A18362
:10499000A1F580118B4240F2AF84404B4FF0FF32C3
:1049A000CDE904235AE04FF0010A9A1C19929E782F
:1049B0003DE74FF0000AF8E701F0DF0145297FF4F9
:1049C000C5AE00210A940F914FF0010C24E702F0CC
:1049D000DF02452A7FF48EAE00240A940F944FF034
:1049E000010C19E70022089208F10102199298F8C7
:1049F00001A0BAF1000F3FF497AE9046CEE5012238
:104A00000892F1E7A6F13007501C199056782F2E26
:104A100040F3F68286460E9208E0013019909EF827
:104A200001602F2EA2F1300706DD864607EB8702D4
:104A3000392E06EB4202F0DD0E9A801A082840F368
:104A4000DF8244F61F621292BAF1000F3FF403AF07
:104A5000129A52421292FEE640F0D9820023099344
:104A60000A9A009523464146584622F077FC139057
:104A7000002800F02E830F9B129A9B1A0E9A002A90
:104A8000A8BF00230F9322EAE272002314921E466D
:104A90009946DAE00000F07F0000A07CFFFFEF7F86
:104AA00030F00200D21A1F2AA4EB020400F3968110
:104AB00001239340109300231593099B25443C4404
:104AC000A7421D443B46A8BF2346AB42A8BF2B4686
:104AD000002B02DDE41AED1AFF1A0F9B002B00F3E6
:104AE0001D81002C00F334810E9B002B00F36C81A0
:104AF000002D00F35A81002F08DD31463A46584612
:104B000022F034FE0646002800F058811A995246D9
:104B1000584622F0BFFE8146002800F04F81002356
:104B2000C268C3603146129222F092FE0028C0F2A1
:104B3000E883059B984600F08C833146484623F075
:104B400045F800224FF0804304460D4624F012FE43
:104B5000002800F0D380129B002B40F04C81049B76
:104B6000002B40F0EF81C8F31303002B40F08A8143
:104B7000A94B00222046294624F0F2FD002840F0EF
:104B80003883A64B00222046294624F077FB0A46AC
:104B90000146CDE9101202F100430C900D93A04F95
:104BA000A04B08EA07079F42DDE90C4500F042816F
:104BB000099B13B3B7F1D46F1FD893A3D3E9002394
:104BC000DDE9100124F0D6FDA0B1DDE9100124F0EB
:104BD0002DFE012838BF012024F0D6FA129BCDE922
:104BE0001001002B40F0878201F1004316901793CB
:104BF000DDE9164505F1D663DD1BDDE90A0122F08A
:104C000003FF02460B462046294624F037FBDDE928
:104C10000A2324F07DF9CDE904010C46099B23B950
:104C20007F4B23409F4200F036811A99584622F06C
:104C300023FB5146584622F01FFB3146584622F0CE
:104C40001BFB4946584622F017FB139C58466168E7
:104C500022F0D2FA8246002800F0B08022690232A7
:104C6000920004F10C010C301FF092FD9DED047BCD
:104C70001CAB01931BAB0093584653EC172B8DEDE7
:104C80000A7B22F047FF1A9000286AD0012158467B
:104C900022F028FC0646002800F090801B9B002B89
:104CA0007FDB0F9A149D9F18099A1C9C9B1A234422
:104CB0005D4A013B9342C4F13604FFF6F3AE002394
:104CC000159301231093F8E61633FFF614AE0F9BED
:104CD000129A9A1A554B03EBC203DDE90401D3E99A
:104CE000002324F0F5FB8046894607E5A44600240E
:104CF000199B214690E5DDE90489FFE4474B2046F6
:104D00002946002224F0BAFA129BCDE91001002BAB
:104D10006CD101F100430C900D9340E731461A46E7
:104D2000584622F0ABFC06461A98D6B102463146E8
:104D3000584622F0EDFB034612931A988BB10146B8
:104D4000584622F099FA129B1A93002C7FF7CCAEAA
:104D50001A992246584622F009FD1A9000287FF43D
:104D6000C3AE5746CDF83890B2462223DFF8B09054
:104D7000CBF800304FF000080146584622F07CFA8C
:104D80003946584622F078FA5146584622F074FACD
:104D90001399584622F070FA0E99584622F06CFA90
:104DA000ACE4149A0F9FD51A7EE751462A4658461E
:104DB00022F0DCFC824600287FF49DAE57461A980C
:104DC000CDF83890B246D0E75146149A584622F0B2
:104DD00055FC824600287FF48BAEEFE7144AD21AC6
:104DE000012303FA02F21592109366E69DED107B03
:104DF0008DED0C7BD3E69FED067B8DED0C7B8DED71
:104E0000107BCCE6AFF300800000C0FFFFFFDF4166
:104E1000000000000000F03F0000F03F0000E03F15
:104E20000000F07F0000E07F02FCFFFF40EF020087
:104E3000E2FBFFFFA8F154730593DDE9044520462A
:104E4000294622F0E1FDDDE90C2324F017FA224681
:104E50002B4624F05DF8B44AB44B0A409A42CDE99F
:104E6000040140F29480DDE90A0103F15473994290
:104E700002D1B0F1FF3FA1D0AD4C4FF0FF33CDE9EF
:104E80000434D2E69FED9E7B8DED0C7B9FED9E7BE7
:104E90008DED107B83E6DDE910783846414624F03D
:104EA0004DFD24F0BDF902460B463846414624F03C
:104EB0002DF8049F129DC4F313043D432C43074671
:104EC00088462DD192A3D3E9002324F049FC002881
:104ED0003FF4ABAECDF83890DDE904895746B246D1
:104EE0001A9849E70293089B01931AAB0093914AE1
:104EF0001BAB19A958461FF0C7FF10F00F05044659
:104F00003FF4F8AB062D40F0218108F1010319931D
:104F100000234FF000084FF000090893FFF7EEBBA5
:104F20007DA3D3E9002324F01BFC0028D2D17CA36D
:104F3000D3E900233846414624F030FC00283FF4F2
:104F400074AEC7E7049B012B9CD14346002B99D13B
:104F50005746CDF83890B24622231A98CBF8003045
:104F60004FF000084FF0000906E700F0DF00452889
:104F700000F0B380002C7FF4A3AC099B19434FF0E1
:104F800000084FF000093FF4D3ABFFF7B7BB01F1C6
:104F90005474059442E6684901EBCA01DDE9042333
:104FA000D1E9000124F06AF9CDE90401002F3FF4B2
:104FB00055ADAEE401398C44BCF1080F0CF101048D
:104FC0007FF746AB102CDCBF09EB890902EB4909DE
:104FD0000021FFF742BB59490122404621F08CFCD9
:104FE00040B9814619980346013019905A784D46C8
:104FF000FFF714BB099B002B3FF496ABFFF77ABB7E
:1050000044F61F629742A8BF174612971CE5CAF1E3
:10501000000A4FEA2A171AF00F0A0DD0464B03EB8D
:10502000CA03DDE90401D3E9002324F051FACDE9F4
:105030000401002F3FF412AD1F2F00F30581DDE9BD
:10504000042317F0100118BF6A2117F0010F09910E
:105050003B4E104619460FD0D6E9002324F00EF936
:105060007F1002460B4600F0D28017F0010F06F1C8
:10507000080610461946EFD17F10F6E70E982E4924
:1050800001EBC001DDE90423D1E9000124F0F6F8C9
:1050900080468946FFF732BB6E2E3FF4F2ABFFF736
:1050A00043BB284919A821F0FDFD00283FF43CAB83
:1050B000199B2549013B19A8199321F0F3FD10B95B
:1050C000199B01331993DFF860904FF00008FFF748
:1050D00015BB2223CBF80030F5E7002C00F03A8214
:1050E0004FF0010CFFF798BB4FF000084FF000099C
:1050F0001F46FFF71DBB9DED107B8DED167B77E501
:10510000000000000000F0BF000000000000F03FC1
:105110009535A094FFFFCF3F9535A094FFFFDF3F6B
:1051200035E5AF350000E03F0000F07FFFFF9F7CDA
:10513000FFFFEF7FE0EE020040EF0200A803030054
:1051400008EF0200AC030300B00303001A9A3AB15F
:1051500035211CA822F084FD1A99584622F08CF8BB
:10516000013D042D00F21582DFE805F0032E2B200F
:1051700003001C9B04931B9B03F233421D9B23F4EF
:10518000801343EA02530593E20502D543F000433E
:105190000593B34A1A40DDE90489002A7FF4AEAAD8
:1051A00021F018FC22230360FFF7A8BA4FF0FF326A
:1051B0006FF00043CDE90423E3057FF59CAD059B2B
:1051C000E4E7A74B0593F7E7DDE91C121D9BCDE94A
:1051D0000412D9E7A2F13103082B13D922F02002DF
:1051E000452A7FF407AF00230A930F930124FFF7AA
:1051F00097BA9FED977B8DED0C7B9FED977B8DEDA7
:10520000107BCCE4012103460F91FFF71CBA099BE8
:10521000CDE904017BB1C1F30A52C2F16B03002B4B
:1052200009DD1F2B40F3FD80342B049740F364818C
:105230004FF05C730593DDE904010022002324F0A4
:1052400085FA00283FF40CAC2223CBF80030FFF79E
:1052500051BA5746C3F31302B2461E46129BCDF80D
:105260003890DDF840C0DDF854E07E49DDE90A8978
:10527000002B00F093808A4200F0FA80BEF1000F0C
:1052800000F0E0801EEA060F32D04046494622F088
:10529000BBFB099B002B00F03781C6F30A53C3F117
:1052A0006B03002B40F353811C0504F17F53002254
:1052B00003F5401323F0E2FF02460B464046494601
:1052C00023F026FE80468946674B40464946002229
:1052D00023F0D4FF624B0B4080468946002B7FF4BD
:1052E000FFAD2223CBF80030FAE51EEA060F72D19B
:1052F000099B002BE8D1F3E502F154730593FFF706
:10530000ADBBDDE90445129ACDF8389022435746EB
:105310004B46B246DDE90A89EAD1C5F313022E46AF
:10532000002AE5D125F00044240D2405B4F1D66F00
:10533000DED95A6912B91A69012AD9DD0E990122FA
:10534000584622F013FA51460E9022F081FA0028B6
:10535000CEDD099B002B00F0AB80A4F580146FEA32
:1053600014536FEA035305934FF0FF330493DDE9C1
:105370000489A9E73D4919A81CAA21F0AFFC05281A
:105380007FF48BAA1D9B43F0FF4343F4E003059396
:105390001C9B0493DDE90489FFF7B0B9A2B9DDE9EC
:1053A0000434002B45D1099B002B00F081802C4C4C
:1053B0003440B4F1D66FD0D8B4F15C7F84D8CBE55B
:1053C0004FF00009FFF7CFBABEF1000F8DD1049B5B
:1053D0001CEA030F8CD04046494622F015FB099B7E
:1053E000002B55D0C6F30A53C3F16B03002B40F3D7
:1053F000AB801C0504F17F53002203F5401323F01A
:105400003DFF02460B464046494623F07FFD002201
:1054100000238046894624F099F900283FF454AFD0
:105420009AE54FF0FF3202FA03F3049A1A4004920D
:1054300001E7BEF1000F7FF458AF13EA0C0F3FF401
:1054400057AFC8E7049B1CEA030F3FF451AF1CE7BA
:10545000000000000000E0BF000000000000E03F8E
:105460000000F07FFFFF0F0000005039F4EE020053
:10547000DDE90445099B214653BB234601332ED069
:10548000BEF1000F6AD01EEA060F3FF429ADFCE61C
:1054900002460B464046494623F038FD00220023D1
:1054A0008046894624F052F900283FF419AD53E5AF
:1054B0003E4A1A983240A2F580126FEA12536FEA00
:1054C000035305934FF0FF330493DDE9048953E45C
:1054D000364A3240B2F1D46F20D9621C27D1344A07
:1054E000964240D0314A324002F5801305930023A2
:1054F0000493DDE90489FBE6C2F14B024FF0FF3370
:1055000093400B40059396E602460B4640464946BB
:1055100023F0FEFC804689461A982DE4120DC2F154
:105520006B024FF0FF3000FA02F29442D7D0BEF186
:10553000000F04D01EEA060F3FF4C6AEA5E611EA3E
:105540000C0F3FF4C1AEA0E602460B465BE70246F5
:105550000B46B3E600293FF449AEC1E514EA0C0F4F
:105560003FF4BEAC91E60131BCD122231A98DFF89A
:105570003C90CBF800304FF00008FFF7FDBB0F90D8
:105580000A940121FFF769B8A44615E53146FFF7F3
:1055900064B8E10505D54FF000430593DDE90489C2
:1055A000FEE54FF000084FF00009F9E50000F07F3C
:1055B000FFFFEF7F014BFEF77BBF00BFE80000203D
:1055C00010B4054C8446134620685DF8044B0A4627
:1055D0006146FEF76DBF00BF8C00002010B4054C83
:1055E000054B84460A4620685DF8044B6146FEF789
:1055F0005FBF00BF8C000020E80000202DE9F041D3
:10560000DFF8A480044613462DED028B0A46D8F835
:1056100000002146FEF74CFF02460B4604460D46AD
:1056200024F0C6F850BB2046294624F01FF908EEA6
:10563000100ADFED1A7AB0EEC87AB4EE677AF1EEAE
:1056400010FA15DD25F00047154B4FF0FF322046CC
:10565000394624F0ADF838B9114B4FF0FF322046EF
:10566000394624F087F818B1D8F8003022221A60A1
:1056700018EE100ABDEC028BBDE8F081002D094840
:1056800006DA1EF075FE07EE900AB1EE678AEFE7C4
:10569000BDEC028BBDE8F0411EF06ABEFFFF7F7FCC
:1056A000FFFFEF7F080303008C0000202DE9F84383
:1056B000264F274B04460A4638682146FEF7F8FE77
:1056C00002460B4604460D4624F072F888BB20467D
:1056D000294624F0CBF807EE100ADFED1E7AB0EE73
:1056E000C77AB4EE677AF1EE10FA064617DD25F0B8
:1056F0000049194B4FF0FF322046494624F058F834
:1057000038B9154B204649464FF0FF3224F032F8A5
:1057100028B13B6822221A603046BDE8F88316F0B3
:10572000FF4FF9D10D4B2B40002BF2D13046BDE895
:10573000F883002D0A4804DA1EF01AFE80F00046B5
:10574000EAE7BDE8F8431EF013BE00BF8C0000205E
:10575000E8000020FFFF7F7FFFFFEF7F0000F07F6A
:10576000080303000348044B834202D0034B03B1F8
:1057700018477047800200208002002000000000CF
:105780000548064B1B1AD90F01EBA301491002D0A3
:10579000034B03B1184770478002002080020020AD
:1057A0000000000010B5064C237843B9FFF7DAFF7C
:1057B000044B13B10448AFF300800123237010BDE4
:1057C00060180020000000009842030008B5044B58
:1057D0001BB104490448AFF30080BDE80840CFE79F
:1057E000000000006418002098420300A3F5803AEE
:1057F000704700BF154B002B08BF114B9D46FFF7AC
:10580000F5FF00218B460F461148124A121A20F06C
:10581000D1FF0C4B002B00D098470B4B002B00D036
:1058200098470020002104000D000B4803F074F994
:1058300021F0A4FC2000290002F0ACFB21F002FAC8
:10584000000008000000000000000000000002202E
:1058500000040020441D0020694702006FF47D70A1
:10586000704700BF6FF47D70704700BF6FF47D70AC
:10587000704700BF6FF47D70704700BF6FF47D709C
:10588000704700BFC08800F00500003818BF012035
:10589000704700BFC08800F00A00003818BF012020
:1058A000704700BFC08810F0030018BF0120704788
:1058B000C08800F00C00003818BF0120704700BFFE
:1058C0006FF47D70704700BF6FF47D70704700BF4C
:1058D0006FF47D70704700BF6FF47D70704700BF3C
:1058E0006FF47D70704700BF6FF47D70704700BF2C
:1058F0006FF47D70704700BF6FF47D70704700BF1C
:10590000704700BF064B10B50446D3F83009036852
:105910005B6A98470146204625F076FB012010BDC2
:1059200000050020064B10B50446D3F82C09036887
:105930009B6A98470146204625F066FB012010BD72
:1059400000050020064B10B50446D3F82C09036867
:105950001B6A98470146204625F056FB012010BDE2
:10596000000500202DE9F04182B0012102AF05467B
:1059700027F0A4FC02218046284627F09FFCC31D87
:1059800023F00703ADEB030D6E46002346F8083BFA
:105990000446034632460A4841460BF0B3FA30B19A
:1059A0000849284627F00BFCBD46BDE8F081284693
:1059B0002246314625F035FB0120BD46BDE8F08189
:1059C000000C002058F0020010B5044602F02CFF35
:1059D0000146204625F03DFB012010BD30B583B0C7
:1059E0000F49044601A804F00DF90E4901A805F07D
:1059F00005FE40B1204625F0F6FA01A805F0BAFDF3
:105A0000012003B030BD01A805F00EFE054601A837
:105A100005F00EFE29460246204625F002FBECE783
:105A2000080E0020CC18002030B583B06A46012152
:105A3000044627F00AFC009A0023014601A805F05D
:105A4000A1FD01A9074804F021F9054601A805F0C8
:105A500091FDB5FA85F12046490925F062FB012048
:105A600003B030BD080E0020074B10B50446D3F834
:105A700030090368DB6A9847B0FA80F1490920468B
:105A800025F04FFB012010BD00050020074B10B58D
:105A90000446D3F8300903689B6A9847B0FA80F14E
:105AA0004909204625F03DFB012010BD00050020DE
:105AB00010B50121044627F001FC074B0146D3F83D
:105AC000300903681B6A9847B0FA80F149092046FB
:105AD00025F027FB012010BD00050020074B10B565
